:10000000F8FF022099010000694E0000254E000013
:10001000254E0000254E0000254E0000254E000014
:10002000254E0000254E0000254E0000694E0000C0
:10003000694E0000254E0000F5430000F943000022
:10004000694E0000694E0000694E0000694E0000D4
:10005000694E0000694E0000694E0000694E0000C4
:10006000694E0000694E0000694E0000694E0000B4
:10007000694E0000694E0000694E0000694E0000A4
:10008000694E0000694E0000694E0000694E000094
:10009000694E0000694E0000694E0000694E000084
:1000A000694E0000694E0000694E0000694E000074
:1000B000694E0000694E0000694E0000694E000064
:1000C000694E0000694E0000694E0000694E000054
:1000D000694E0000694E0000694E0000694E000044
:1000E000694E0000694E0000694E0000694E000034
:1000F000694E0000694E0000694E0000694E000024
:10010000694E0000694E0000694E0000694E000013
:10011000694E000015560000694E0000694E00004F
:10012000694E0000694E0000694E0000694E0000F3
:10013000694E0000694E0000694E0000694E0000E3
:10014000694E0000694E0000694E0000694E0000D3
:10015000694E0000694E0000694E0000694E0000C3
:10016000694E0000694E0000694E0000112E00002B
:100170001D2E0000212E00002D2E0000312E00002B
:10018000352E0000694E0000694E0000694E0000E7
:10019000694E0000694E00005A4B4CF2205210B5D7
:1001A000DA814DF62812DA8100BF00BF04F060FE4C
:1001B000554B4FF030621A63544A9A63544ADA63DB
:1001C0004FF0E0234FF47002C3F8882D514A1369B1
:1001D00013F4807303D153614FF4A85313614E4B52
:1001E0009A78110703D59A7842F008029A704B4B1F
:1001F0004B482A221A704B4BDA1C121AC11E22F0ED
:100200000302994288BF0022474904F037FD474B5B
:100210004748DA1C121AC11E22F00302994288BF15
:100220000022002107F05AFB424943484FF4CC72A8
:1002300004F024FD414B424A802103F8011B934204
:10024000FBD14FF0E0233C4AC3F8082D3D4B8A22F6
:100250001A70A3F5805324225A70A0221A709A793A
:100260009207FCD59A79D406FCD4374B9A7902F0E0
:100270000C02082AFAD103221A7146225A719A797D
:100280009006FCD5304A93795906FCD51E4B4FF0A9
:10029000827159640921996420211170917901F0CA
:1002A0000C010C29FAD1294A5A604FF0E023284A60
:1002B0005A6100229A6107221A61264AC3F8202D4A
:1002C00062B604F071FE134B5B69DA0705D522486C
:1002D00004F05EFE214B224ADA61224B1B785B065A
:1002E00009D51E4C1E4BE2699A4204D11A4804F00B
:1002F0004FFE0023E36104F0C1FD07F0EFFB04F0C3
:10030000B5FCFEE70020054000800440823F040069
:100310000100002B00D0034000D0074000E0074060
:10032000F806FF1F500DFF1F988800003418FF1FAC
:10033000500DFF1F000000000002FF1F00E400E05E
:1003400056E400E00050064000400640C0100500A2
:10035000BFD401000000202033D8E36400E0034054
:10036000A5C3945A00F00740FFFFFFFFFFFFFFFF08
:10037000FFFFFFFFFFFFFFFFFFFFFFFFFFFFFFFF8D
:10038000FFFFFFFFFFFFFFFFFFFFFFFFFFFFFFFF7D
:10039000FFFFFFFFFFFFFFFFFFFFFFFFFFFFFFFF6D
:1003A000FFFFFFFFFFFFFFFFFFFFFFFFFFFFFFFF5D
:1003B000FFFFFFFFFFFFFFFFFFFFFFFFFFFFFFFF4D
:1003C000FFFFFFFFFFFFFFFFFFFFFFFFFFFFFFFF3D
:1003D000FFFFFFFFFFFFFFFFFFFFFFFFFFFFFFFF2D
:1003E000FFFFFFFFFFFFFFFFFFFFFFFFFFFFFFFF1D
:1003F000FFFFFFFFFFFFFFFFFFFFFFFFFFFFFFFF0D
:10040000FFFFFFFFFFFFFFFFFFFFFFFFDEF9FFFF23
:100410000548064B1B1AD90F01EBA301491002D066
:10042000034B03B118477047500DFF1F500DFF1FBE
:100430000000000008B5054B1BB105490548AFF3A6
:100440000080BDE80840FFF7E3BF00BF00000000E8
:10045000500DFF1F9088000010B50446006A10B1CF
:1004600003685B68984704F1080004F06FF92046C0
:1004700010BD00BFF0B514468DB00E4600210546F4
:100480001F4604F09FF9621E042A00F28C80DFE808
:1004900002F01E857B8003004549284604F0A6F93A
:1004A000337E08ACDBB9737E002B31D1B37E002BD9
:1004B00053D14049204604F085F92146284604F0EE
:1004C000E7F9204604F042F928460DB0F0BD3A495C
:1004D000284604F08BF9337E08AC002BE3D0394674
:1004E000204604F06FF9354904A804F06BF904A91B
:1004F000204604F0E1F90146284604F0C9F904A8B1
:1005000004F024F9204604F021F9737E002BCDD0AD
:100510002B49684604F056F9694604A804F0F8F837
:10052000129904A804F0D0F924490746204604F0A3
:1005300049F92146384604F0BFF90146284604F03F
:10054000A7F9204604F002F904A804F0FFF8684671
:1005500004F0FCF8B37E002BABD01399204604F0D6
:1005600031F9164904A804F02DF904A9204604F035
:10057000A3F90146284604F08BF904A804F0E6F834
:10058000204604F0E3F894E70E49284604F02EF9DB
:1005900086E70D49284604F029F981E70B492846EA
:1005A00004F024F97CE70A49284604F01FF977E7AC
:1005B000C07F0000D47F0000987F0000CC7F000047
:1005C000D07F0000AC7F0000B47F0000A47F00005B
:1005D000C87F000010B5084C204602F0E7FE07492E
:1005E000074A204605F0A0FEBDE81040054843F646
:1005F000982101F0DBBF00BFA80DFF1FCD33000025
:10060000F806FF1F9C0DFF1F10B50446002100785F
:1006100004F0E8FE6078002104F0E4FEA0780021F8
:1006200004F0E0FEE078002104F0DCFE60790121B6
:1006300004F0D8FEA079012104F0D4FEE079012174
:1006400004F0D0FE207A012104F0CCFE61790C4A3E
:1006500052F83110012381F80031A17952F831109C
:1006600081F80031E17952F8311081F80031217AB6
:1006700052F8312082F80031BDE8104001F0B4B8E2
:10068000D88500002DE9F043044687B0007804F0D7
:100690003FFA80B2632847D9E36A002B42DCB0F509
:1006A000967FC0F00381B0F5FA7FC0F00181B0F50C
:1006B0002F7F34BF04260526E368B3422FD0DFF82E
:1006C0003082D8F80070BFF35B8F17F0010700F09D
:1006D000C8807A4DE268052A96BF794B784B53F86B
:1006E000227053F826806A6A2B6888BF754F1343BF
:1006F00014D0754B01932B2300937049734B032245
:1007000002A8FFF7B7FE2B68022B11DC286A10B194
:100710006B6A022B59DC02A804F018F8E66007B0F7
:10072000BDE8F0830026C7E70023E3620126C3E7A4
:10073000E86902A903F0C2FEEB7E002B40F0BA800C
:10074000E8696349036817225B6898476149E8696B
:1007500003F0B4FED5F81C905FB1384607F0F0F90D
:10076000D9F8003002465B68484639469847D5F8C4
:100770001C905849484603F0A1FEE86956490368B1
:1007800002225B6898475349E86903F097FED5F861
:100790001C90B8F1000F0BD0404607F0D1F9D9F802
:1007A000003002465B68484641469847D5F81C90A1
:1007B000D9F8003049495B68484601229847EB7EEA
:1007C000002BA3D00A236B60A0E7036802A95B6932
:1007D0009847286A50B195F8283013B10368DB6850
:1007E0009847EB7E0BB10A236B60286A036838498F
:1007F0009B699847286A374903685B699847286A64
:10080000036839469B699847286A324903685B69DF
:100810009847286A304903689B699847286A2D4998
:1008200003685B699847286A036841469B69984753
:10083000286A00283FF46FAF036828499B699847EE
:10084000286A00283FF467AF95F8283013B1036891
:10085000DB689847EB7E002B3FF45DAF0A236B60AB
:1008600059E7404604F026FB144D00283FF432AF10
:1008700003232B601A490A2305F108006B6003F07B
:10088000A1FF0223EB62174BEB614FF00133AB6129
:10089000154A16492F620123284685F828706B6295
:1008A00005F042FD404604F00BFB13E7022603E788
:1008B000032601E70A236B6042E700BF6C0DFF1FB0
:1008C000BC810000D87F0000F87F0000E47F0000BA
:1008D0000C800000740DFF1F2480000028800000A1
:1008E000CC7F00005C07FF1FF806FF1F59040000C3
:1008F000680DFF1F38B5134D2B68BFF35B8FDB0707
:10090000044606D5104803F0CBFCA0B9012323749C
:1009100038BD284604F0CEFA0028F3D061780A48A2
:10092000642203F0A7FC284604F0CAFA064803F044
:10093000B7FC0028EAD0044803F0ECFC0123237440
:1009400038BD00BFD00DFF1F840EFF1F38B5154CFA
:100950002368BFF35B8FDB07054614D5124803F00D
:100960009FFC00B938BD104803F0D6FC0028F9D030
:1009700004F074FD0D490E4B0A680860821AB3FB3F
:10098000F2F3AB8438BD204604F094FA0028E5D099
:10099000A9780548032203F06DFC204604F090FA84
:1009A000DCE700BFC80DFF1FD80DFF1FE80DFF1FBC
:1009B0005581F2072DE9F043C368032B87B0044645
:1009C00046D0042B3DD14FF42A763746E38CBB4208
:1009D0002FD0DFF8FC91D9F80030BFF35B8F13F014
:1009E000010800F0AC806E4D2B686A6A134320D07A
:1009F00064236C4A06FB03F303F2FF1382FB03122A
:100A00001A44DB17C3EB6228674B019374230093EE
:100A10006349664B032202A8FFF72CFD2B68022BCB
:100A20001ADC286A10B16B6A022B47DC02A803F0BB
:100A30008DFEE079E784314607B0BDE8F04304F06D
:100A400015BB052B40F0A88040F2FF363746BDE7C6
:100A50004FF4CD763746B9E7E86902A903F02EFDD9
:100A6000EB7E002B40F09180E869514903681D221C
:100A70005B6898474F49E86903F020FD6A68E869B8
:100A80000A2A00F08580D2B20023414603F052FDCD
:100A90004849E86903F012FDE86947490368012203
:100AA0005B689847E8694549036801225B68984795
:100AB000EB7E002BB5D00A236B60B2E7036802A976
:100AC0005B699847286A50B195F8283013B10368DC
:100AD000DB689847EB7E0BB10A236B60286A0368DA
:100AE00033499B699847286A324903685B6998478C
:100AF000286A6A6803684146DB6A9847286A2D4974
:100B000003685B699847286A2B4903689B69984783
:100B1000286A00288AD0036828499B699847286A70
:100B2000002883D095F8283013B10368DB68984714
:100B3000EB7E002B3FF47AAF0A236B6076E74846E2
:100B400004F0B8F9164D00283FF44EAF03232B6094
:100B50001B490A2305F108006B6003F033FE194BB3
:100B6000EB614FF00133AB6101236B62164A174909
:100B7000C5F820800223284685F82880EB6205F01E
:100B8000D3FB484604F09CF92EE70A236B606BE721
:100B9000414603F0B9FC7BE70026374616E700BF65
:100BA0006C0DFF1F030820802C800000E47F0000F4
:100BB00040800000740DFF1F60800000288000004E
:100BC000CC7F00005C07FF1FF806FF1F59040000E0
:100BD000680DFF1FFFFFFFFFF0B52DED028B3A4EB2
:100BE0003568BFF35B8F15F0010583B0044648D02C
:100BF00094ED058A354D18EE100A05F08FFDF0EEE4
:100C0000087AB4EEE78AF1EE10FAC5E9000102D8DD
:100C10002F4B01221A70F1EE0C7AB4EEE78AF1EE56
:100C200010FA1DDBE3682A4A0021012B11701EDD3A
:100C3000284801F0F9FB284BD3E9006739463046D4
:100C400006F09CF839462085304606F06FF80146DC
:100C5000607903B0BDEC028BBDE8F04004F006BA49
:100C6000E368012B03DD1A4B1B78002BE0D0607981
:100C70000021218503B0BDEC028BBDE8F04004F0FB
:100C8000F5B9304604F016F90028B1D09FED082BD5
:100C90009FED091B9FED0A0B104B0F4A0B49009566
:100CA0000C4801F035FB304604F00AF9A0E700BF1C
:100CB000000000000000F03F0000000000001440B1
:100CC0000000000000000040CC0DFF1F700EFF1F51
:100CD000680EFF1FF00DFF1F780EFF1F0007FF1F9C
:100CE0002DE9F041C36A8B4286B004460D4606D119
:100CF0002046E56206B0BDE8F041FFF7C3BCDFF86F
:100D00009881D8F80070BFF35B8F17F0010700F0EF
:100D10008380554E726A102D96BF544B544F53F832
:100D2000257033681343E3D0524B01939D23009306
:100D30004D49514B012202A8FFF79CFB3368002B61
:100D400008DC306A10B1736A002B30DC02A803F0B3
:100D5000FDFCCDE7F06902A903F0B0FBF37E002BA8
:100D60007FD1F0694549036824225B68984744496C
:100D7000F06903F0A3FBD6F81C805FB1384606F09B
:100D8000DFFED8F8003002465B6840463946984797
:100D9000D6F81C80D8F800303A495B6840460122FA
:100DA0009847F37E002BCCD00A237360C9E7036811
:100DB00002A95B699847306A50B196F8283013B1A0
:100DC0000368DB689847F37E0BB10A237360306ACF
:100DD00003682A499B699847306A294903685B6917
:100DE0009847306A036839469B699847306A0028FB
:100DF000ACD0036823499B699847306A0028A5D086
:100E000096F8283013B10368DB689847F37E002B0F
:100E10009CD00A23736099E7404604F04BF8124EC9
:100E200000283FF477AF0323336017490A2306F104
:100E30000800736003F0C6FC0223F362134BF361F6
:100E40004FF00133B361124A124937620123304631
:100E500086F82870736205F067FA404604F030F8AF
:100E600058E70A2373607CE76C0DFF1FD4810000F4
:100E7000D87F000064800000E47F00006C800000E8
:100E8000740DFF1F28800000CC7F00005C07FF1F4F
:100E9000F806FF1F59040000680DFF1F70B50446D7
:100EA0000D460068616A014386B014D09DB10A996D
:100EB000019100932146134602A82A46FFF7DAFA69
:100EC0002368AB4209DA206A10B1636AAB4222DAC6
:100ED00002A803F03BFC06B070BDE06902A903F074
:100EE000EDFAE37E0BB10A236360E6690B9806F026
:100EF00027FE33680B995B68024630469847E069E5
:100F00001B49036801225B689847E37E002BDAD017
:100F10000A236360D7E7036802A95B699847206AE0
:100F200040B194F828301BB10368DB689847206A09
:100F3000E37ECBB903680B999B699847206A002828
:100F4000C6D003680A499B699847206A0028BFD029
:100F500094F8283013B10368DB689847E37E002BD0
:100F6000B6D00A236360B3E70A236360E2E700BFF9
:100F70002880000070B504460D460068616A014390
:100F800086B014D09DB10A99019100932146134671
:100F900002A82A46FFF76EFA2368AB4209DA206AF4
:100FA00010B1636AAB423DDA02A803F0CFFB06B092
:100FB00070BDE06902A903F081FAE37E0BB10A2358
:100FC0006360E6690B9806F0BBFD33680B995B68BC
:100FD0000246304604F1080698473146E06903F0BE
:100FE0006DFA0C9922790968E069002303F0A2FAEE
:100FF0003146E06903F062FAE6690D9806F0A0FD5B
:1010000033680D995B68024630469847E069284985
:10101000036801225B689847E37E002BBFD00A2358
:101020006360BCE7036802A95B699847206A48B11E
:1010300094F828301BB10368DB689847206AE37E88
:10104000002B31D103680B999B699847206A03688C
:1010500004F108055B6929469847206A0C990368E2
:1010600062681B6B09689847206A036829465B69B8
:101070009847206A0D9903689B699847206A002861
:1010800092D003680A499B699847206A00288BD050
:1010900094F8283013B10368DB689847E37E002B8F
:1010A00082D00A2363607FE70A236360CAE700BF38
:1010B000288000002DE9F043C368012B044689B065
:1010C000807931DD04F080F96D4E6E4D80B133686A
:1010D0000793079B2968A28C5B1AB2F5967F05934C
:1010E00003D841F28732934228D809B0BDE8F08393
:1010F00033680693DFF8A081069BA0792B6001215D
:1011000004F038F9D8F80070BFF35B8F17F00107CF
:1011100041D05D4A5D4B019200935D4A5D48622378
:101120000321FFF7BBFED2E704F04EF908BBA0791C
:10113000002109B0BDE8F04304F01CB9564E3568F3
:10114000BFF35B8F15F0010551D0544D4F4B544AFE
:10115000039205AE8DE868004E484D4A0121682390
:10116000FFF708FF0221204609B0BDE8F043FFF772
:10117000B7BD494E3568BFF35B8F15F001055AD0F6
:101180004849424B01910093414A42485923032167
:10119000FFF784FECBE7404603F08CFE0028B8D072
:1011A000DFF8F09040490323C9F8003009F1080046
:1011B0000A23C9F8043003F005FB3C4BC9F81C3086
:1011C0004FF00133C9F818300123C9F82430384AE8
:1011D0003849C9F820700223484689F82870C9F8B0
:1011E0002C3005F0A1F8404603F06AFE91E7304646
:1011F00003F060FE0028A8D0264F2B4903233B6054
:101200000A237B6007F1080003F0DCFA4FF001339A
:10121000BB61264BFB6101237B620223244A2549E3
:101220003D62FB6287F82850384605F07DF830466D
:1012300003F046FE89E7304603F03CFE00289FD0CD
:10124000144F194903233B600A237B6007F1080010
:1012500003F0B8FA4FF00133BB61144BFB6101237B
:101260007B620223124A13493D62FB6287F82850D1
:10127000384605F059F8304603F022FE80E700BFFB
:10128000FC13FF1F800EFF1FBC800000AC8000001D
:10129000E47F00006C0DFF1F680DFF1FFC80000045
:1012A000D480000094800000CC7F00005C07FF1F0A
:1012B000F806FF1F5904000038B5334D2B68BFF303
:1012C0005B8FDB07044604D5304801F07FF988B90D
:1012D00038BD284603F0EEFD0028F5D00A212B4842
:1012E00001F064F9284603F0EBFD284801F06EF99F
:1012F0000028EDD02046FFF7C5F9E07803F008FCA0
:1013000040F29A339842A8BF18466628B8BF6620B4
:10131000A0F166034FF4137202FB03F31C4A03F5BA
:10132000CD73A2FB03231B0A653363822046FFF7BC
:101330000DFB2046FFF7DEFA237CFBB1207904F198
:10134000140100F0F5FA94F8223093B9E168207A9C
:101350000129D4BF0021012104F00CF82046FFF739
:10136000A9FE2046FFF738FC2046BDE83840FFF7CD
:1013700021BB04212046FFF7B3FCE7E7012120460B
:10138000FFF7AEFCDAE700BFD40DFF1F940EFF1F7E
:10139000FF04EC4F08B50121152004F023F8BDE847
:1013A00008400121172004F01DB800BF10B51C48EB
:1013B00001F00CF900B910BD172004F005F8194C24
:1013C000B0FA80F14909172003F0D4FF2278D3073F
:1013D00020D4154BA3FB0213D11A03EB51031B09B5
:1013E00003EB4303C3EBC303D21AC2F34602072A3B
:1013F00010D80E4B1B78134113F0010F0C4B4FF01C
:10140000400214BFC3F8C420C3F8C82023780133B6
:10141000237010BD0021152003F0ACFFF6E700BFDC
:10142000A00EFF1FAC0EFF1F876118860807FF1F65
:1014300000F00F4002484FF4967101F0B7B800BFBA
:10144000A00EFF1F2DE9F04FDFF880B2DBF800405F
:10145000BFF35B8F14F0010493B000F09480924FBF
:10146000924D934CDFF89082DFF890A204230A207B
:101470003B6003F017FB8F48FFF7C6F8FFF78AFFC2
:101480002E6840F2EE2904F09DFE2378F3B198F81F
:101490000030D9071AD52B68DAF800209B1A0E2BDA
:1014A00014D90023844A85498548009301F0FEF948
:1014B000DBF80040BFF35B8F14F0010441D03B68C0
:1014C0007A6A13430FD113B0BDE8F08F2B682278EE
:1014D0009B1B2AB1B3F5FA6FE3D804F073FED2E791
:1014E0004B45FAD9DDE7002102A803F06BF97549F5
:1014F00002A803F07BF93B7E0EAC002B40F0BC80D1
:101500007B7E002B40F09580BB7E002B7AD16E490C
:10151000204603F057F9214602A803F0B9F9204606
:1015200003F014F93B68022B52DC386A18B17B6A6D
:10153000022B00F3E58002A803F008F913B0BDE820
:10154000F08F624803F0B6FC0028B8D003233B605C
:101550005F4960480A237B6003F034F95E4BFB610E
:101560004FF001300123B8617B625C4A5C494E4810
:101570003C620223FB6287F8284004F0D5FE534802
:1015800003F09EFC9BE7584603F094FC464F00286E
:101590003FF466AF03233B604D490A2307F108007F
:1015A0007B6003F00FF94C4BFB614FF001310123DD
:1015B000B9617B62494A4A493C6202233846FB6270
:1015C00087F8284004F0B0FE584603F079FC47E75E
:1015D000F86902A902F072FFFB7E0BB10A237B605F
:1015E000F869404903680E225B689847F8693E49EC
:1015F000036801225B689847FB7E002B95D00A2385
:101600007B6092E73949204603F0DCF830490AA8AC
:1016100003F0D8F80AA9204603F04EF9014602A8C3
:1016200003F036F90AA803F091F8204603F08EF88B
:101630006DE72F490AA803F0C5F80AA9204603F070
:1016400067F82C21204603F03FF92149054606A8FA
:1016500003F0B8F806A9284603F02EF9014602A8BF
:1016600003F016F906A803F071F8204603F06EF8AF
:101670000AA803F06BF847E71E49204603F0A2F8DA
:1016800013490AA803F09EF80AA9204603F014F9AA
:10169000014602A803F0FCF80AA803F057F8204618
:1016A00003F054F82CE700BF6C0DFF1FFC13FF1F65
:1016B000DC14FF1FBC0EFF1FB010FF1F20A107008E
:1016C000140FFF1FAC7F0000D47F0000680DFF1FC8
:1016D000CC7F0000740DFF1F5C07FF1FF806FF1F83
:1016E0005904000030820000288000002882000099
:1016F000D07F00001C8200000015FF1F0415FF1F93
:10170000036802A95B699847386A50B197F8283096
:1017100013B10368DB689847FB7EFBB10A23386A84
:101720007B6003680E499B699847386A00283FF43C
:1017300002AF03680B499B699847386A00283FF459
:10174000FAAE97F8283013B10368DB689847FB7E40
:10175000002B3FF4F0AE0A237B60ECE6386AE0E74A
:10176000308200002880000008B503F077FE054BAA
:10177000054A18601060FFF719FEBDE808400348ED
:10178000FFF79ABDFC0EFF1FEC0EFF1FBC0EFF1FE4
:1017900010B542F210710E480E4C00F007FF4FF4E6
:1017A000FA710D4800F002FF01210C4800F0FEFE26
:1017B0000B4B0C49596000224FF48F7010211C60B4
:1017C00098601A615A629A62DA60D96210BD00BFED
:1017D000000FFF1F21222324B00EFF1FF00EFF1F5A
:1017E000BC0EFF1F0E05061D08B50A4801F040FC9F
:1017F00001210E2003F0F6FD01210E2003F0BAFDB9
:1018000001210F2003F0EEFDBDE8084001210F206B
:1018100003F0B0BDB810FF1F70B504460D46006858
:10182000616A014386B014D09DB10A990191009379
:101830002146134602A82A46FEF71CFE2368AB4247
:1018400009DA206A10B1636AAB4231DA02A802F009
:101850007DFF06B070BDE06902A902F02FFEE37EB5
:101860000BB10A236360E6690B9806F069F93368E7
:101870000B995B6802463046984704F10801E0691D
:1018800002F01CFE62680C9BE06919680A2A46D0C7
:10189000D2B2002302F04EFEE0692449036801221F
:1018A0005B689847E37E002BCBD00A236360C8E7D0
:1018B000036802A95B699847206A48B194F8283008
:1018C0001BB10368DB689847206AE37E002B29D1AF
:1018D00003680B999B699847206A036804F1080123
:1018E0005B699847206A0C99036862685B6A0968BB
:1018F0009847206A0028A9D003680C499B6998473B
:10190000206A0028A2D094F8283013B10368DB685D
:101910009847E37E002B99D00A23636096E702F094
:10192000F3FDB9E70A236360D2E700BF2880000017
:101930002DE9F047A64CA74AE37A12688EB0884694
:101940000590DBB172B6E37AD80708D54FF0E020F6
:10195000E568D0F880112940C0F88011A16199078D
:1019600008D54FF0E0202569D0F884112940C0F84F
:101970008411E1615B0700F1C78062B62368D96812
:10198000914207D094491960DA6042F08041934A4D
:1019900019611A609DF81470914E924A56F83730CA
:1019A0008B48012583F800511146042301F0A0FB68
:1019B00056F83720E37A82F88050A3B1DF0704D5C8
:1019C0004FF0E022A169C2F800119E0704D54FF044
:1019D000E022E169C2F804115D0704D54FF0E0236D
:1019E000226AC3F808217F4F7F4BDFF814923B60D7
:1019F000D9F80050BFF35B8F15F0010500F01B8193
:101A00007A4C7B49774D7B4E06A802F0DBFE05F150
:101A1000040A2B781B0906A8F15C02F03DFF15F8BB
:101A2000013B03F00F0306A8F15C02F035FFAA4565
:101A3000EFD12368626A134340F0E48006A802F005
:101A400085FE3B787A78980100F4FE5040EA9200D7
:101A50001B0644BF404200B2A8F8040004F04CFE4C
:101A600041EC100B6FF0030004F066FC51EC100B1E
:101A700005F0A4F9C8F80000D9F80050BFF35B8F57
:101A800015F0010500F01F812368626A134340F0DE
:101A90008580BB78FA78180100F4FE6040EA1210E5
:101AA0001E0644BF404200B2A8F80C0004F024FE19
:101AB00041EC100B6FF0010004F03EFC51EC100BF8
:101AC00005F07CF9C8F80800D9F80050BFF35B8F27
:101AD00015F0010500F0D4802368626A13431DD11C
:101AE0007B78DB0735D4FB7803F0070288F80E20FB
:101AF0005A0700F138819D0700F11F81D90700F1D5
:101B000005810EB0BDE8F0874FF0E0216069D1F8A3
:101B1000883103402362C1F888312EE7364B0193A8
:101B20000AAD2C2300933149344B05222846FEF799
:101B3000A1FC2368042B00F3B581206A18B1636A05
:101B4000042B00F37582284602F000FE7B78DB0749
:101B5000C9D5D9F80050BFF35B8F15F0010500F02F
:101B6000DE822368626A1343BDD0234B01930AAD22
:101B70002E2300931D49214B02222846FEF77AFCB2
:101B80002368012B00F33D83206A18B1636A012B9F
:101B900000F36B83284602F0D9FDA4E7164B0193AE
:101BA0000AAD272300931149144B05222846FEF75E
:101BB00061FC2368042B00F31D81206A18B1636A5D
:101BC000042B00F3EB81284602F0C0FD61E700BF63
:101BD000B810FF1F0C0FFF1F01403F0000003F80A7
:101BE000D8850000100FFF1F3E8819806C0DFF1F65
:101BF00040820000388300005C82000048820000C0
:101C0000680DFF1F984B01930AAD2223009397495B
:101C1000974B05222846FEF72DFC2368042B00F382
:101C2000B880206A18B1636A042B00F374812846D7
:101C300002F08CFD02E7484603F03CF98B4C00288B
:101C40003FF4DFAE032323600A236360894904F174
:101C5000080002F0B7FD0223E362874BE3614FF017
:101C60000133A3610123854A8549256284F8285000
:101C70006362204604F058FB484603F021F9C0E6B1
:101C8000804803F017F900283FF426AF03232360B0
:101C90000A23636077497C4802F094FD0223E362E3
:101CA000754BE3614FF00133A3610123734A74491B
:101CB000256284F8285063626C4804F035FB714853
:101CC00003F0FEF808E76F4803F0F4F800283FF44B
:101CD000DBAE032323600A23636066496A4802F08F
:101CE00071FD0223E362644BE3614FF00133A361B2
:101CF0000123624A6249256284F8285063625B4886
:101D000004F012FB5F4803F0DBF8BDE6D9F80050A1
:101D1000BFF35B8F15F0010500F0DE8105A85B497C
:101D2000514B029001910093514A50483D230221AA
:101D3000FFF772FD0EB0BDE8F087D9F80050BFF391
:101D40005B8F15F0010500F03082514A464B01923D
:101D500005A902910093464A444838230221FFF71F
:101D60005BFDFB78CAE6D9F80050BFF35B8F15F036
:101D7000010500F0F781474A3B4B019205A902910A
:101D800000933B4A394833230221FFF745FDFB7896
:101D9000B1E6E069294602F091FBE37E0BB10A232C
:101DA0006360E0693C4903680F225B6898473649E5
:101DB000E06902F083FB62680599E0690A2A00F095
:101DC0001782D2B2002302F0B5FB2F49E06902F07E
:101DD00075FB06A9E06902F071FBE0692F49036811
:101DE00001225B689847E37E002B3FF41AAF0A2379
:101DF000636016E7E069294602F060FBE37E0BB101
:101E00000A236360E069264903681E225B689847DD
:101E10001D49E06902F052FB62680599E0690A2AEF
:101E200000F0E981D2B2002302F084FB1649E06998
:101E300002F044FBD8F8000094F82C6004F06EFC2B
:101E400041EC100B3146E06902F07EFBE06913497A
:101E5000036801225B689847E37E002B3FF4ADAE38
:101E60000A236360A9E600BF5C8200006C0DFF1FBF
:101E700048820000CC7F00005C07FF1FF806FF1FB0
:101E800059040000680DFF1F740DFF1F148300002C
:101E9000F0820000CC8200006882000028800000F0
:101EA00078820000E069294602F008FBE37E0BB16E
:101EB0000A236360E0698349036819225B689847D5
:101EC0008149E06902F0FAFA62680599E0690A2A34
:101ED00000F09481D2B2002302F02CFB7A49E06931
:101EE00002F0ECFAD8F8080094F82C6004F016FC24
:101EF00041EC100B3146E06902F026FBE0697349C2
:101F0000036801225B689847E37E002B3FF415AE1F
:101F10000A23636011E6036829465B699847206AD3
:101F200050B194F8283013B10368DB689847E37E1A
:101F3000002B40F09481206A036865499B699847AB
:101F4000206A614903685B699847206A6268036890
:101F500005995B6A9847206A5B4903685B69984703
:101F6000206A036806A95B699847206A00283FF445
:101F70005EAE036855499B699847206A00283FF484
:101F800056AE94F8283013B10368DB689847E37EB7
:101F9000002B3FF44CAE0A23636048E603682946F1
:101FA0005B699847206A50B194F8283013B10368F0
:101FB000DB689847E37E002B40F04E81206A03687F
:101FC00044499B699847206A3F4903685B69984781
:101FD000206A6268036805995B6A9847206A3A49F3
:101FE00003685B699847266AD8F8000004F096FBFE
:101FF000336841EC100B5B6BE16A30469847206A0E
:1020000000283FF4E0AD036830499B699847206A97
:1020100000283FF4D8AD94F8283013B10368DB688A
:102020009847E37E002B3FF4CEAD0A236360CAE5F8
:10203000036829465B699847206A50B194F82830B4
:1020400013B10368DB689847E37E002B40F0018101
:10205000206A03681B499B699847206A1A490368EC
:102060005B699847206A6268036805995B6A9847CC
:10207000206A154903685B699847266AD8F8080002
:1020800004F04CFB336841EC100B5B6BE16A3046AB
:102090009847206A00283FF456AD03680B499B69B6
:1020A0009847206A00283FF44EAD94F8283013B1C9
:1020B0000368DB689847E37E002B3FF444AD0A23B6
:1020C000636040E598820000740DFF1F28800000C7
:1020D0006882000078820000804802F0EBFE002851
:1020E0003FF41CAE032323600A2363607C497D48D0
:1020F00002F068FB7C4BE361012363624FF0013027
:102100000223A061794A7A492562E36284F8285063
:10211000784804F009F9714802F0D2FEFEE56F48F4
:1021200002F0C8FE00283FF41CAD032323600A23FD
:1021300063606B496B4802F045FB0223E3626A4B24
:10214000E3614FF00133A3610123684A68492562C6
:1021500084F828506362674804F0E6F85F4802F0AC
:10216000AFFEFEE45D4802F0A5FE00283FF403AE9A
:10217000032323600A23636059495A4802F022FB73
:102180004FF00133A361584BE361012363620223E3
:10219000564A57492562E36284F82850554804F0AE
:1021A000C3F84E4802F08CFEE5E54C4802F082FE92
:1021B00000283FF4CAAD032323600A236360484923
:1021C000484802F0FFFA4FF00133A361464BE36148
:1021D000012363620223454A45492562E36284F88C
:1021E0002850444804F0A0F83C4802F069FEACE5F1
:1021F00002F08AF9E9E502F087F917E602F084F9BE
:102200006CE6E069294602F059F9E37E0BB10A2336
:102210006360E0693849036816225B689847314972
:10222000E06902F04BF962680599E0690A2A19D061
:10223000D2B2002302F07EF9E0693049036801223E
:102240005B689847E37E002B3FF49EAC0A236360F3
:102250009AE40A236360FBE60A236360AEE60A237E
:10226000636068E602F050F9E6E7036829465B69B7
:102270009847206A50B194F8283013B10368DB689E
:102280009847E37E0BB10A236360206A03681A490A
:102290009B699847206A134903685B699847206ADD
:1022A0006268036805995B6A9847206A00283FF4D2
:1022B00071AC036811499B699847206A00283FF474
:1022C00069AC94F8283013B10368DB689847E37E63
:1022D000002B3FF45FAC0A2363605BE4680DFF1FD3
:1022E000CC7F0000740DFF1F5C07FF1FF806FF1F67
:1022F000590400006C0DFF1FB4820000288000000C
:10230000014B024A1A6070470C0FFF1F0320003870
:102310002DE9F04FC0E90E120022036480F870200E
:102320003CA3D3E9002385B00546C0E91A234FF04A
:10233000000A4FF0000B64230E9C8365C0E918ABC4
:10234000524651EC100B5B462C638DED000B57ECA5
:10235000116B59EC128B04F0ABFC002835D15246BE
:102360005B463046394604F0A3FC70BB52465B46E0
:102370004046494604F09CFC38BB9DED007B0123A0
:10238000C5E90267C5E9048985ED007B85ED067B1B
:10239000304639466B6385F8713020A3D3E90023BA
:1023A00004F014FA02460B464046494690469946C8
:1023B000C5E9088919A3D3E9002304F031FB012CF6
:1023C00006460F46C5E90A6709D0114B1B680393FF
:1023D000039B2846643B6B6405B0BDE8F08FDDE9E4
:1023E00000235046594604F039F84246C5E9060133
:1023F0004B465046594604F031F83246C5E90801CB
:102400003B465046594604F029F8C5E90A01DCE785
:10241000FC13FF1F0000000000E06F409A9999999B
:102420009999B93FFFFFFFFF2DE9F04F2DED048B88
:1024300090F8705087B05DB15B4A436C12680592AA
:10244000059A00921146826DCB1A9A42044606D92B
:102450000025284607B0BDEC048BBDE8F08F836BE8
:10246000D3E900AB036C5246D3E900015B4603F0AD
:10247000F5FFD4E9142306460F465046594603F0AB
:10248000EDFFD4E90823804689463046394604F0FA
:102490009DF9D4E9122303F0E3FF94F8713001931E
:1024A00047EC186B06460F46C4E9126749EC198BD6
:1024B0007BB9D4E906234046494604F087F9024631
:1024C0000B463046394603F0C9FF06460F46C4E9BD
:1024D0001267D4E91A8932463B464046494604F021
:1024E000E7FB00284CD194ED187B324651EC170BDA
:1024F0003B468DED027B04F0F9FB28B19DED027B9C
:1025000084ED127B57EC176B019B002B3FD051ECF5
:10251000180BD4E9062304F059F941EC180BD4E95F
:102520000A2351EC190B04F051F902460B463046D0
:10253000394603F093FF53EC182B03F091FF064646
:102540000F464046494632463B4604F0B1FB50B97F
:10255000D4E9188932463B464046494604F0C6FB5A
:1025600008B9B046B946E36BC3E90089009B6364D0
:102570002846C4E914AB07B0BDEC048BBDE8F08F6E
:10258000019BC4E9128946464F46002BBFD19FEDFF
:10259000047BB0EE478AF0EE678AC0E7AFF30080B5
:1025A0000000000000000000FC13FF1F064B8160CC
:1025B00082B01A680192019A42604FF0000C80F8D4
:1025C00000C002B0704700BFFC13FF1F10B40F4CD7
:1025D00041682368826883B00093009B5B1A934232
:1025E00004D2002003B05DF8044B70472AB1037891
:1025F0001BB9114441600120F4E723680193019B5A
:102600004360012003B05DF8044B7047FC13FF1FCB
:1026100000207047704700BF38B51B4B1B491A7923
:1026200004460025216022F003024B21C4F8F81073
:102630001D601A71022010232021A4F8983184F81B
:102640009401A4F89611C4F8A0502946C4F8B050DB
:10265000402204F1B40005F041F9C4F88450C4F8F4
:102660008850C4F88C50C4F890509822294604F140
:10267000FC0005F033F91F220F23C4F80021C4F831
:102680000C31204638BD00BFB010FF1F0040024093
:1026900070B52D4EB6FBF1FCBCF1050FB6FBFCF49A
:1026A0004FF00005A1EB040421D92B4603F1010EE4
:1026B0000233BCFBF3F2192A02FB03F30FD8B6FB7B
:1026C000F3F3CB1A002BB8BF5B42A34209DA1C46D6
:1026D00075460B2A06D9122A9CBF1C4675467346BE
:1026E000E4E7F6D0052AFAD86B1CBCFBF3FCACF18E
:1026F000050CBCF1140F1ED8B4F5967F1BDC134BF0
:1027000000680CEB4C0C03EB0C0213F80C10537824
:102710009278DB04120403F4601302F4E02201F067
:10272000070113430B4343F4800343F4804343EA1C
:102730000563436070BD0648392103F03DFCBDE8E8
:102740007040044801F0E8BE0024F4000C07FF1FAD
:102750004C8300005C07FF1F012938BF012130B501
:10276000D0F8A03004460F2928BF0F21084684F86E
:1027700094111BB3C1F1100E5FFA8EF5AE46002224
:102780002D01236803F1800C5CF8023003F4001380
:1027900043F080634CF8023010329542F1D110259D
:1027A0004FF0006123680EF10102803315FB0E33F8
:1027B0005FFA82FEBEF1100F1960F3D130BD00BF89
:1027C00090F89431C3F11003DBB29A4222D210B5D3
:1027D0008C46864600EBC203D1E90001043383E84E
:1027E00003009CF80430DEF80010DB0713D5DCF89A
:1027F00000001023843113FB021120F060400860B8
:10280000DEF80010803113FB02131A6842F4001244
:102810001A6010BD7047DCF800400948102384316D
:1028200013FB021100EA84400860DEF800108031DA
:1028300013FB02131A6822F400121A6010BD00BFC5
:102840000000FC1F90F89431C3F11003DBB29A42F0
:1028500022D2036810B41C68E4011ED41C6844F042
:1028600080441C600468236843F08053236004683C
:102870002368DB01FCD504F5086404EB82042160C5
:102880000268136823F08053136002681368DB0149
:10289000FCD45DF8044B7047704703F5086303EB05
:1028A00082035DF8044B1960704700BFF0B517460E
:1028B00083B0D0F8A0209DF8205006461C46002A80
:1028C00000F08D80624A306890427BD0614A137874
:1028D00043F0800313703368A2F58222934206D13D
:1028E00002F51032D36B43F01003D36333685A6898
:1028F00022F400525A603268136843F08043136038
:102900003268136823F00043136032681368DB02F7
:10291000FCD4136883F00073136033681C6814F0F0
:102920000074FBD11A68D501FCD51A6842F4003254
:102930001A603046FFF7ACFE3268136843F4803308
:10294000136096F89411102912D000252A463046BB
:102950000021FFF777FF2A463946FFF731FF96F847
:1029600094110134C1F11003E5B2DBB29D42EDD305
:102970003268136823F08053136033681A68D001FB
:10298000FCD41A681201FCD43046FFF7E5FED6F8F5
:10299000F83003F1604303F5644340221A70D6F81F
:1029A000F820530903F13823403301219B0002F042
:1029B0001F0201FA02F21A6033684FF6FF70986244
:1029C00003B0F0BD012C2CD0234B4FF40072012D2D
:1029D0001A632CD0204B4FF400725A6376E7B0F89C
:1029E00098010191000102F06FFAD6F8B030019918
:1029F000C6F8A00003B3C6F8AC300023A6F89430A4
:102A0000A6F89630A6F8A430A6F8A630B6F8983105
:102A1000A6F89830B6F89631C6F89C00A6F8A8300B
:102A200050E70E4B4FF40072012D9A64D2D10B4B3C
:102A30004FF40072DA6449E7B6F89601000102F03B
:102A400043FA0199C6F8B0000346D6F8A000D2E7D1
:102A500000400240005006400090044000A00440A6
:102A600030B58B7904684FF0100E04F1840CDC074C
:102A70001EFB02CC25D50C6824F06044CCF8004045
:102A8000046804F1880C8C681EFB02CC24BACCF8D4
:102A90000040046804F18C0C1EFB02CC12FB0EFEFD
:102AA000CA6812BACCF800209A073CD5CB790268E4
:102AB0001B04803203F4702343F0476342F80E3066
:102AC00030BD0D681D4C04EA8544CCF80040046814
:102AD00004F1880C8C681EFB02CC24BACCF80040B0
:102AE000046804F18C0C1EFB02CC12FB0EFECA68BB
:102AF0009B0712BACCF800200AD5CB7902681B04D8
:102B0000803203F4702343F0416342F80E3030BD4D
:102B1000CB7902681B04803203F4702343F04063D6
:102B200042F80E3030BDCB7902681B04803203F4CA
:102B3000702343F0466342F80E3030BD0000FC1FA6
:102B40000B4601684FF0100C80311CFB021170B570
:102B500009689980C1F30346DE710468843412FB6E
:102B60000CFE1CFB024CC1F30055C1F34052DCF8D3
:102B7000004042EA4502C1F3036C9A71ACF1060CC5
:102B8000D2B2D207BCFA8CFC9A7924F060444FEAA6
:102B90005C1C1C606CF382025CBFA40C1C609A710C
:102BA00002688832042E52F80E2012BAC1F307458B
:102BB0009A6005D902688C3252F80E2012BADA6097
:102BC00015F0080108D106F10800C6F10802184402
:102BD000BDE8704004F082BE70BD00BF2DE9F04F2B
:102BE000834689B05BF8B42B136B0393054682468A
:102BF0000024994608E0022B4CD00134102C0AF135
:102C0000080A0BF1040B40D029FA04F3D907F4D5D4
:102C1000270102F18003DB59C3F30363062B39D08C
:102C2000082BE8D1DBF80060002E00F0B980318875
:102C3000738889B29BB2994200F0BE803188738854
:102C400089B29BB29942D8D07388B1689BB21022E6
:102C500001EB03110DEB020002F010F87388B2884B
:102C60009BB20133B3FBF2F102FB11339BB2E2B230
:102C7000738004A928460134FFF7F2FE102C2A685D
:102C80000AF1080A0BF1040BBED1039B136309B0D0
:102C9000BDE8F08FE2B204A92846FFF751FF95F88E
:102CA000FC306BB1DAF814310133CAF814319DF8F5
:102CB00016305B0704D5DAF818310133CAF8183139
:102CC0000123A3400093002305F1800605F190083D
:102CD0000193CDF808B056F8040F48B14268009B44
:102CE000134033D00368D3F800B0464B9B455AD10C
:102CF000B045F0D1019BDDF808B093B395F8FC30F6
:102D000083B1B5F8A430B5F8A6209BB292B29B1A55
:102D100044BFB5F8A8209B18D5F804219A4238BFC3
:102D2000C5F8043105EBC403DAF804201B7A13F06C
:102D3000010F2B6808BF344903F1840314BF22F04C
:102D4000604201EA8242DA512A6856E7002ACFDA65
:102D50000268D2F800B02B4A9345C9D04FF0FF3239
:102D600023E0B5F8A430B5F8A810B5F8A6209BB2BA
:102D70000133B3FBF1F001FB103392B29EB29642E5
:102D800031D0B5F8A430D5F8AC009BB2102200EBDE
:102D900003100DEB020101F071FFA5F8A460ADE78F
:102DA00005F1940643E70023224604A9D847019B76
:102DB0001843C3B201939BE70127A74047F00047A0
:102DC00005F1800605F1900856F8040F38B1436804
:102DD0001F4204D003680D4A5B6893420DD1B04591
:102DE000F2D12A6809E795F8FC30002B9AD0D5F883
:102DF00008310133C5F8083183E70022214698479E
:102E0000EDE700BF112600000000FC1F15260000A2
:102E10000148FFF7E3BE00BF140FFF1F704700BF5C
:102E2000014B1B681B6A7047140FFF1F704700BFE0
:102E3000704700BF704700BF01480021FFF7ECBB9F
:102E4000140FFF1F90F81CC04160BCF1020FC2605C
:102E500001D18368184701F069BA00BF2DE9F0413C
:102E60000468E56815F0807F764D256048D1DD0760
:102E700000F1C98090F824601F4646EA0626002F1C
:102E800000F0B08031B10E784D7846EA052676BA6A
:102E90000231B6B2456895F808C0022F0CF1FF3C2C
:102EA0004FEA0C3C0CBF46F0805546F010451FFA27
:102EB0008CFC6563023F09E012B10EF8014B7246CB
:102EC000013B05F47045654516D90468E56A15F0BF
:102ED000F00FF6D013F0010FA46B9646ECD1C4F3BB
:102EE00007281AB10EF8028B5470724605F470452B
:102EF0006545A3F10203E8D8002F73D00468C1E749
:102F0000DD075BD490F824701E46BFB2002E42D07D
:102F100021B14D7811F8027B47EA0527456895F8FD
:102F200008C0022E0CF1FF3C4FEA0C3C0CBF47F0EE
:102F3000805547F010451FFA8CFC6563023E09E09E
:102F400012B10EF8014B7246013B05F47045654520
:102F500016D90468E56A15F0F00FF6D013F0010FEA
:102F6000A46B9646ECD12AB10EF8024BC4F30724A9
:102F70005470724605F470456545A3F10203E8D824
:102F80004EB10468C4E72AB104F8021BC1F307215B
:102F900051702246023B7BB10168CC6A14F0F00FFD
:102FA000F9D0DD07896B1446EDD512B104F8011B89
:102FB0002246013B002BEFD1BDE8F08179B311F837
:102FC000015B012B18BF45F00045656390F8247044
:102FD0005E1E9AE7C1F307251AB104F8025B51702F
:102FE0002246023B002BE7D00168CC6A14F0F00FB8
:102FF000F8D0DE07896B1446ECD512B104F8011B3A
:103000002246013BEEE799B111F8015B012B18BF95
:1030100045F00045656390F824605F1E2DE790F849
:103020002470012B1ABF47F0004565636763CFE743
:1030300090F82460012B1ABF46F000456563666373
:10304000EBE700BF00041F8010B400248460C4605C
:10305000046144618461C461046284848462C462E2
:1030600004634463C0E900125DF8044B704700BF7D
:10307000436810B41C685A682168114302682160D3
:10308000164C17491460D160164C17491461116031
:10309000417A164A5C180C3194F82CC053F8214040
:1030A00002EBCC0149680C60017A5C1803EB8101EA
:1030B00094F818C0CC6902EBCC0149680C60817AA5
:1030C0005DF8044B581803EB810390F84000596CED
:1030D00002EBC00253681960704700BF01401F0037
:1030E000011000380110007800001F80D885000012
:1030F0000BB1FFF7B3BE704770B4026B4B4B127944
:10310000DA77C26A12791A77026B12791A77826AB1
:103110002AB34368DB689A4244D9C46A016BD21A65
:10312000236882621D6800F12404A5424FF0010269
:103130005AD00468E56815F0804F1D682AD12D78B3
:103140001E6845F0004501361E606563374B0979FE
:10315000D97612B1C26A1279DA7670BC704701680A
:10316000334C436B0A63CC62CC6824F08044CC605F
:103170001C68304924684FF0030C8C4280F825C04D
:103180003AD1197F5A600229DA603AD170BC9A6844
:10319000184610472D881E6845F0004502361E600F
:1031A0006563D3E7C36A1B68DC8B260402F1FF3139
:1031B00033D4C1F30E01D983DC8B016BA4B2DC8262
:1031C0000C68E58B2D0420D4C2F30E05E583E58B56
:1031D000ADB2E5821D680024013A846200F1240446
:1031E00018BF0122A542A4D10368DC6890F82440EE
:1031F00044F000445C63A9E718461146234670BCBE
:10320000184770BC184601F091B8E58BC2F3080668
:1032100005F47E453543E583D9E7DC8BC1F308012E
:1032200004F47E442143D983C6E700BF00800040F8
:1032300000000FFF452E000008B50248FFF75CFFB5
:1032400008BD00BFB810FF1F08B50248FFF754FFC4
:1032500008BD00BFF010FF1F08B50248FFF74CFF84
:1032600008BD00BF2811FF1F08B5084A08490948D2
:10327000FFF7EAFE084A09490948FFF7E5FE094A4F
:1032800009490A48FFF7E0FE08BD00BF8883000037
:1032900000C00240B810FF1F1C84000000D0024094
:1032A000F010FF1FB084000000C00A402811FF1F6B
:1032B00000207047C06938B1C269006947F6FF73E2
:1032C000101A984228BF1846704700BF10B5044630
:1032D000C06938B10023436000F0FAFCE3695B6821
:1032E00003B910BD01236360002010BD10B5044672
:1032F000C06982B080B101220DF1070100F028FC05
:1033000001280DD1E0699DF807400169013900F0FD
:10331000A9FC204602B010BD0446204602B010BDF4
:103320004FF0FF34F5E700BFC06908B100F0CABC38
:10333000704700BFC06978B100B583B001220DF1BC
:10334000070100F005FC01280CBF9DF807004FF0B5
:10335000FF3003B05DF804FB4FF0FF30704700BF53
:1033600010B50368104A5B6882B093428DF807106D
:1033700013D10446C06958B10023436001220DF106
:10338000070100F0A5FCE3695B680BB902B010BD52
:1033900001230020636002B010BD01220DF107017E
:1033A000984702B010BD00BFCD320000002210B41B
:1033B000054C04604FF47A715DF8044BC2614260C1
:1033C00081608281704700BF4C850000704700BF5C
:1033D000064B0749D962002202209A70586083F890
:1033E00024201A6383F83520704700BF6011FF1F47
:1033F000708500001F4A136B43F0800310B4136301
:10340000536AD907FCD4536A9B07F9D4D060194C8E
:1034100019494FF0807200E02AB1236B0B4002F192
:10342000FF32F9D04AB9134A136B012043F47023D9
:10343000034313635DF8044B7047012BF3D1236BF7
:1034400013F0800F236B0AD113F480330CD1226B5D
:1034500042F00102184622635DF8044B704743F0C6
:10346000011303202363E5E7236B43F001130520D9
:103470002363DFE700100B4001000E0070B50B4D19
:103480000B480B4E0023AB60FFF7B4FF40F2E7346C
:10349000034606E04BB9AB60FFF7ACFF013C0346C7
:1034A00003D06A6A52073046F4D470BD00100B4056
:1034B0000000DB0C38B5344B1A78002A59D15B7800
:1034C000054603B94902314C31484FF6FF724FF4BB
:1034D00081332263A1606360FFF78CFF002847D12E
:1034E000236905F5107105F14003226B42F02005B8
:1034F00012F4E00F25633ED1626A1205FCD5226A00
:1035000043F8402C226A43F83C2C226A43F8382CBA
:10351000226A43F8342C226A43F8302C226A43F89A
:103520002C2C226A43F8282C226A43F8242C226A85
:1035300043F8202C226A43F81C2C226A43F8182CEA
:10354000226A43F8142C226A43F8102C226A43F8AA
:103550000C2C226A43F8082C226A43F8042C4033CE
:103560008B42C2D1094A136B9B07FCD5094B1363ED
:1035700038BD032038BD42F4E00242F0200222634D
:10358000FFF77CFF0120EDE7B811FF1F00100B4093
:1035900010003A112200000138B5224B1A78002A97
:1035A00033D15B78054603B949021F4C1F48226B93
:1035B00022634FF48133A1606360FFF71BFF18BBE8
:1035C000236905F1400105F5107CA1F14003226B50
:1035D000D206FCD5226B12F4E00F18D153F8042B5D
:1035E00022628B42FAD1236B43F010032363236BD7
:1035F00013F4E00F0BD140318C45E6D10A4A136B2E
:103600009B07FCD50A4B136338BD032038BD236BE1
:1036100043F4E00343F010032363FFF72FFF01207F
:10362000ECE700BFB811FF1F00100B4000003A1874
:10363000120000010D4A0E49D37A00200870A3B190
:10364000D80704D54FF0E0219069C1F8000199072F
:1036500004D54FF0E021D069C1F804015B0704D51F
:103660004FF0E023126AC3F808217047B810FF1F1B
:10367000C811FF1F224B1A781AB10078002101F0FF
:1036800079BE70B41F4A2049D47A09684FF0010C02
:1036900083F800C01CB372B6D37ADD0708D54FF0AB
:1036A000E025D668D5F880413440C5F88041946162
:1036B0009C0708D54FF0E0251669D5F884413440C1
:1036C000C5F88441D4615B0708D54FF0E024556903
:1036D000D4F888312B401362C4F8883162B613687D
:1036E000DA68914207D0094D094A1D6041F08044D3
:1036F000D9601C611A6070BC0078002101F03ABEEC
:10370000C811FF1FB810FF1FCC11FF1F01403F0061
:1037100000003F8070B41248124A036883B04FF033
:1037200000460093009DFF24136843F480631360F8
:10373000D6625463D36A002BFCDA936BDBB2FF2BA7
:1037400009D003680193019B5B1B8B42ECD30020E3
:1037500003B070BC7047012003B070BC704700BF5D
:10376000FC13FF1F00C0024070B50E464FF4967167
:1037700015460446FFF7CEFF274A136843F48063DB
:1037800013604FF00043D36246F040035363D36AA3
:10379000002BFCDA20484FF0180C4FF00041026873
:1037A00025FA0CF342F48062DBB20260C16243632B
:1037B000C36A002BFCDAACF1080C1CF1080FEED147
:1037C0003EB3082E14BFFF208720134A13684FF022
:1037D000004143F480631360D1625063D36A002BCD
:1037E000FCDA0D4A00214FF00045FF20136843F436
:1037F00080631360D5625063D36A002BFCDA936B4D
:103800001E0603D50131B1F5807FEFD1D8B26070CB
:1038100070BD9520D9E700BF00C00240F0B4174D3D
:10382000174A2B6882B04FF000470093DDF800C0C4
:10383000FF26136843F480631360D7625663D36A2C
:10384000002BFCDA936BDBB2FF2B0DD12C680194BB
:103850000199A1EB0C01B1F5967FEAD943700020E4
:10386000019402B0F0BC70474370A3F1FE00B0FABF
:1038700080F0400902B0F0BC704700BFFC13FF1F8E
:1038800000C0024070B58378032B0E46044618BF73
:103890004E021546FFF7EEFE324611212046FFF795
:1038A00063FF58B12078012101F064FD2B4B18789B
:1038B00000B970BDFFF7BEFE002070BD2046FFF7C7
:1038C000ADFF0028EED02649264A274B0B6005F5B0
:1038D000FD764A6305F1020C4A6305F5FE704A6302
:1038E000CB6A13F0F00FFBD04A638B6B0CF8013CF2
:1038F000C3F307230CF8023C0CF1020C8445EFD112
:1039000005F500739E4211D2154905F20225CB6AD6
:1039100013F0F00FFBD08B6B0CF8013CC3F30723C3
:103920000CF8023C0CF1020CAC45F0D10C4B0E49EA
:103930000C4A19605A63DA6A12F0F00FFBD0207853
:103940009B6B012101F016FD044B1B780BB9012084
:1039500070BDFFF76FFE012070BD00BFC811FF1FD3
:1039600000C00240FFFF009000041F802D4B10B5E7
:103970001C6844F480641C604FF00044DC6286469E
:10398000596302F5007CD96A0029FCDA19681078BD
:1039900041F480611960DC625863D96A0029FCDA5D
:1039A00019685078023241F4806162451960DC6226
:1039B0005863E8D11B4BDA6A002AFCDA1A684FF028
:1039C000004142F480621A60FF20D96215495863B1
:1039D000CB6A002BFCDA0B684FF0004243F48063A3
:1039E0000B60FF20CA620F4A4863D36A002BFCDADF
:1039F00013684FF0004143F480631360FF20D162ED
:103A000008495063CB6A002BFCDA8B6BDBB203F006
:103A10001F00A0F105008EF80130B0FA80F04009D7
:103A200010BD00BF00C0024070B5044671B183787C
:103A3000032B0D4618BF4D021646FFF71BFE2A4604
:103A400018212046FFF790FE054658B12078012145
:103A500001F090FC1D4B187800B970BDFFF7EAFD2E
:103A6000002070BD3246FE212046FFF77FFF002870
:103A7000ECD04FF416712046FFF74CFE0028E5D03D
:103A80002A460D212046FFF76FFE0028DED1104A9E
:103A900013684FF00040FF2143F480631360D0624D
:103AA0005163D36A002BFCDA936BDBB2002BCDD1D0
:103AB0002078012101F05EFC044B1B780BB901203A
:103AC00070BDFFF7B7FD012070BD00BFC811FF1F1B
:103AD00000C00240014B024A1A607047CC11FF1F20
:103AE00003200038704700BF38B590F90830002B2C
:103AF00003DBBDE8384000F0F7B904460121406916
:103B000000F02EFAF8B1637A227E0F4D012B05EBFF
:103B1000421598BFE3690D4A98BFEB61236A1268AA
:103B20006B83190CA98232B105F1160105F1180059
:103B300090472B8B6B82237A03F07F032372BDE8BF
:103B4000384000F0D1B938BDD811FF1FD011FF1F88
:103B50002DE9F04F447A83B0002C73D0037A0546E8
:103B6000D8076FD5EB698B462969A3EB010991450D
:103B70004E4628BF16460196002E68D0DFF8DCA01E
:103B8000354FDFF8DC8035E0686A0479013C04EAEF
:103B90005124E4B2B9F1000F3CD1002C3AD191BBD1
:103BA0002A6AEA6090F810C04169901E00FA0CF091
:103BB0000C442044C9F500742A7AB442A8BF3446A4
:103BC000530602D4B4F5007F26D13A68824223D04E
:103BD000D8F800301A78FE2A2ED001465A461846E8
:103BE000FFF750FE70B32969361B2144A3442961B5
:103BF0002DD06C7A022CC1F30809C5D16A6A506ACB
:103C000000EB5120D6E7E96805F10C0200F016FA46
:103C1000C0B1686AEA68C5E7002100F0A1F988B17F
:103C200009EB0A0318190BF1FF3213F8011B02F814
:103C3000011F9842F9D1D6E701465846FFF73AFCF2
:103C40000028D0D04FF0FF3003B0BDE8F08F0198CE
:103C500003B0BDE8F08F00BF4C07FF1FD811FF1F56
:103C6000DC13FF1FF8B5437A13B3C2698A420446D6
:103C70000F461DD3022B18D001B3436A01691B7C88
:103C80004A1E09337D1EDA40DD40AA4212D9236A5A
:103C9000E36004F10C0605E0E168606A00F0CEF92B
:103CA000013D28B13246002DF6D127610120F8BD33
:103CB0000020F8BD0029EAD0AD1AEAE7E1602761EB
:103CC0000120F4E7437A0BB1FFF70EBF18467047A7
:103CD0002DE9F04F437A85B0012B0646019268D159
:103CE000037A9C0765D55A070C465AD4019B316963
:103CF000002B41D0DDF804B0DFF8C881DFF8C891AF
:103D0000706A0379013B03EA512313F0FF07C1F303
:103D1000080570D1F1682DB9002950D1316A002908
:103D20005ED0F160C5F500721FFA82FADA45A1F1A2
:103D3000020169D9027C436991403B44CF181FFAC4
:103D40008BFA25B93069F169884280F087800121BA
:103D5000384600F005F960B350466B1E4344211805
:103D600014F8012B03F8012F8C42F9D13169BBEB18
:103D7000000B01443161C3D1F3698B4280F08D8027
:103D8000337AF16143F0800333721B0705D5737AF0
:103D90007BB13046FFF7A8FE58B1019805B0BDE8E9
:103DA000F08FC16902698A4272D0FFF75BFF002879
:103DB0009CD101237360002005B0BDE8F08F03AAF9
:103DC00000F03CF90028F7D0706A3A4B90F82010C8
:103DD0004FF6F872102918BF1A4603999142A0D3E2
:103DE00006F10C02012100F0ADF90028E1D0326AA1
:103DF000002A45D0706AF168C5F500721FFA82FA90
:103E0000DA45A1F1020195D890F810C0406901FA95
:103E10000CF13B18BAF5007F01EB030791D1D9F8FB
:103E20000020BA4204BF4FF0FF32C9F80020224AF6
:103E300010680278FE2A39461CD02246FFF7F4FDAE
:103E40000028B6D031694FF400700144BBEB000B81
:103E500004F5007431617FF453AF8DE700F044F84E
:103E60000028A6D01549C9F800700B7843F001036B
:103E70000B7071E72046FFF78FFB0028E2D098E730
:103E8000327AF168706A316262F07F02327249E719
:103E9000019A002A7FF42EAF77E7094B1B6833B1F4
:103EA000019B23B1337A43F0800333726DE7337A99
:103EB0006BE700BFF8FFFF0FDC13FF1FD411FF1FDC
:103EC000D011FF1FD811FF1F4C07FF1F00B583B093
:103ED0000B4601220DF107018DF80730FFF7F8FEC0
:103EE00003B05DF804FB00BF70B5184C23780BB924
:103EF000012070BD164D174B286819680378FE2BFA
:103F00000AD0154AFFF790FD58B1144E316851B9E7
:103F100000232370012070BD0F48FFF73DFB0028F0
:103F2000F3D0002070BD28680378FE2B07D00A4A22
:103F3000FFF77AFD0028F4D000233360E8E7064855
:103F4000FFF72AFB0028F7D0EBE700BFD411FF1FD3
:103F5000DC13FF1F4C07FF1FD811FF1FD813FF1FD3
:103F600070B5124E336883420D4606D1104B1A7855
:103F700045EA02011970012070BD0446FFF7B4FF45
:103F800088B10C4B18680378FE2B06D00A4A2146EC
:103F9000FFF778FC38B13460E8E707482146FFF7BF
:103FA00089FA0028F7D0002070BD00BF4C07FF1F22
:103FB000D411FF1FDC13FF1FD811FF1FF8B590F8B5
:103FC0002030C669102B0446184B0D46174617D0F3
:103FD00006EBD11619688E4217D1154B05F07F05F7
:103FE00043F82570134A207E1378012843F001031B
:103FF000137081BFA368104A5B1813600120F8BDDD
:1040000006EB112619688E420AD000213046FFF7D0
:10401000A7FF0028F3D094F82030102B3146DCD1D4
:10402000034BEDB223F81570DCE700BF4C07FF1F10
:10403000D811FF1FD411FF1FD813FF1FC36801330E
:104040008B422ED370B5164690F82020102A0546D4
:10405000154AC0690C4616D0126800EBD110904288
:1040600007D00021FFF77CFFC8B195F82030102B56
:104070000ED004F07F040D4B53F8243023F070432E
:104080000120336070BD126800EB11209042E8D12E
:10409000E4B2064B33F814303360012070BD0020C9
:1040A00070BD0020704700BF4C07FF1FD811FF1FD5
:1040B00001293DD9F8B5C36801338B420C46074648
:1040C00023D390F82030C569102B1646194B24D005
:1040D00005EBD11519688D4212D1174B04F07F04FE
:1040E00043F82460154A387E1378012843F0010311
:1040F000137081BFBB68124A5B1813600120F8BDC2
:1041000000212846FFF72CFF08B90020F8BD97F8DA
:104110002030102B06D02946DFE71B6805EB112560
:10412000AB42EDD1044BE4B2294623F81460D9E741
:10413000002070474C07FF1FD811FF1FD411FF1F2D
:10414000D813FF1F2DE9F04F176883B00546019281
:104150000091002F53D001374FF00009E968481C47
:104160008046A9B33C46A0453CBF02242746844272
:10417000DFF8F8B0DFF8F8A04FF0000628D895F87F
:104180002010E869102930D0DAF8001000EBD410C4
:10419000814207D00021FFF7E3FEC8B195F8201057
:1041A000102928D004F07F015BF8211021F0704124
:1041B000A1B101342746E9680136B14208D9A045CA
:1041C00038BF022401F1010038BF27468442D6D906
:1041D0004FF00009484603B0BDE8F08F009B611C1A
:1041E000C81B984214D00C46E5E7DAF8001000EB43
:1041F00014208842CED1E1B23BF81110D8E7009BE1
:104200000768A3F10109B9FA89F94FEA5919A5E735
:104210006FF0704221462846FFF74AFF0028D7D0AA
:10422000661EA7422246314628460BD2012ECFD920
:10423000EB6801339E423446CAD8FFF7BFFE002820
:10424000EED1C5E7019B196851B9019B1F60B9F117
:10425000000F02D001372F60BCE74FF00109B9E72A
:104260003A46FFF725FF0028EFD1B1E7D811FF1F2D
:104270004C07FF1F30B5094B426083B01B680193A8
:104280000D46019B0360002104468160284601F031
:104290009BF820732046657303B030BDFC13FF1FED
:1042A00010B5044684B0407B01F08EF8237B834236
:1042B00008D0174A216813680393039B5B1A61684F
:1042C0008B4214D2A368F3B1114920680A680092A6
:1042D000009A121A934216D80B6801930199216033
:1042E000012300221846A260A37304B010BD136816
:1042F0000293029920730123002218462160A260D4
:10430000A37304B010BD00231846A37304B010BDFE
:10431000FC13FF1F007B7047837B23B1007B0038B9
:1043200018BF012070471846704700BFEFF3108296
:1043300072B6437F5BB9017F012930B40BD00329EA
:1043400013D00123437702B962B630BC70470AB973
:1043500062B670477047124C2168B1B11149436190
:104360000B68836108605861EBE70F4D0F492C68BB
:104370008CB143610B68836158614FF0E0234FF0CB
:1043800080540860C3F8044DDBE7064B416181614E
:1043900020601860D5E7446184612860EDE700BFC4
:1043A000E013FF1FF013FF1FE813FF1FE413FF1FAD
:1043B00070B5EFF3108272B60C4C206880B10C4ED1
:1043C00000254369236073B19D6102B962B68368B9
:1043D00045779847EFF3108272B620680028F0D135
:1043E00002B962B670BD3360EFE700BFE813FF1F8C
:1043F000E413FF1FFFF7DCBF024A136801331360A9
:10440000704700BFFC13FF1FF8B50C4671B182B1B5
:1044100006468F180025336814F8011B1B683046C8
:104420009847BC420544F6D12846F8BD0D462846BB
:10443000F8BD1546F8E700BF70B5012A8AB008BF7D
:104440000A22A1B34FF0210E02E05FFA86FE294650
:10445000B1FBF2F502FB15145FFA84FC092C0CF198
:10446000300498BF5FFA84FC0EF1280488BF0CF179
:10447000370C6C4488BF5FFA8CFC91420EF1FF361A
:1044800004F824CCE1D24BB10EF1FF3E5FFA8EFE70
:104490000EF128036B442D2203F8242C036801A994
:1044A0005B68CEF12202714498470AB070BD302299
:1044B0008DF825204FF0210EE5E700BF2DE9F041F2
:1044C0008C688AB0DCB10025884606462F462B460C
:1044D000212201A9404600F00BFA3368202C224625
:1044E0005B6828BF202201A930461544A41A9847CA
:1044F0000744002CEBD138460AB0BDE8F0812746CE
:1045000038460AB0BDE8F0810029BABF49422D23E0
:1045100000230A22FFF790BF00B5036883B040F67E
:104520000D22ADF804205B68022201A9984703B070
:104530005DF804FB32B9036800B51B685DF804EB55
:10454000C9B21847FFF778BF2DE9F04F55EC104B73
:1045500087B006460F4610EE102A10EE100A2B46C2
:10456000294602F0CDFB002840F0AA8025F0004942
:104570005F4B4FF0FF322046494602F0C1FB48B97D
:104580005B4B204649464FF0FF3202F09BFB002870
:1045900000F08D80574B4FF060422046294602F0D4
:1045A000A5FB00287AD1544B4FF0604220462946A3
:1045B00002F07EFB002871D100220023204629460C
:1045C00002F076FB002875D18246002F7BD00FF2D7
:1045D0001819D9E9008949494FF0000B00204B46D2
:1045E0000BF1010B424602F0F1F85FFA8BF3BB428C
:1045F000F5D302460B462046294601F031FF0F2F26
:1046000028BF0F270D460446019702F0B7FB074667
:1046100002F062F802460B462046294601F01EFFD2
:1046200053460A2204460D4630463946FFF704FF3A
:10463000019FDFF8D8902E238DF808300DF1090284
:104640007B1E824652FA83FB02AF4FF000084246BF
:104650004B462046294602F0B9F80D46044602F0C2
:104660008DFBC0B200F1300307F8013F02F044F8BF
:1046700002460B462046294601F0F0FEBB450446A3
:104680000D46E4D1019A336801325B68D2B202A9C7
:1046900030469847504607B0BDE8F08F3368184958
:1046A0005B680322304607B0BDE8F04F1847336817
:1046B0001449F5E705F100431D464FF0010A84E770
:1046C00033681149ECE70D4B00222046294601F0E2
:1046D000C7FE02F053FB534601460A22304607B09C
:1046E000BDE8F04FFFF7A8BE000000A09999B93FC0
:1046F000FFFFEF7FFFFFEF41FFFFEFC10000E03F53
:104700008C8500008885000084850000000024401E
:10471000F8B588424FF000050446056045608560A5
:10472000057302D08E680F680EB92046F8BD701C64
:1047300002F094FB0028F8D0C4E900060570A660DA
:10474000394603F06DF92046F8BD00BF10B50446A8
:10475000006802F08BFB204610BD00BFF8B5044690
:10476000154632B9036803B11A700023A3602046CE
:10477000F8BD43689A420E461CD90068511C02F0ED
:1047800039FE074660B1A368206065600BB903700D
:104790002768A5603146384603F042F92046F8BD47
:1047A000206810B102F062FB276000236360A36001
:1047B0002046F8BD0768A5603146384603F030F959
:1047C000ECE700BF38B50023044603604360836014
:1047D000037341B108460D4603F0B2F9294602467B
:1047E0002046FFF7BBFF204638BD00BF38B5054661
:1047F0000C4649B1084603F0A3F921460246284673
:10480000FFF7ACFF284638BDA960284638BD00BF79
:104810002DE9F84304460068A36888420D46164611
:1048200009D8C218914206D20F1A4FF0010936B9C1
:104830002046BDE8F8834FF00009002EF8D06268EA
:1048400003EB060890450CD908F1010102F0D2FDF6
:104850000028EDD0A368C4E9000813B903702068EC
:10486000A368B9F1000F08D12946184403F0D8F81D
:10487000C4F808802046BDE8F8833246C1191844C0
:1048800000F0FCF92368002203F80820F0E700BFDD
:104890008A680968FFF7BCBF10B582B000238DF8A5
:1048A0000410012201A904468DF80530FFF7B0FF7E
:1048B000204602B010BD00BF10B58A6809680446E2
:1048C000FFF7A6FF204610BD10B50B4684B0044686
:1048D00001A918460A2200F027FB01A803F030F9CD
:1048E00001A902462046FFF793FF204604B010BD01
:1048F000BAB138B50C4621B185689D4202D8002373
:104900000B7038BDED1A02F1FF3C0168654528BF08
:10491000654619442A46204603F032F800236355C1
:1049200038BD704738B52A4C2A4D01E001F04AFCE9
:10493000636A1B06FAD46B6A13F08003F6D172B671
:1049400025490A78002A40D0A26BE06B0244206C13
:104950000244606C0244A06C0244E06C0244C2F366
:104960004E0242F40042E262A26DE06D0244206E0B
:104970000244606E0244A06E0244E06E0244C2F340
:104980004E0242F400422263AA6BE86B0244286C98
:104990000244686C0244A86C0244E86C0244C2F30E
:1049A0004E0242F40042EA62AA6DE86D0244286EAB
:1049B0000244686E0244A86E0244E86E0244C2F3E8
:1049C0004E0242F400422A630B7062B638BD00BF4B
:1049D00000B0034000B00B40F813FF1F2A4B2B4AD6
:1049E0006020E1211870597013782948082B34D0C1
:1049F0000A2B20D00C2B274B0CBF35215D21122216
:104A00008160C2609960DA60234B21491B78214A9A
:104A1000CBB101230B621362204B1D491B781D4A49
:104A2000012B13D9042B1BD884234B6253621C4BDC
:104A300001221A707047174B392113228160C2601E
:104A40009960DA60E0E70B621362E5E780234B626E
:104A50005362134B01221A7070470E4B2121ECE771
:104A6000082B06D885234B6253620D4B01221A7026
:104A70007047102B94BF862387234B625362084BE9
:104A800001221A70704700BF004007405007FF1F07
:104A900000B0034000B00B40F613FF1F5107FF1F8B
:104AA000F813FF1F0C2810B418D91023984228BF00
:104AB00018461946114A124C181A2070107888426C
:104AC00016D0104913700B7823B10F490F4A0023F9
:104AD0004B6253625DF8044BFFF780BF0A2802D98E
:104AE0000C231946E6E7082805D90A231946E1E709
:104AF0005DF8044B704708231946DBE75007FF1F9A
:104B0000F713FF1FF813FF1F00B0034000B00B4066
:104B1000472829D8304B2DE9F0411E5CFF2E53D099
:104B20002E4B1B7813BB340624D472B62C4C2D4D5F
:104B300001272E60277062B672B62B68180609D45A
:104B40002378002BF5D062B601F03CFB72B62B68DF
:104B50001906F5D5234A00231069237062B6224B4B
:104B60001B781841BDE8F08100207047FFF7DAFE9E
:104B70003406DAD572B61D4D1D4C06F040080127EB
:104B800006F03F06E368B8F1000F20D023F01003D1
:104B9000E36026602F7062B672B623681A0609D4E5
:104BA0002B78002BEED062B601F00CFB72B62368B6
:104BB0001B06F5D50E4A002310692B7062B60A4B0E
:104BC0001B781841BDE8F0810020BDE8F08143F07A
:104BD0001003E360DDE700BF90850000F813FF1FBE
:104BE000F413FF1F00B00340F713FF1FF513FF1F5F
:104BF00000B00B400B4A0C49D36A43F48053D36294
:104C00000B784BB1094B802283F82120074B80F3AE
:104C10000C0000B218807047044BC02283F821209A
:104C2000F4E700BF00800440F613FF1F00C00C40F3
:104C30000B4A0C49D36A43F40053D3620B784BB14F
:104C4000094B802283F82120074B80F30C0000B22F
:104C500018807047044BC02283F82120F4E700BF7E
:104C600000800440F613FF1F00D00C4008B5FCF78D
:104C7000E9FBFCF779FD01F0A5FAFAE701B441EA96
:104C8000000313F003036FD1403A41D351F8043BC2
:104C900040F8043B51F8043B40F8043B51F8043B16
:104CA00040F8043B51F8043B40F8043B51F8043B06
:104CB00040F8043B51F8043B40F8043B51F8043BF6
:104CC00040F8043B51F8043B40F8043B51F8043BE6
:104CD00040F8043B51F8043B40F8043B51F8043BD6
:104CE00040F8043B51F8043B40F8043B51F8043BC6
:104CF00040F8043B51F8043B40F8043B51F8043BB6
:104D000040F8043B51F8043B40F8043B403ABDD224
:104D1000303211D351F8043B40F8043B51F8043BC6
:104D200040F8043B51F8043B40F8043B51F8043B85
:104D300040F8043B103AEDD20C3205D351F8043B55
:104D400040F8043B043AF9D204320AD0D2071CBF1F
:104D500011F8013B00F8013B03D30B7803704B784B
:104D6000437001BC704700BF0C2A4AD310F0030304
:104D700011D0C3F10403D21ADB071CBF11F8013BA9
:104D800000F8013B07D311F8013B00F8013B11F893
:104D9000013B00F8013B11F003033FF475AF30B461
:104DA000043AC91AC3F1040C51F8044B022B19D070
:104DB000032B0BD0240A51F8043B1D0644EA0504DA
:104DC00040F8044B1C46043AF4D216E0240E51F885
:104DD000043B1D0244EA050440F8044B1C46043A17
:104DE000F4D20AE0240C51F8043B1D0444EA050403
:104DF00040F8044B1C46043AF4D20432B1EB0C01E7
:104E000030BC043AA0D3013A11F8013B00F8013B51
:104E1000F9D20B7803704B7843708B78837001BCA8
:104E2000704700BF08B50F4C636B58030DD4636B1C
:104E300059050FD4636B1A0511D4636BDB04F3D5EA
:104E400000F012F8636B5803F1D500F0E3FB636BDD
:104E50005905EFD500F008F8636B1A05EDD500F0A1
:104E600003F8EAE70080044008B5FFF7DBFF00BF66
:104E7000014B10221A80704700200540704700BF88
:104E80000B490A6848B108B5EC461318ACF5005058
:104E9000834204D20B60104608BD1046704702F0F2
:104EA000B9FD0C234FF0FF320360104608BD00BF70
:104EB0005407FF1F0078B0FA80F04009704700BF28
:104EC00001230370704700BF01F0C8BF01F1FF3C30
:104ED00070B56546002401E070460134B0FBF2FE77
:104EE00002FB1E03092B03F130068ABF3733F3B2EE
:104EF000DBB2904205F8013FEED2631C0022CA5497
:104F0000C8187CB162461CF8015F10F801ED8CF8FE
:104F100000E0A1EB0C030232013B521A23449A42F7
:104F20000570EFDB084670BD031E01DBFFF7CEBF47
:104F300010B52D200C4601F8010B5842FFF7C6FFB3
:104F4000204610BD10B4114B53F8302092F8804227
:104F500034B10123A9B182F880305DF8044B704769
:104F600003EBC0035B681A6829B922F002025DF8FE
:104F7000044B1A60704742F003025DF8044B1A605C
:104F8000704782F800315DF8044B7047D885000007
:104F9000034B002210215A615A6018605961704712
:104FA00000D00340704700BF4FF0E02CF0B54FF049
:104FB000006ECCF804E14FF0805ECCF804E14FF0D5
:104FC000005ECCF804E1244A24492548254C4FF0E2
:104FD000804ECCF804E1282300274EF6FF76092501
:104FE0004FF0004ECCF804E183B04F608E60CB6090
:104FF0004B61CB614B62CB624B63CB634B64D36041
:105000005361D3615362D3625363D36353640D60BE
:105010006760A660E3606361256047608660C36087
:105020004361056057609660D36053611560FFF778
:10503000D5FCFFF7B7FF0C4C23680093009B132BA4
:10504000FAD900F0A1FE23680193019BB3F5967F86
:10505000F9D303B0F0BD00BF00900B4000800340C7
:1050600000800B4000900340FC13FF1FA0F14202A0
:10507000012A034625D910B5934A002992F800E089
:1050800040F38E80012202FA0EF0814228D2A3F171
:10509000020CBCF1240F3CD8DFE80CF06B74743BBD
:1050A0003B6B6B3B3B3B3B3B6B3B3B3B3B3B3B3BC0
:1050B0003B3B3B3B3B3B3B7B7B3B3B3B3B6B6B6B30
:1050C0006B00814A10780B2895BFC0F10C000C389A
:1050D00001FA00F041FA00F0422B51D0FFF7A8BDD1
:1050E0003F2B15D8794951F8330090F8804201EBF5
:1050F000C301002C73D04B6880F880204FF4A2725B
:10510000012180F880121A601A6822F020021A60C9
:1051100010BD6F4A926802FB011222FA0EF2BCF136
:10512000240F62D8DFE81CF013010C010501FE001A
:10513000F700F000E900E200C800610061006100D2
:10514000C10061006100610061006100BA00B3004C
:10515000AC00A500610061006100610061009E007B
:105160009700610061006100610090008900820089
:105170007B00584A926802FB011222FA0EF2CEE737
:10518000FFF738BD544A926802FB011222FA0EF270
:10519000C5E7524A926802FB011222FA0EF2BEE7FC
:1051A0003F28B5D8494A52F8301091F8800202EBF6
:1051B000C30270B10120536881F800014FF4A2725C
:1051C000012081F880021A601A6822F020021A6019
:1051D00010BD53681A6822F002021A60EEE74B68AD
:1051E0001A6842F003021A6088E73F2B90D87F29A3
:1051F0001846D4BF00210121FFF7A4FE334B03EB77
:10520000C00253F83010536801244FF4A27281F8A1
:1052100080421A601A6822F020021A6010BD2D48E0
:105220002F4B82644FF45171D96210BD29482C4B29
:1052300002644FF45171996210BD2648284B826375
:105240004FF45171596210BD2248254B02634FF44F
:105250005171196210BD2148224B82614FF4517186
:10526000D96410BD1D481F4B02614FF45171996400
:1052700010BD17481A4B826140F24441996010BD3D
:105280001348174B026140F24441596010BD104869
:10529000154B026440F24441996110BD0C48124B19
:1052A000826340F24441596110BD0A480E4B82614D
:1052B00040F24441596010BD0548094B826240F2FA
:1052C0004441196110BD00BF5807FF1FD885000079
:1052D0000080034000900B400090034000800B4092
:1052E00000B0044000A0044000C004401B481C4B18
:1052F000026240F24441D96010BD1A481A4B8262E2
:1053000040F24441D96010BD1648174B026240F28A
:105310004441996010BD1148134B026340F244416F
:10532000196110BD0D48104B826440F24441D961AF
:1053300010BD0E480E4B82614FF45171596310BD80
:105340000A480B4B02614FF45171196310BD0548B7
:10535000054B026140F24441196010BD00800340DA
:1053600000B0044000900B4000C004400090034097
:10537000009004403F2818D810B4124B53F8302046
:1053800092F8804234B1012381B982F800315DF88E
:10539000044B704703EBC0035B681A6859B142F0D5
:1053A00003025DF8044B1A607047704782F8803042
:1053B0005DF8044B704722F002025DF8044B1A605E
:1053C000704700BFD88500003F2806D8044B53F82B
:1053D000303093F80002C0B270470020704700BF21
:1053E000D88500003F2820D81B4A02EBC0030129C2
:1053F0005B680FD004291DD052F83000002280F8DD
:10540000802299B1022922D003290DD14FF4817253
:105410001A60704752F830004FF4A27280F8801280
:105420001A601A6822F020021A6070474FF48072E6
:105430001A60704752F830104FF4A272012081F8C0
:1054400080021A601A6842F020021A60704740F227
:1054500003121A60704700BFD885000072B60D496C
:105460004FF0E02293690868D2F8042D62B6520129
:1054700002D5322B88BF0130074AC3F5EA334FF417
:105480007A71BF33A2FB032301FB00F000EB931002
:10549000704700BFFC13FF1F89888888431E032BB9
:1054A00016D872B60B4951F8230078B130B40A4CC3
:1054B000B0F800C034F81320456841F82350A2EB3F
:1054C0000C0224F8132062B630BC704762B67047F5
:1054D000002070479014FF1FE014FF1F01380328BD
:1054E0000BD872B6074B53F8203043B100205B68ED
:1054F0000130002BFBD162B6704700207047184680
:10550000F9E700BFB814FF1F10B472B61A4A1B4C5B
:10551000042312F8011B090743F0010C05D554F8C8
:10552000331069B154F83C10C9B10433142BF0D1D5
:1055300062B6134B00221A705DF8044B00F0A6BC53
:105540000F4904EBC302083050600A780D4844F854
:105550003300013A0A7062B65DF8044B7047084A9E
:10556000094904EBCC0308305860137844F83C1028
:10557000013B137062B6EFE7548800000000FF1F84
:10558000E814FF1F88004000C8004000421E032AA4
:105590000ED81C4B400140F0100010B4034472B60A
:1055A000194CA05C03281DD8DFE800F0141603197D
:1055B00070470520A05413F0080F088814BFC822B4
:1055C0008822083142EA004259601A6062B65DF8EA
:1055D000044B70470320EDE708330220EAE7083365
:1055E0000420E7E7094B53F8220038B1084B53F881
:1055F0002200416043F8221062B6E8E743F8221027
:10560000034BF7E70000FF1FD814FF1FB814FF1F5C
:10561000C814FF1F2DE9F04FDFF80CA3DFF80CB31F
:1056200085B03DE0B04D9E0805EBC607013A7968AC
:1056300013F00803D4B2A1F1080040F0B88055F887
:1056400036204FEA124C120C21F808CC00F0A7804B
:1056500021F8063C41F8043CA44B53F82420002ACE
:1056600000F00182A24B53F82420506043F824003C
:10567000A04B33F81420944423F814C000F0E6FB48
:10568000002800F0E98117F0080F9B4B00F108009B
:1056900018BF5B46786045F8363008238AF88030BA
:1056A0009AF880305907DCB21BD5944B1B78ABB10C
:1056B00093490A7802F0FF032AB1013BDBB20B7079
:1056C000002B00F046838F490A7802F0FF032AB1CD
:1056D000013BDBB20B70002B00F0EB8104238AF856
:1056E000803014F0080200F0CC819AF89020D3B2F8
:1056F000120997D1DFF8F0919B0809EBC30459F820
:1057000033006468C0F3830009287CD00FD80138C7
:10571000012808D87C4A158842F22100854200F011
:10572000FB8149F833B001238AF89430B5E70D289E
:10573000F9D1D4E90007754D49F833B0724E744C75
:10574000C9F8102083B240F2816CC9F818202A6091
:1057500063454FF00102C6E90007227000F2FF80A6
:10576000B3F5D06F80F0CB82B3F5817F00F0268255
:1057700040F2DE8040F2023293427BD107F07F0795
:10578000042F00F20881020C40F00581614911F8F4
:10579000273043F0020301F82730134670E017F07A
:1057A000080F554B18BF5B4645F8363075E700F0DB
:1057B0006DFB5949594A51F82430002B00F05781AC
:1057C000586841F82400115D03F10800786003294E
:1057D00005D8DFE801F0120F1502042111551A88CF
:1057E00017F0080F14BFC823882343EA024345F883
:1057F000363052E702211155F1E703211155EEE74A
:1058000005211155EBE7414D2A683AB34449404C14
:105810000F88444894F800E00678402F3B4628BFA4
:105820004023BEF1000F8EF0010E84F800E046F038
:10583000020486F00106067009EBC400426014BF42
:10584000C820882040EA03401A44FB1A9BB249F85A
:1058500034000B80002B00F036812A602A4B1A8816
:10586000B2F5A06F7FF45FAF9A788AF89820002293
:105870005A7058E7B3F5A06F40F08D8000221346B0
:10588000B6F806C02748944528BF94466746027874
:10589000402F28BF402742F0020E3E0409EBCE08FD
:1058A00046F0C806C8F8043049F83E6000263B447C
:1058B0002670BCEB070782F00106067040F01181EC
:1058C000BCF13F0F4FF0010509D946F00206027006
:1058D00009EBC60225705360882349F8363001234E
:1058E0008AF894301FE700BF0000FF1F9014FF1FCD
:1058F000A014FF1FE014FF1F88004000DC14FF1FEE
:10590000DD14FF1F0815FF1FB014FF1F8414FF1FB5
:105910008114FF1FC0200740B814FF1FD814FF1FB9
:105920008214FF1F8014FF1F00200740C8004000A2
:10593000802B00F08B81822B2DD107F07F07042F65
:1059400029D8A74A00231380A64B13F827309F07B6
:1059500040F1FC8101231370A14B022290E742F237
:10596000210C6345BBD01DD942F2212293420DD1B7
:10597000BFB2002F82D19C4B1A689C4B1A609C4B83
:10598000C0F3074000221870134679E742F2213233
:1059900093423FF473AF0F238AF8C03001238AF893
:1059A0009430C0E6B3F5086F00F04A81B3F5106F8C
:1059B000F1D1904BC0F307400425187059F83530E9
:1059C0001A0606D40135142D0CD059F835301A06B4
:1059D000F8D509EBC50301355868083800F056FAC8
:1059E000142DF2D1844A854B0292854A0192854E4C
:1059F000854ADFF848820394009200251C4656F839
:105A0000047B2FB138467F6800F040FA002FF9D1AF
:105A1000009BD8F8007043F8045B46F8045C0093E0
:105A20002FB138467F6800F031FA002FF9D1029B80
:105A300048F8045B43F8045B0293019B23F8025B84
:105A400001932378023B032B00F20981DFE813F076
:105A50003F0104013F0104016C4A45F83600137808
:105A60000133137019E643F82400674BFEE5115D1E
:105A7000022926D07FF611AE03291DD1012313552B
:105A80000BE6E0076ED4210621D4A20708D5604BAF
:105A900093F888200221D2B283F8882083F88010FE
:105AA000E30603D55A4B102283F8802005B0BDE8E9
:105AB000F08F00F063FB11E617F0080F14BF03230B
:105AC00002231355E9E53F2F98BF0022C5E6504B4E
:105AD00080220D2183F8C01083F88020A207DFD533
