:10000000F8FF0220990100005D75000019750000DD
:1000100019750000197500001975000019750000A8
:100020001975000019750000197500005D75000054
:100030005D75000019750000296C00002D6C000032
:100040005D7500005D7500005D7500005D75000068
:100050005D7500005D7500005D7500005D75000058
:100060005D7500005D7500005D7500005D75000048
:100070005D7500005D7500005D7500005D75000038
:100080005D7500005D7500005D7500005D75000028
:100090005D7500005D7500005D7500005D75000018
:1000A0005D7500005D7500005D7500005D75000008
:1000B0005D7500005D7500005D7500005D750000F8
:1000C0005D7500005D7500005D7500005D750000E8
:1000D0005D7500005D7500005D7500005D750000D8
:1000E0005D7500005D7500005D7500005D750000C8
:1000F0005D7500005D7500005D7500005D750000B8
:100100005D7500005D7500005D7500005D750000A7
:100110005D750000757A00005D7500005D7500007A
:100120005D7500005D7500005D7500005D75000087
:100130005D7500005D7500005D7500005D75000077
:100140005D7500005D7500005D7500005D75000067
:100150005D7500005D7500005D7500005D75000057
:100160005D7500005D7500005D75000021430000B5
:100170002D430000314300003D4300004143000097
:10018000454300005D7500005D7500005D75000071
:100190005D7500005D7500005A4B4CF2205210B5A1
:1001A000DA814DF62812DA8100BF00BF07F0DAF9D4
:1001B000554B4FF030621A63544A9A63544ADA63DB
:1001C0004FF0E0234FF47002C3F8882D514A1369B1
:1001D00013F4807303D153614FF4A85313614E4B52
:1001E0009A78110703D59A7842F008029A704B4B1F
:1001F0004B482A221A704B4BDA1C121AC11E22F0ED
:100200000302994288BF0022474907F0B1F8474BE3
:100210004748DA1C121AC11E22F00302994288BF15
:10022000002200210BF0A2F8424943484FF4CC725F
:1002300007F09EF8414B424A802103F8011B93428C
:10024000FBD14FF0E0233C4AC3F8082D3D4B8A22F6
:100250001A70A3F5805324225A70A0221A709A793A
:100260009207FCD59A79D406FCD4374B9A7902F0E0
:100270000C02082AFAD103221A7146225A719A797D
:100280009006FCD5304A93795906FCD51E4B4FF0A9
:10029000827159640921996420211170917901F0CA
:1002A0000C010C29FAD1294A5A604FF0E023284A60
:1002B0005A6100229A6107221A61264AC3F8202D4A
:1002C00062B607F0D9F9134B5B69DA0705D5224806
:1002D00007F0C6F9214B224ADA61224B1B785B06F4
:1002E00009D51E4C1E4BE2699A4204D11A4807F008
:1002F000B7F90023E36107F03BF90BF0DDFB07F0F2
:100300002FF8FEE70020054000800440823F0400F3
:100310000100002B00D0034000D0074000E0074060
:10032000F806FF1FC00EFF1F54B90100B01AFF1FCF
:10033000C00EFF1F000000000002FF1F00E400E0ED
:1003400056E400E00050064000400640C0100500A2
:10035000BFD4010000002020CA74656400E003409F
:10036000A5C3945A00F00740FFFFFFFFFFFFFFFF08
:10037000FFFFFFFFFFFFFFFFFFFFFFFFFFFFFFFF8D
:10038000FFFFFFFFFFFFFFFFFFFFFFFFFFFFFFFF7D
:10039000FFFFFFFFFFFFFFFFFFFFFFFFFFFFFFFF6D
:1003A000FFFFFFFFFFFFFFFFFFFFFFFFFFFFFFFF5D
:1003B000FFFFFFFFFFFFFFFFFFFFFFFFFFFFFFFF4D
:1003C000FFFFFFFFFFFFFFFFFFFFFFFFFFFFFFFF3D
:1003D000FFFFFFFFFFFFFFFFFFFFFFFFFFFFFFFF2D
:1003E000FFFFFFFFFFFFFFFFFFFFFFFFFFFFFFFF1D
:1003F000FFFFFFFFFFFFFFFFFFFFFFFFFFFFFFFF0D
:10040000FFFFFFFFFFFFFFFFFFFFFFFFDEF9FFFF23
:100410000548064B1B1AD90F01EBA301491002D066
:10042000034B03B118477047C00EFF1FC00EFF1FDC
:100430000000000008B5054B1BB105490548AFF3A6
:100440000080BDE80840FFF7E3BF00BF00000000E8
:10045000C00EFF1F4CB9010010B50446006A10B170
:1004600003685B68984704F1080006F0E1FC204649
:1004700010BD00BFF0B514468DB00E4600210546F4
:100480001F4606F011FD621E042A00F28C80DFE890
:1004900002F01E857B8003004549284606F030FDAA
:1004A000337E08ACDBB9737E002B31D1B37E002BD9
:1004B00053D14049204606F0F7FC2146284606F075
:1004C00071FD204606F0B4FC28460DB0F0BD3A4957
:1004D000284606F015FD337E08AC002BE3D03946E4
:1004E000204606F0E1FC354904A806F0DDFC04A92D
:1004F000204606F06BFD0146284606F053FD04A891
:1005000006F096FC204606F093FC737E002BCDD0BF
:100510002B49684606F0C8FC694604A806F06AFC48
:10052000129904A806F068FD24490746204606F003
:10053000BBFC2146384606F049FD0146284606F038
:1005400031FD204606F074FC04A806F071FC6846F4
:1005500006F06EFCB37E002BABD01399204606F05C
:10056000A3FC164904A806F09FFC04A9204606F047
:100570002DFD0146284606F015FD04A806F058FC9E
:10058000204606F055FC94E70E49284606F0B8FCD4
:1005900086E70D49284606F0B3FC81E70B4928465B
:1005A00006F0AEFC7CE70A49284606F0A9FC77E78E
:1005B000CC3F0100F0410100A43F0100A84101002F
:1005C000D83F0100B83F0100C03F0100B03F01002B
:1005D0007043010070B504461E46154612B19200E4
:1005E0000AF048FEA5742682204670BD837C002B4D
:1005F00000F0C6802DE9F04F624CDFF8A881DFF8EB
:10060000A8A1002687B00746354604F1080923E073
:100610002368626A134314D05B495C4B0191142236
:1006200000925849042202A8FFF724FF2368032BF5
:100630003CDC206A10B1636A032B5FDC02A806F081
:10064000F7FB17F82500002107F0B0F80136BB7C56
:10065000F5B2AB4240F28B80D8F80030BFF35B8F2D
:1006600013F0010BD4D1404606F0B0FF0028CFD0E4
:1006700003235146236048460A23636006F014FCB6
:10068000434BE3614FF00133A36101236362414AAD
:1006900041493C48C4F820B0022384F828B0E36202
:1006A00008F072F8404606F097FFB1E7E06902A94A
:1006B00006F01EFBE37E0BB10A236360E069374955
:1006C00003681E225B6898474946E06906F010FB04
:1006D000626857F82510E0690A2A4ED0D2B200238A
:1006E00006F04CFBE0692E49036801225B689847DD
:1006F000E37E002B9DD00A2363609AE7036802A97A
:100700005B699847206A48B194F8283013B10368B0
:10071000DB689847E37E002B2CD1206A03681F49D1
:100720009B699847206A036849465B699847206A35
:100730006268036857F825105B6A9847206A0028AA
:100740003FF47CAF036816499B699847206A0028EC
:100750003FF474AF94F8283013B10368DB6898470E
:10076000E37E002B3FF46AAF0A23636066E707B0BD
:10077000BDE8F08F0A236360CFE706F0DFFAB1E748
:10078000704700BFDC0EFF1FF43F0100E03F010097
:100790005007FF1FF806FF1F59040000FC3F01002F
:1007A0001C400100D80EFF1FA84101002DE9F04FA9
:1007B000038A0B60837CCB7100278F71837C89B0A7
:1007C000002B00F09C807B4CDFF810A2804689460D
:1007D0003D4604F1080B23E02368626A134314D0FA
:1007E000754B0193242300937249744B042204A88F
:1007F000FFF740FE2368032B42DC206A10B1636AD6
:10080000032B7FDC04A806F013FB09EB450533122C
:100810002B726E7298F812300137FDB2AB426ED96E
:1008200018F8250006F00CFDDAF80030BFF35B8FF6
:1008300013F001030646CFD15046039306F0C6FEDF
:100840000028C9D0032222605D490A22584662600E
:1008500006F02AFB039B236284F82830594BE3619E
:100860004FF00133A36101236362574A574951484E
:100870000223E36207F088FF504606F0ADFEABE7C7
:10088000E06904A906F034FAE37E0BB10A23636041
:10089000E0694F49036804225B6898475946E0695C
:1008A00006F026FA626858F82510E0690A2A7ED018
:1008B000D2B2002306F062FA5946E06906F018FA4F
:1008C000E0694449036801225B689847E06959463A
:1008D00006F00EFA6268E0690A2A64D0D2B20023F8
:1008E000314606F04BFAE0693B49036801225B6838
:1008F0009847E37E002B80D00A2363607DE709B030
:10090000BDE8F08F036804A95B699847206A48B185
:1009100094F8283013B10368DB689847E37E002B16
:100920003ED1206A03682A499B699847206A036878
:1009300059465B699847206A6268036858F8251031
:100940005B6A9847206A036859465B699847206A42
:10095000204903689B699847206A036859465B6988
:100960009847206A6268036831465B6A9847206A44
:1009700000283FF447AF036817499B699847206AEE
:1009800000283FF43FAF94F8283013B10368DB68C8
:100990009847E37E002B3FF435AF0A23636031E7CD
:1009A0000A236360BDE7314606F0C8F99BE706F00D
:1009B000C5F981E7DC0EFF1F20400100E03F010088
:1009C000A84101005007FF1FF806FF1F590400004F
:1009D00030400100384001001C400100D80EFF1FCC
:1009E0002DE9F04FA34BDFF8B88200221A60D8F847
:1009F0000050BFF35B8F15F00105A5B000F0B28188
:100A00009D4C2368626A134340F06F819B48FE212E
:100A100004F05CF8D8F80050BFF35B8F002800F0BA
:100A20007D8115F0010500F03D812368626A134362
:100A300040F0DD8002F09AFF039002F07FFF029009
:100A400002F064FF029B8E49039A009005A80AF009
:100A500099FA02F08BFF40F2BB73984240F3F980A1
:100A6000864805A904F04EF930B9844805A904F078
:100A700053F9002800F09883D8F80050BFF35B8F3B
:100A800015F0010500F093812368626A134340F07A
:100A9000C7801CAD02F0F2FE039002F007FF029047
:100AA00002F01CFF029B039A7649009008A80AF006
:100AB00069FA02F05BFF40F2BB73984240F3D083C7
:100AC000D8F80060BFF35B8F16F0010614AF0DF18C
:100AD0007D0900F03E842368626A134316D06A4B96
:100AE0000193462300936449684B03222846FFF78D
:100AF000C1FC2368022B00F3AD81206A18B1636A40
:100B0000022B00F3D582284606F092F9D8F800604F
:100B1000BFF35B8F16F0010600F0E0832368626A82
:100B2000134316D0584B0193472300935249574B18
:100B300003222846FFF79EFC2368022B00F31F8246
:100B4000206A18B1636A022B00F34282284606F03D
:100B50006FF94F4908AB05AA38460AF013FAD8F8DE
:100B60000060BFF35B8F16F0010600F01684236867
:100B7000626A134316D0444B0193492300933E49C4
:100B8000424B03222846FFF775FC2368022B00F333
:100B9000CD81206A18B1636A022B00F3CD8228460A
:100BA00006F046F93548394604F0ACF8002840F024
:100BB0003784384C314913233A46284604F036F836
:100BC0001D9A1E9B6260A3600D229DF87C302373EA
:100BD000A018494606F0CCFB239BE361284603F0AE
:100BE0009DFE2D4B01221A7025B0BDE8F08F264ADC
:100BF000019220231CAD00931F49244B0322284659
:100C0000FFF738FC2368022B00F39F84206A18B199
:100C1000636A022B00F3EE80284606F009F909E723
:100C2000194B01931CAD332300931349174B032237
:100C30002846FFF71FFC2368022B00F33481206A4B
:100C400018B1636A022B00F3FB81284606F0F0F826
:100C500020E7124B93E803000B0C0590ADF8181039
:100C600006488DF81A3005A904F04CF800287FF4E6
:100C700003AFFAE60C10FF1FDC0EFF1FD013FF1F9F
:100C8000B4400100FC400100F43F0100404001007D
:100C9000444101001C10FF1F3C10FF1FC040010019
:100CA000D80EFF1F944806F091FC00283FF4BDAE1B
:100CB000032323600A2363609049914806F0F4F807
:100CC000904BE361012363624FF001310223A16184
:100CD0008D4A8E492562E36284F828508C4807F0DB
:100CE00053FD854806F078FC9FE68A4A0192192355
:100CF0001CAD00938649884B03222846FFF7BAFBB8
:100D00002368022B00F3B283206A18B1636A022BB6
:100D100000F3C783284606F08BF877E615F0010547
:100D200000F0EF832368626A13433FF45DAF7949B3
:100D3000794B01911C221CAD009275490222284674
:100D4000FFF798FB2368012B00F33E84206A18B15B
:100D5000636A012B00F38784284606F069F825B002
:100D6000BDE8F08F404606F031FC694C00283FF4A6
:100D700048AE032323600A236360604904F108003E
:100D800006F092F85F4BE361012363624FF001319B
:100D90000223A1615C4A5D492562E36284F8285020
:100DA000204607F0F1FC404606F016FC29E65248C2
:100DB00006F00CFC00283FF467AE032323600A23EF
:100DC00063604E494E4806F06FF84FF00133A3615F
:100DD0004C4BE3610123636202234B4A4B4925627A
:100DE000E36284F828504A4807F0CEFC424806F0F7
:100DF000F3FB49E6036829465B699847206A60B1BE
:100E000094F8283013B10368DB689847E37E002B21
:100E100000F0F8830A23206A636003683F499B69F6
:100E20009847206A00283FF4F7AE03683C499B6965
:100E30009847206A00283FF4EFAE94F8283013B1A9
:100E40000368DB689847E37E002B3FF4E5AE0A2396
:100E50006360E1E6E069294605F04AFFE37E0BB1F5
:100E60000A236360E0692F4903680D225B68984795
:100E70002349E06905F03CFFE66905A80AF060FE39
:100E8000336802465B6805A930469847E069244903
:100E9000036801225B689847E37E002B3FF42DAE88
:100EA0000A23636029E6E069294605F021FFE37E15
:100EB0000BB10A236360E0691B49036810225B6879
:100EC00098470F49E06905F013FFE66905A80AF0A5
:100ED00037FE336802465B6805A930469847E069EB
:100EE0000F49036801225B689847E37E002B3FF4BB
:100EF000A6AE0A236360A2E6D80EFF1FA841010038
:100F0000E40EFF1F5007FF1FF806FF1F59040000E3
:100F1000DC0EFF1FF43F0100404001009C40010037
:100F20001C40010024410100E8400100E06929461D
:100F300005F0DEFEE37E0BB10A236360E0697849C9
:100F4000036812225B6898477649E06905F0D0FE95
:100F5000E66938460AF0F4FD336802465B683946B4
:100F600030469847E0697049036801225B689847FA
:100F7000E37E002B3FF40DAE0A23636009E6E069CF
:100F8000294605F0B5FEE37E0BB10A236360E069F4
:100F9000664903680D225B6898476249E06905F07D
:100FA000A7FEE66908A80AF0CBFD336802465B6835
:100FB00008A930469847E0695B49036801225B68ED
:100FC0009847E37E002B3FF4BBAD0A236360B7E58F
:100FD000036829465B699847206A50B194F8283025
:100FE00013B10368DB689847E37E002B40F00C8365
:100FF000206A03684D499B699847206A49490368FC
:101000005B699847206A036808A99B699847206A2A
:1010100000283FF49BAD036843499B699847206AC9
:1010200000283FF493AD94F8283013B10368DB68CF
:101030009847E37E002B3FF489AD0A23636085E582
:10104000036829465B699847206A50B194F82830B4
:1010500013B10368DB689847E37E002B40F0DD8224
:10106000206A036832499B699847206A2D490368C2
:101070005B699847206A036805A99B699847206ABD
:1010800000283FF4E2AD036827499B699847206A2E
:1010900000283FF4DAAD94F8283013B10368DB6818
:1010A0009847E37E002B3FF4D0AD0A236360CCE584
:1010B000036829465B699847206A50B194F8283044
:1010C00013B10368DB689847E37E002B40F09F82F2
:1010D000206A036817499B699847206A1149036889
:1010E0005B699847206A036805A99B699847206A4D
:1010F00000283FF408AD03680B499B699847206AB4
:1011000000283FF400AD94F8283013B10368DB6881
:101110009847E37E002B3FF4F6AC0A236360F2E4C9
:101120004C410100E40EFF1F1C400100344101004E
:10113000E840010024410100036829465B699847A3
:10114000206A50B194F8283013B10368DB689847DF
:10115000E37E002B40F05E82206A0368A1499B6910
:101160009847206AA04903685B699847206A03682A
:1011700039469B699847206A00283FF410AD036800
:101180009A499B699847206A00283FF408AD94F873
:10119000283013B10368DB689847E37E002B3FF4E7
:1011A000FEAC0A236360FAE4D8F80050BFF35B8F0B
:1011B00015F0010500F034822368626A13433FF49E
:1011C00013AD8B4A01922F231CAD009389498A4BA2
:1011D00001222846FFF74EF92368002B00F3C58251
:1011E000206A00283FF4B8AD636A002B7FF7B4ADE6
:1011F000036829465B699847206A50B194F8283003
:1012000013B10368DB689847E37E002B40F0D68279
:10121000206A036879499B699847206A7249036884
:101220005B699847206A036805A99B699847206A0B
:1012300000283FF491AD03686C499B699847206A88
:1012400000283FF489AD94F8283013B10368DB68B7
:101250009847E37E002B3FF47FAD0A2363607BE574
:101260006749DFF8B8B1012305AA0CA814AF03F051
:10127000DDFC384603F042FB4FF0000A0DF17D091A
:1012800001220CA9284603F051FD1D9B15931E9BBE
:1012900016930D229DF87C308DF85C3049460DF197
:1012A0005D0006F065F8239B1B93384603F046FB70
:1012B0000646284603F032FB00233846002E31D084
:1012C0001C9303F02DFB2A46594609F07BFE0028AB
:1012D000D6D01C9B9A45B8BF9A46D1E7494806F03C
:1012E00075F900283FF41AAC032323600A236360D6
:1012F00045493D4805F0D8FD444BE3614FF00133CB
:10130000A361012363620223414A4249266284F8B1
:101310002860E362374807F037FA3A4806F05CF98C
:10132000FFF7FCBB0CA803F0FDFA3B490AF10102F0
:1013300008A809F027FE384603F0F0FA0CA803F0DD
:10134000EDFAD8F80060BFF35B8F16F001067FF46A
:10135000C2AB2C4806F03AF900283FF4BCAB03239B
:1013600023600A23636028491F4805F09DFD274B31
:10137000E3614FF00133A361012363620223244A36
:101380002449266284F82860E3621A4807F0FCF9D1
:101390001C4806F021F9FFF79EBB1A4806F016F923
:1013A00000283FF4E4AB032323600A23636016495B
:1013B0000D4805F079FD154BE3614FF00133A36152
:1013C000012363620223124A1249266284F82860CC
:1013D000E362084807F0D8F90A4806F0FDF8FFF77D
:1013E000C6BB00BF4C410100E40EFF1F1C400100C2
:1013F000F43F0100DC0EFF1F40400100C840010027
:10140000D013FF1FD80EFF1FA84101005007FF1F78
:10141000F806FF1F590400001841010010410100A7
:10142000D8F80060BFF35B8F16F0010600F0A980CA
:101430002368626A13433FF4BCAB984B01934E237D
:1014400000939749974B01222846FFF713F823682A
:10145000002B00F33D81206A18B1636A002B00F372
:101460005281284605F0E4FCFFF7A3BBE06929465A
:1014700005F03EFCE37E0BB10A236360E0698A4914
:10148000036814225B689847E06988490368012271
:101490005B689847E37E002B3FF436AC0A23636019
:1014A00032E4036829465B699847206A60B194F882
:1014B000283013B10368DB689847E37E002B00F007
:1014C0009F800A23206A6360036877499B69984775
:1014D000206A00283FF41EAC036874499B69984752
:1014E000206A00283FF416AC94F8283013B1036842
:1014F000DB689847E37E002B3FF40CAC0A23636063
:1015000008E46B4806F062F800283FF40BAC0323B4
:1015100023600A2363606749674805F0C5FC674B91
:10152000E361012363624FF001300223A061644A4A
:1015300064492562E36284F82850594807F024F989
:101540005B4806F049F8FFF7EDBBE069294605F076
:10155000CFFBE37E0BB10A236360E0695A4903685D
:1015600015225B689847E0695049036801225B686F
:101570009847E37E002B3FF449AB0A236360FFF7F3
:1015800045BB4B4806F022F800283FF451AF032337
:1015900023600A2363604749474805F085FC02231E
:1015A000E362464BE3614FF00133A3610123444AF8
:1015B0004449266284F828606362394807F0E4F8F9
:1015C0003B4806F009F833E7E069294605F090FB4F
:1015D000E37E0BB10A236360E0693C490368322271
:1015E0005B689847E0693149036801225B68984766
:1015F000E37E002B3FF4AAAB0A236360FFF7A6BB90
:10160000206A61E7206A08E40A236360F0E40A23A1
:1016100063605DE50A2363609EE50A2363601FE55E
:10162000234805F0D3FF00283FF4C6AD0323236011
:101630000A2363601F49204805F036FC1F4BE36115
:10164000012363624FF001310223A1611C4A1D494D
:101650002562E36284F82850114807F095F8144891
:1016600005F0BAFFA8E5036829465B699847206A38
:1016700048B194F8283013B10368DB689847E37EDB
:10168000002B6ED1206A036810499B699847206A35
:1016900000287FF4D0ADFFF75FBB00BFF43F01002F
:1016A000DC0EFF1F40400100504001001C400100C3
:1016B000D80EFF1FA8410100E40EFF1F5007FF1FB7
:1016C000F806FF1F590400009C400100684001001B
:1016D000E069294605F00CFBE37E0BB10A23636049
:1016E000E0693849036824225B689847E069364915
:1016F000036801225B689847E37E002B3FF4ABAEA2
:101700000A236360A7E6036829465B699847206A55
:1017100050B194F8283013B10368DB689847E37E32
:101720000BB10A236360206A036826499B699847C6
:10173000206A00283FF495AE036823499B699847C7
:10174000206A00283FF48DAE94F8283013B1036866
:10175000DB689847E37E002B3FF483AE0A23636087
:101760007FE60A23206A63608DE7E069294605F079
:10177000BFFAE37E0BB10A236360E0691349036893
:101780001C225B6898471249E06905F0B1FAE669E6
:1017900005A80AF0D5F9336802465B6805A930460A
:1017A0009847E0690849036801225B689847E37E2F
:1017B000002B3FF415AD0A23636011E50A23206A6C
:1017C000636026E5604101001C400100C840010043
:1017D000E40EFF1F2DE9F0430E4687B01446054680
:1017E000204F00F027FB2049B079002C08BF394674
:1017F0001E4C019110F0010F4FF001011C480091A7
:1018000008BF204602903068039053EC102B194912
:10181000284609F0B7FBF37903B3DFF85C80DFF803
:101820005C90F71D002417F8012F414605A809F028
:10183000A9FB28460AF084F905A9284409F0C6FE48
:10184000F379591EA1424FF0020204F1010403D0C2
:10185000494605F08DFDF3799C42E4DB07B0BDE815
:10186000F08300BF8C4101008841010094410100D8
:101870009041010098410100AC410100A8410100E4
:1018800070B504460D460068616A014386B014D005
:101890009DB10A99019100932146134602A82A4658
:1018A000FEF7E8FD2368AB4209DA206A10B1636AEB
:1018B000AB4231DA02A805F0BBFA06B070BDE069B0
:1018C00002A905F015FAE37E0BB10A236360E6690D
:1018D0000B980AF035F933680B995B68024630467D
:1018E000984704F10801E06905F002FA62680C9B70
:1018F000E06919680A2A46D0D2B2002305F03EFA00
:10190000E0692449036801225B689847E37E002B65
:10191000CBD00A236360C8E7036802A95B699847D4
:10192000206A48B194F828301BB10368DB689847F7
:10193000206AE37E002B29D103680B999B699847A5
:10194000206A036804F108015B699847206A0C99D2
:10195000036862685B6A09689847206A0028A9D012
:1019600003680C499B699847206A0028A2D094F824
:10197000283013B10368DB689847E37E002B99D0C9
:101980000A23636096E705F0D9F9B9E70A23636093
:10199000D2E700BF1C40010010B5084C204602F001
:1019A000ADFF0749074A204606F0EEFEBDE81040AD
:1019B000054841F2883101F017BE00BF1C10FF1F1F
:1019C0001D490000F806FF1F1010FF1FF0B58E4ED6
:1019D000307889B01421002868D0002005F0D8F9AB
:1019E000D0B18A480AF0ACF888490246884802F02B
:1019F000F5FE0546864805F0A9F9044683480AF035
:101A00009FF8831C601983422BD0824B0021012256
:101A100031701A7009B0F0BD7F4F3D68BFF35B8F26
:101A200015F001054FD07D4C2368626A1343D8D06E
:101A30007B4A0192832304AD00937849794B0422B9
:101A40002846FEF717FD2368032B00F34F81206A19
:101A500018B1636A032B00F37281284605F0E8F998
:101A6000BFE7714C6B4A2368704801330021236043
:101A7000117001F0C9FD0028CCD0674E3568BFF366
:101A80005B8F15F0010500F099806949644B019165
:101A90000093644A6148029491230421FFF7F0FE09
:101AA0005B4809B0BDE8F04002F0C6BE05F070F931
:101AB00068B35E4801F0A8FD0028ABD009B0BDE8CE
:101AC000F040FEF78DBF384605F080FD534C0028EE
:101AD000AAD0032323600A236360564904F1080057
:101AE00005F0E2F94FF00133A361534BE3610123A9
:101AF00063620223514A52492562E36284F8285006
:101B0000204606F041FE384605F066FD8CE7424E61
:101B10003568BFF35B8F15F0010500F0C2803F4CC4
:101B20002368626A1343C4D03D493E4B01917B2236
:101B300004AD0092394902222846FEF79BFC236837
:101B4000012B00F38580206A002833D0636A012BC3
:101B500030DD036829465B699847206A50B194F8E4
:101B6000283013B10368DB689847E37E002B40F010
:101B70002181206A036833499B699847206A32496A
:101B800003685B699847206A204903689B69984706
:101B9000206A78B103682D499B699847206A48B14B
:101BA00094F8283013B10368DB689847E37E0BB1E3
:101BB0000A236360284605F03BF97AE7304605F0D2
:101BC00005FD00283FF461AF144F1A4903233B6021
:101BD0000A237B6007F1080005F066F94FF0013336
:101BE000BB61154BFB6101237B620223134A14493D
:101BF0003D62FB6287F82850384606F0C5FD304646
:101C000005F0EAFC41E700BF3C10FF1F0C0FFF1F6F
:101C10001C10FF1F3D10FF1FD80EFF1FDC0EFF1F03
:101C2000B4410100404001000C10FF1F1010FF1FC5
:101C3000D8410100A84101005007FF1FF806FF1F0F
:101C400059040000BC410100E40EFF1F1C400100CC
:101C5000E069294605F04CF8E37E0BB10A23636086
:101C6000E069564903680C225B6898475449E0696B
:101C700005F03EF8E669534809F062FF33685149C0
:101C80005B68024630469847E0694F490368012285
:101C90005B689847E37E002B3FF455AF0A236360EF
:101CA00051E7304605F092FC484C00283FF438AF2D
:101CB000032323600A236360454904F1080005F00B
:101CC000F3F8444BE361012363624FF001310223D7
:101CD000A161414A41492562E36284F828502046C7
:101CE00006F052FD304605F077FC19E7E069294619
:101CF00004F0FEFFE37E0BB10A236360E06938491C
:101D000003680A225B6898472D49E06904F0F0FFF8
:101D1000E7692C4809F014FF3B682A495B680246D2
:101D200038469847E0692849036801225B6898476C
:101D3000E37E002B3FF48BAE0A23636087E60368E3
:101D400029465B699847206A48B194F8283013B156
:101D50000368DB689847E37E002B27D1206A03687D
:101D60001F499B699847206A154903685B69984732
:101D7000206A144903689B699847206A00283FF449
:101D80006CAE036810499B699847206A00283FF4AD
:101D900064AE94F8283013B10368DB689847E37E9B
:101DA000002B3FF45AAE0A23636056E60A23206AEA
:101DB0006360D4E70A23206A6360DBE6BC4101006C
:101DC000E40EFF1F0C0FFF1F1C400100DC0EFF1F65
:101DD000A84101005007FF1FF806FF1F590400002B
:101DE000CC41010010B5C2B005AC00232146F02261
:101DF00005F016F900F01EF8054A02948DED000B6F
:101E0000FE21044807F0E4FFFFF7E0FD42B010BDFB
:101E1000F44101000C0FFF1F08B503460A460448B1
:101E20001946FFF7D7FCBDE80840FFF7CFBD00BF5C
:101E30000C0FFF1F30B50D4B83B0D3E9000106F046
:101E400037FE0B4B1B680193044601980D4606F0C4
:101E5000E3FD084B002206F083FF22462B4606F0E6
:101E60009FFC41EC100B03B030BD00BF4010FF1FC2
:101E70007016FF1F00408F4038B505460C464220C3
:101E8000012105F093FC002005F04CFA024A034BB7
:101E900015801C8038BD00BF4810FF1FFC06FF1FC7
:101EA000124A134B11881B88884214D3984228BFCA
:101EB00018465B1A12D003EBD372401A521040F24C
:101EC000DE3101FB002000FB03F2002A90FBF3F05F
:101ED00008DB05F027BA5B1A0846ECD140F2EF1098
:101EE00005F020BA013805F01DBA00BF4810FF1FE9
:101EF000FC06FF1FF8B51F4600239DF8186080F808
:101F000042300446154612B1920009F0B3F92EB1E1
:101F10003946B20004F1200009F0ACF9079B84F8BF
:101F2000435084F84460A4F840302046F8BD00BF18
:101F300038B590F84330044663B100252B4614F8B9
:101F40002300002105F032FC013594F84320EBB268
:101F50009A42F4D894F844306BB100252B460833EC
:101F6000012114F8230005F021FC013594F84420E8
:101F7000EBB29A42F3D838BDF0B5B0F840200A6011
:101F80000123CB7190F84330002495B00D4680F8C2
:101F9000424093B10646071F57F8040FC0B205F040
:101FA000F7FB96F8423096F84320A04003430134F3
:101FB000DBB2A24286F84230EEDC954F2B723C68D1
:101FC000BFF35B8F14F001044FD0924E9249934FB0
:101FD000684604F069FFEC1D0B3514F8013F1B093E
:101FE0006846F95C04F0E2FF237803F00F036846CB
:101FF000F95C04F0DBFFA542EFD13368726A13434A
:1020000004D1684604F014FF15B0F0BD002104A807
:1020100004F04AFF824904A804F072FF337E10AC3A
:10202000002B40F0A280737E002B7BD1B37E002B6F
:1020300061D17C49204604F037FF214604A804F012
:10204000B1FF204604F0F4FE3368032B31DC306A24
:1020500018B1736A032B00F39F8004A804F0E8FE14
:10206000684604F0E5FE15B0F0BD384605F0AEFA5E
:10207000684E0028AAD0032333600A2373606A499C
:1020800006F1080004F010FF4FF00133B361674B15
:10209000F361012373620223654A66493462F36285
:1020A00086F82840304606F06FFB384605F094FA73
:1020B0008CE7F06904A904F01BFEF37E0BB10A2340
:1020C0007360F0695C4903680C225B6898475B4960
:1020D000F06904F00DFE6946F06904F009FEF0694C
:1020E0005749036801225B689847F37E002BAED006
:1020F0000A237360ABE75349204604F0D5FE4A49F2
:102100000CA804F0D1FE0CA9204604F05FFF0146A4
:1021100004A804F047FF0CA804F08AFE204604F04F
:1021200087FE86E748490CA804F0BEFE0CA92046AD
:1021300004F060FE3021204604F05EFF3A49054677
:1021400008A804F0B1FE08A9284604F03FFF0146A4
:1021500004A804F027FF08A804F06AFE204604F053
:1021600067FE0CA804F064FE60E73849204604F0DE
:102170009BFE2D490CA804F097FE0CA9204604F004
:1021800025FF014604A804F00DFF0CA804F050FE42
:10219000204604F04DFE46E7036804A95B699847B2
:1021A000306A58B196F8283013B10368DB68984755
:1021B000F37E002B29D00A23306A736003681E491E
:1021C0009B699847306A1D4903685B699847306A84
:1021D000036869465B699847306A00283FF43DAF61
:1021E000036817499B699847306A00283FF435AF68
:1021F00096F8283013B10368DB689847F37E002B0C
:102200003FF42BAF0A23736027E7306AD6E700BF9D
:10221000D80EFF1FDC0EFF1F0442010038420100F0
:10222000C03F0100F0410100A84101005007FF1F1D
:10223000F806FF1F5904000028420100E40EFF1FAA
:102240001C40010014420100D83F01000C42010073
:102250000121152005F0AABA10B5174801F0D4F9EC
:1022600018B3164C2278D30720D4154BA3FB0213C6
:10227000D11A03EB51031B0903EB4303C3EBC30365
:10228000D21AC2F34602072A10D80E4B1B7813410C
:1022900013F0010F0C4B4FF0400214BFC3F8C420E1
:1022A000C3F8C82023780133237010BD0021152006
:1022B00005F044FAF6E700BF4C10FF1F5810FF1F4F
:1022C00087611886FE06FF1F00F00F40044B1A7846
:1022D00011B110431870704722EA0000187070475F
:1022E000FE06FF1F014B1878704700BFFE06FF1F58
:1022F00002484FF4967101F077B900BF4C10FF1FF0
:102300002DE9F0430A2087B004F064FF0121052085
:1023100005F04CFA0121062005F048FAA04DA14C29
:10232000A14FDFF8D0920021062005F03FFA0121ED
:10233000162005F03BFA2E6840F2EE2806F072F9FE
:102340002378002B4ED03B78DB074BD52B68D9F890
:1023500000209B1A0E2B45D99448954E02F010F997
:102360000023944A94499548009301F067FC4FF488
:10237000FA7005F077FA3568BFF35B8F15F0010549
:1023800000F0AB808E4C2368626A134337D18D48CE
:10239000FEF72CF98C48FEF729F9FFF759FF00F0FA
:1023A000A1FCC8210020FFF767FD8848FFF7C0FDAA
:1023B0003568BFF35B8F15F001056CD02368626A46
:1023C000134350D1FEF70CFB3568BFF35B8F15F05C
:1023D000010500F0A7802368626A134328D107B083
:1023E000BDE8F0832B6822789B1B2AB1B3F5FA6F06
:1023F000B2D806F017F9A1E74345FAD9ACE7744A19
:102400000192322302AD00936D49724B032228469C
:10241000FEF730F82368022B00F30981206A18B117
:10242000636A022B00F31E81284604F001FDAEE72B
:102430006749684B01913E2202AD00926049032238
:102440002846FEF717F82368022B00F3D580206A90
:1024500018B1636A022B00F36481284604F0E8FC9B
:1024600007B0BDE8F0835A4A01923B2302AD0093C6
:102470005349584B03222846FDF7FCFF2368022BE3
:1024800073DC206A18B1636A022B00F31B812846B3
:1024900004F0CEFC96E7464805F098F800288DD069
:1024A000032323600A2363604B494C4804F0FCFC7F
:1024B0004B4BE361012363624FF001310223A161C1
:1024C000484A49492562E36284F828503C4806F0AE
:1024D0005BF9374805F080F870E7304605F076F88C
:1024E000374C00283FF44FAF032323600A23636077
:1024F000394904F1080004F0D7FC394BE3610123AA
:1025000063624FF001310223A161364A36492562E8
:10251000E36284F82850204606F036F9304605F08C
:102520005BF830E7224805F051F800283FF453AF3C
:10253000032323600A2363602749284804F0B4FC7E
:10254000274BE361012363624FF001300223A06156
:10255000244A25492562E36284F82850184806F089
:1025600013F9134805F038F835E7E069294604F017
:10257000BFFBE37E0BB10A236360E0691B4903687C
:1025800013225B689847E0691949036801225B6878
:102590009847E37E002B3FF474AF0A23636070E733
:1025A0007016FF1F5017FF1F7417FF1F2813FF1F00
:1025B000D80EFF1F2013FF1F20A107008411FF1F4B
:1025C000DC0EFF1FAC10FF1F2411FF1FC010FF1FE8
:1025D000F43F010050420100A8410100E40EFF1F3A
:1025E0005007FF1FF806FF1F590400006842010052
:1025F0001C4001007817FF1FE069294604F078FBB2
:10260000E37E0BB10A236360E06960490368162228
:102610005B689847E0695E49036801225B689847F8
:10262000E37E002B3FF413AF0A2363600FE7E069FA
:10263000294604F05DFBE37E0BB10A236360E06989
:10264000544903680B225B689847E0695049036866
:1026500001225B689847E37E002B3FF4DFAE0A233C
:102660006360DBE6036829465B699847206A60B1CE
:1026700094F8283013B10368DB689847E37E002B99
:1026800000F081800A23206A6360036841499B69E6
:102690009847206A00283FF4C7AE03683C499B690D
:1026A0009847206A00283FF4BFAE94F8283013B151
:1026B0000368DB689847E37E002B3FF4B5AE0A233E
:1026C0006360B1E6036829465B699847206A58B1A0
:1026D00094F8283013B10368DB689847E37E002B39
:1026E0004FD00A23206A636003682B499B6998478F
:1026F000206A00283FF4CBAE036825499B699847C0
:10270000206A00283FF4C3AE94F8283013B1036860
:10271000DB689847E37E002B3FF4B9AE0A23636081
:10272000B5E6036829465B699847206A50B194F87A
:10273000283013B10368DB689847E37EFBB10A23B6
:10274000206A6360036811499B699847206A0028E2
:102750003FF483AE03680E499B699847206A0028BE
:102760003FF47BAE94F8283013B10368DB689847D8
:10277000E37E002B3FF471AE0A2363606DE6206AAE
:10278000E0E7206AB0E7206A7FE700BF7C420100F3
:102790001C4001005C420100684201002DE9F04349
:1027A00093B005F03FF8B04BB04A1E681060044685
:1027B0001860FFF751FDAE4800F026FF88B9AD481C
:1027C00000F022FFD8B9AC49AC4801F011FB002859
:1027D0006AD1AB4800F018FF00286ED113B0BDE8F5
:1027E000F083162004F0D4FFB0FA80F149091620D6
:1027F00004F0A4FF9F4800F007FF0028E3D0DFF8B3
:10280000D082D8F80070BFF35B8F17F0010700F09B
:1028100061819C4D2B686A6A134340F0D0809A48CE
:1028200000F0B8FE00F072FA011E18BF012104206A
:10283000FFF74CFD9449914801F096FB9248002126
:10284000FFF7EAFA91499248FDF7B0FF8F498B48AC
:1028500001F08AFB8D480021FFF7DEFA8D498E4892
:10286000FDF7A4FF8B49854801F07EFB89480021D4
:10287000FFF7D2FA89498A48FFF77EFB87497F48EC
:1028800001F072FB85480021FFF7C6FA854B202036
:102890001978FFF71BFD0020FFF702FB7649774808
:1028A00001F0A6FA002894D073480121FFF7B4FA8A
:1028B000734800F0A9FE002890D0A4EB06087A49DE
:1028C0007A4EDFF80C9206A804F0EEFA0A2241468E
:1028D00002A804F0FDFA02A906A804F077FB7449E7
:1028E00004F07CFB0546FFF7FDFC724904460AA88C
:1028F00004F0DAFAC4F3071304F00F04F15C0AA839
:1029000004F054FB315D0AA804F050FB0AA92846E4
:1029100004F05CFB0EAF0146384604F06BFA384613
:10292000FFF760FA384604F083FA0AA804F080FA48
:1029300002A804F07DFA06A804F07AFAD9F800405B
:10294000BFF35B8F14F001046AD04E4D564906A8C0
:1029500004F0AAFA0A22414602A804F0B9FA02A930
:1029600006A804F033FB524904F038FB8046FFF719
:10297000B9FC504904460AA804F096FAC4F30713B8
:1029800004F00F04F15C0AA804F010FB315D0AA802
:1029900004F00CFB0AA9404604F018FB2B686A6A95
:1029A0001343044624D10AA804F042FA02A804F012
:1029B0003FFA06A804F03CFA13B0BDE8F0833E4BA2
:1029C00001930EAF5D2300932E493C4B0522384600
:1029D000FDF750FD2B68042B00F3BA80286A18B16C
:1029E0006B6A042B00F3FD80384604F021FA16E7E9
:1029F000314B01937E2300932249304B032238460A
:102A0000FDF738FD2B68022B00F38980286A18B186
:102A10006B6A022B00F3B780384604F009FAC2E76C
:102A2000484604F0D3FD174D00288FD003232B60B8
:102A30000A236B60224905F1080004F035FA214BA6
:102A4000EB614FF00133AB6101236B6202231E4A3D
:102A50001E492C6285F82840EB62284605F094FE5A
:102A6000484604F0B9FD71E74411FF1F1411FF1F20
:102A70000811FF1F3811FF1F9C10FF1F8411FF1F3B
:102A80004811FF1FDC0EFF1F8C10FF1F7C10FF1F63
:102A9000AC10FF1F6C10FF1F2411FF1F5C10FF1FE5
:102AA000C010FF1F3D10FF1FAC420100FC4201009F
:102AB000B84201000442010094420100504201006A
:102AC000A84101005007FF1FF806FF1F590400002E
:102AD000D80EFF1F404604F079FD594D00283FF401
:102AE00099AE03232B600A236B60564905F1080059
:102AF00004F0DAF90223EB62534BEB614FF0013340
:102B0000AB610123514A52492F6285F828706B62EC
:102B1000284605F039FE404604F05EFD7AE6E86995
:102B2000394604F0E5F8EB7E0BB10A236B602146D1
:102B3000E86904F0DDF8E8694649036801225B684A
:102B40009847EB7E002B3FF461AF0A236B605DE793
:102B5000E869394604F0CCF8EB7E0BB10A236B60D0
:102B6000E8693D4903680F225B689847E86939497D
:102B7000036801225B689847EB7E002B3FF42EAF81
:102B80000A236B602AE7036839465B699847286A1D
:102B900050B195F8283013B10368DB689847EB7E95
:102BA0000BB10A236B60286A036821465B6998476A
:102BB000286A00283FF430AF036826499B6998478C
:102BC000286A00283FF428AF95F8283013B103682D
:102BD000DB689847EB7E002B3FF41EAF0A236B6047
:102BE0001AE7036839465B699847286A50B195F837
:102BF000283013B10368DB689847EB7E0BB10A23DA
:102C00006B60286A036814499B699847286A002802
:102C10003FF4EAAE03680F499B699847286A002889
:102C20003FF4E2AE95F8283013B10368DB689847AB
:102C3000EB7E002B3FF4D8AE0A236B60D4E600BFD6
:102C4000DC0EFF1FA84101005007FF1FF806FF1F01
:102C5000590400001C4001009C42010010B542F2E2
:102C6000107182B0144800F0BFFC3221134800F00C
:102C7000BBFC0121124800F0B7FC6421114800F0B0
:102C8000B3FC1149114840F2EA730422FDF7A2FC9B
:102C90000F49104840F2EB730222FDF79BFC40F213
:102CA000ED740322CDE900240B4B0C490C4804229F
:102CB000FFF720F902B010BD4811FF1F3811FF1FA8
:102CC0001811FF1F0811FF1FD8420100AC10FF1F91
:102CD000F44201002411FF1FE8420100C842010034
:102CE000C010FF1F08B501210E2004F05FFD012177
:102CF0000E2004F023FD01210F2004F057FDBDE854
:102D0000084001210F2004F019BD00BF024A034B07
:102D100090789B78184370475811FF1F5C11FF1F74
:102D200070B504460D460068616A014386B014D050
:102D30009DB10A99019100932146134602A82A46A3
:102D4000FDF798FB2368AB4209DA206A10B1636A89
:102D5000AB4231DA02A804F06BF806B070BDE0694E
:102D600002A903F0C5FFE37E0BB10A236360E669A5
:102D70000B9808F0E5FE33680B995B680246304615
:102D8000984704F10801E06903F0B2FF62680C9B08
:102D9000E06919680A2A46D0D2B2002303F0EEFF98
:102DA000E0692449036801225B689847E37E002BB1
:102DB000CBD00A236360C8E7036802A95B69984720
:102DC000206A48B194F828301BB10368DB68984743
:102DD000206AE37E002B29D103680B999B699847F1
:102DE000206A036804F108015B699847206A0C991E
:102DF000036862685B6A09689847206A0028A9D05E
:102E000003680C499B699847206A0028A2D094F86F
:102E1000283013B10368DB689847E37E002B99D014
:102E20000A23636096E703F089FFB9E70A2363602A
:102E3000D2E700BF1C4001002DE9F0479A4C9B4AA5
:102E4000E37A12688EB088460590DBB172B6E37AF9
:102E5000D90708D54FF0E020E568D0F88011294067
:102E6000C0F88011A1619F0708D54FF0E0202569C7
:102E7000D0F884112940C0F88411E1615E0700F1A7
:102E80008A8062B62368D968914207D08849196060
:102E9000DA6042F08041874A19611A609DF8147027
:102EA000854E864A56F837307F48012583F8005111
:102EB0001146042301F0A4FB56F83720E37A82F888
:102EC0008050A3B1DD0704D54FF0E022A169C2F81C
:102ED0000011980704D54FF0E022E169C2F804110F
:102EE000590704D54FF0E023226AC3F80821DFF820
:102EF000F0A1DAF80050BFF35B8F15F0010500F088
:102F0000F1806F4C6F496D4F6F4E06A803F0CCFFF8
:102F10003D4607F104092B781B0906A8F15C04F073
:102F200045F815F8013B03F00F0306A8F15C04F027
:102F30003DF8A945EFD12368626A13434ED106A834
:102F400003F076FF3B787A781B0103F4FE6343EAD3
:102F50001213A8F8003097F90030002BC0F20A8154
:102F6000DAF80050BFF35B8F15F0010500F0DF8049
:102F70002368626A134318D1FB7803F0070388F8CB
:102F80000230FB785A0775D49A075AD4D9073ED431
:102F90000EB0BDE8F0874FF0E0216069D1F88831CC
:102FA00003402362C1F888316BE7484B01930AADB7
:102FB0002C2300934249464B05222846FDF75AFA36
:102FC0002368042B00F35481206A18B1636A042B30
:102FD00000F3D481284603F02BFFCDE73B4B019350
:102FE0000AAD232300933649394B05222846FDF7C5
:102FF00041FA2368042B00F30A81206A18B1636A3E
:10300000042B00F35F81284603F012FF97E7DAF8FC
:103010000050BFF35B8F15F0010500F00C8205A88E
:103020002C492A4B029001910093294A24483D23C0
:103030000421FFF775FE0123A8F800300EB0BDE8AB
:10304000F087DAF80050BFF35B8F15F0010500F050
:10305000CF8105AB0293204B01931C4B00931C4A7C
:10306000174837230421FFF75BFE0223A8F800303E
:10307000FB788BE7DAF80050BFF35B8F15F00105A2
:1030800000F0FC8105AB0293144B01930F4B0093AE
:103090000F4A0B4831230421FFF742FE0423A8F80E
:1030A0000030FB7870E700BF2813FF1F5411FF1F8B
:1030B00001403F0000003F80944601006011FF1F67
:1030C000DC0EFF1F04420100E04301002843010021
:1030D00014430100BC430100984301007443010004
:1030E000D80EFF1F504604F071FA984C00283FF4A8
:1030F00009AF032323600A236360954904F10800A4
:1031000003F0D2FE4FF00133A361924BE361012340
:1031100063620223904A91492562E36284F8285051
:10312000204605F031FB504604F056FAEAE68C489A
:1031300004F04CFA00283FF41BAF032323600A235A
:1031400063608349874803F0AFFE0223E362814B4B
:10315000E3614FF00133A36101237F4A7F49256278
:1031600084F828506362794805F00EFB7C4804F02F
:1031700033FAFDE6DAF80050BFF35B8F15F0010576
:1031800023D02368626A134303D10023A8F80030D8
:10319000E6E6754B01930AAD282300936B49734B08
:1031A00002222846FDF766F92368012B00F395817A
:1031B000206A18B1636A012B00F3AA81284603F044
:1031C00037FE0023A8F80030CAE6654804F0FEF98F
:1031D0000028D6D0032323600A2363605C4961483A
:1031E00003F062FE0223E3625A4BE3614FF00133C6
:1031F000A3610123584A5949256284F82850636223
:10320000524805F0C1FA564804F0E6F9B9E7E0691A
:10321000294603F06DFDE37E0BB10A236360E0698C
:10322000534903680F225B6898474E49E06903F0F1
:103230005FFD62680599E0690A2A00F04281D2B216
:10324000002303F09BFD4749E06903F051FD06A907
:10325000E06903F04DFDE0694649036801225B68BF
:103260009847E37E002B3FF4C8AE0A236360C4E6B0
:10327000E069294603F03CFDE37E0BB10A2363605D
:10328000E0693D49036814225B6898473549E06965
:1032900003F02EFD6268B8F80010E0690A2A00F019
:1032A0001381D2B2002303F069FDE069314903685C
:1032B00001225B689847E37E002B3FF485AE0A232A
:1032C000636081E6036829465B699847206A50B1CC
:1032D00094F8283013B10368DB689847E37E002B2D
:1032E00040F0F880206A036821499B699847206A6A
:1032F0001C4903685B699847206A626803680599FE
:103300005B6A9847206A174903685B699847206A97
:10331000036806A95B699847206A00283FF473AEEA
:10332000036814499B699847206A00283FF46BAEF4
:1033300094F8283013B10368DB689847E37E002BCC
:103340003FF461AE0A2363605DE600BFDC0EFF1F41
:10335000A84101005007FF1FF806FF1F5904000095
:10336000D80EFF1FE40EFF1F284301001443010085
:10337000344301001C4001005C43010003682946FE
:103380005B699847206A50B194F8283013B10368FC
:10339000DB689847E37E002B40F09980206A036841
:1033A00072499B699847206A714903685B6998472D
:1033B000206A62680368B8F800105B6A9847206A60
:1033C00000283FF407AE03686A499B699847206A62
:1033D00000283FF4FFAD94F8283013B10368DB6890
:1033E0009847E37E002B3FF4F5AD0A236360F1E5D7
:1033F000614804F0EBF800283FF42BAE0323236070
:103400000A2363605D495A4803F04EFD0223E362DC
:103410005B4BE3614FF00133A3610123594A5A49E1
:10342000256284F828506362584805F0ADF9524887
:1034300004F0D2F80DE6504804F0C8F800283FF434
:10344000EEAD032323600A2363604C49484803F030
:103450002BFD4B4BE361012363624FF001310223EB
:10346000A161484A48492562E36284F828504748E8
:1034700005F08AF9404804F0AFF8D0E53E4804F082
:10348000A5F800283FF4FEAD032323600A23636000
:103490003A49374803F008FD0223E362384BE36101
:1034A0004FF00133A3610123364A3749256284F87E
:1034B00028506362354805F067F92F4804F08CF80E
:1034C000E0E503F03BFCBEE603F038FCEDE60A2342
:1034D000636063E70A23636004E7E069294603F059
:1034E00007FCE37E0BB10A236360E06928490368A7
:1034F00017225B689847E0691E49036801225B68F0
:103500009847E37E002B3FF453AE0A2363604FE6F7
:10351000036829465B699847206A50B194F82830BF
:1035200013B10368DB689847E37E0BB10A2363603D
:10353000206A036816499B699847206A00283FF46F
:103540003DAE03680B499B699847206A00283FF409
:1035500035AE94F8283013B10368DB689847E37EF2
:10356000002B3FF42BAE0A23636027E65C43010087
:10357000E40EFF1F1C400100D80EFF1FA8410100F0
:103580005007FF1FF806FF1F59040000DC0EFF1F45
:103590004443010070B50E4E0E4D044631460E20D8
:1035A000FFF74AFC29460F20FFF746FC33882A889C
:1035B000227340F2E97121605BBAB1782381130A6A
:1035C000A172E372A97861734FF4C063E38070BDA8
:1035D0005811FF1F5C11FF1F014B024A1A60704710
:1035E0005411FF1F03200038064B816082B01A6817
:1035F0000192019A42604FF0000C80F800C002B0C6
:10360000704700BF7016FF1F10B40F4C416823684D
:10361000826883B00093009B5B1A934204D200201F
:1036200003B05DF8044B70472AB103781BB911440D
:1036300041600120F4E723680193019B436001206E
:1036400003B05DF8044B70477016FF1F58492DE911
:10365000F043A1FB00435B09A1FB0341C3EB03144F
:103660004909A0EB8400534C1070C1EB0115A4FB79
:10367000014CA3EB85034FEA1C1C53704E4B4F4E7D
:103680004F4FDFF844810CF10400A3FB00430CEB27
:103690004C04A1EBC4019170C11A03EB51039B08C8
:1036A000C3EBC303C01A431C0020D370014640F291
:1036B0006D190DE0B7EBB40F46D3B8EB341F34BF30
:1036C0004C464FF4B77421448C4500F101000FD3F0
:1036D0005FFA80FE0EF2B27313F0030506FB03F4EB
:1036E000E8D040F26D1421448C4500F10100EFD286
:1036F000344E82F806E0A6FB03067709A5B36420E2
:10370000F60900FB17374FF4C87000FB163640F27D
:103710006D10ACEB010CDFF8B4E060440121002334
:103720000AE013F80E40844234D80C29A0EB0400C0
:1037300012D001310133C9B2012B5FFA83FCF0D101
:103740002DB9EFB11D2403E04FF4B774BBE71C247F
:10375000A04229D3001BECE74FF00D0C013082F89A
:1037600005C01071BDE8F083642000FB1737F6092F
:103770004FF4C87000FB16363FB14FF4B770C8E77E
:10378000002E14BF1C241D24E2E7002EBFD14FF4ED
:10379000B770BEE70CF1010C5FFA8CFC013082F8C7
:1037A00005C01071BDE8F0834FF0020CD6E700BFF2
:1037B00089888888ABAAAAAA25499224295C8FC245
:1037C000285C8F021F85EB510AD7A300F443010048
:1037D000F0B5234D234E2B683268234F83B00093FE
:1037E000009B9B1AB3F57A7F37D3396801312C6877
:1037F0000094009B02F57A729B1AB3F57A7F084613
:1038000001F10101F3D2326038600094174C236853
:10381000834211D8164B1B6873B1984701430ED0F1
:103820002B680193134B019A1B6832600344236099
:10383000114B386002221A70002103B0F0BD0E490E
:103840000C4A0B7838681268003B18BF0123024409
:103850000B700021226003B0F0BD3868D6E700BFCE
:103860007016FF1F6411FF1F7411FF1F6811FF1FE7
:103870008011FF1F0007FF1F7311FF1F70B5094E56
:10388000FFF7A6FFD6E90023994208BF904206D071
:1038900005460C46044AFFF7D9FEC6E90054024B20
:1038A000987870BD7811FF1F6C11FF1F70B5094E1D
:1038B000FFF78EFFD6E90023994208BF904206D059
:1038C00005460C46044AFFF7C1FEC6E90054024B08
:1038D000587870BD7811FF1F6C11FF1F70B5094E2D
:1038E000FFF776FFD6E90023994208BF904206D041
:1038F00005460C46044AFFF7A9FEC6E90054024BF0
:10390000187870BD7811FF1F6C11FF1F70B5094E3C
:10391000FFF75EFFD6E90023994208BF904206D028
:1039200005460C46044AFFF791FEC6E90054024BD7
:10393000187970BD7811FF1F6C11FF1F70B5094E0B
:10394000FFF746FFD6E90023994208BF904206D010
:1039500005460C46044AFFF779FEC6E90054024BBF
:10396000587970BD7811FF1F6C11FF1F70B50A4E9A
:10397000FFF72EFFD6E90023994208BF904206D0F8
:1039800005460C46054AFFF761FEC6E90054034BA5
:10399000987900F2B27070BD7811FF1F6C11FF1F93
:1039A00000207047704700BF38B51B4B1B491A7980
:1039B00004460025216022F003024B21C4F8F810D0
:1039C0001D601A71022010232021A4F8983184F878
:1039D0009401A4F89611C4F8A0502946C4F8B05038
:1039E000402204F1B40007F0C1FCC4F88450C4F8CC
:1039F0008850C4F88C50C4F890509822294604F19D
:103A0000FC0007F0B3FC1F220F23C4F80021C4F808
:103A10000C31204638BD00BF2013FF1F004002407C
:103A200070B52D4EB6FBF1FCBCF1050FB6FBFCF4F6
:103A30004FF00005A1EB040421D92B4603F1010E40
:103A40000233BCFBF3F2192A02FB03F30FD8B6FBD7
:103A5000F3F3CB1A002BB8BF5B42A34209DA1C4632
:103A600075460B2A06D9122A9CBF1C46754673461A
:103A7000E4E7F6D0052AFAD86B1CBCFBF3FCACF1EA
:103A8000050CBCF1140F1ED8B4F5967F1BDC134B4C
:103A900000680CEB4C0C03EB0C0213F80C10537881
:103AA0009278DB04120403F4601302F4E02201F0C4
:103AB000070113430B4343F4800343F4804343EA79
:103AC0000563436070BD0648392104F0A5FCBDE8DC
:103AD0007040044803F03AB90024F4000407FF1FC3
:103AE000004401005007FF1F012938BF012130B5F4
:103AF000D0F8A03004460F2928BF0F21084684F8CB
:103B000094111BB3C1F1100E5FFA8EF5AE46002280
:103B10002D01236803F1800C5CF8023003F40013DC
:103B200043F080634CF8023010329542F1D11025F9
:103B30004FF0006123680EF10102803315FB0E3354
:103B40005FFA82FEBEF1100F1960F3D130BD00BFE5
:103B500090F89431C3F11003DBB29A4222D210B52F
:103B60008C46864600EBC203D1E90001043383E8AA
:103B700003009CF80430DEF80010DB0713D5DCF8F6
:103B800000001023843113FB021120F06040086014
:103B9000DEF80010803113FB02131A6842F40012A1
:103BA0001A6010BD7047DCF80040094810238431CA
:103BB00013FB021100EA84400860DEF80010803137
:103BC00013FB02131A6822F400121A6010BD00BF22
:103BD0000000FC1F90F89431C3F11003DBB29A424D
:103BE00022D2036810B41C68E4011ED41C6844F09F
:103BF00080441C600468236843F080532360046899
:103C00002368DB01FCD504F5086404EB8204216021
:103C10000268136823F08053136002681368DB01A5
:103C2000FCD45DF8044B7047704703F5086303EB61
:103C300082035DF8044B1960704700BFF0B517466A
:103C400083B0D0F8A0209DF8205006461C46002ADC
:103C500000F08D80624A306890427BD0614A1378D0
:103C600043F0800313703368A2F58222934206D199
:103C700002F51032D36B43F01003D36333685A68F4
:103C800022F400525A603268136843F08043136094
:103C90003268136823F00043136032681368DB0254
:103CA000FCD4136883F00073136033681C6814F04D
:103CB0000074FBD11A68D501FCD51A6842F40032B1
:103CC0001A603046FFF7ACFE3268136843F4803365
:103CD000136096F89411102912D000252A46304618
:103CE0000021FFF777FF2A463946FFF731FF96F8A4
:103CF00094110134C1F11003E5B2DBB29D42EDD362
:103D00003268136823F08053136033681A68D00157
:103D1000FCD41A681201FCD43046FFF7E5FED6F851
:103D2000F83003F1604303F5644340221A70D6F87B
:103D3000F820530903F13823403301219B0002F09E
:103D40001F0201FA02F21A6033684FF6FF709862A0
:103D500003B0F0BD012C2CD0234B4FF40072012D89
:103D60001A632CD0204B4FF400725A6376E7B0F8F8
:103D700098010191000103F035FCD6F8B0300199AB
:103D8000C6F8A00003B3C6F8AC300023A6F8943000
:103D9000A6F89630A6F8A430A6F8A630B6F8983162
:103DA000A6F89830B6F89631C6F89C00A6F8A83068
:103DB00050E70E4B4FF40072012D9A64D2D10B4B99
:103DC0004FF40072DA6449E7B6F89601000103F097
:103DD00009FC0199C6F8B0000346D6F8A000D2E766
:103DE00000400240005006400090044000A0044003
:103DF000D0F8F82038B5530903F1382340339B003D
:103E000004460125084602F01F02196805FA02F26D
:103E1000114214BF2946002184F8F410C3F8802011
:103E2000B4F8A420B4F8A63092B29BB29A4228D03B
:103E3000B4F8A630D4F8AC109BB201EB03111022F9
:103E400003F096FAB4F8A630B4F8A8209BB22B443D
:103E5000B3FBF2F102FB11339BB294F8F410A4F817
:103E6000A630284661B1D4F8F820530903F138236D
:103E7000403301219B0002F01F0201FA02F21A6096
:103E800038BD0020EEE700BF30B58B7904684FF0F5
:103E9000100E04F1840CDC071EFB02CC25D50C6847
:103EA00024F06044CCF80040046804F1880C8C686D
:103EB0001EFB02CC24BACCF80040046804F18C0C40
:103EC0001EFB02CC12FB0EFECA6812BACCF8002010
:103ED0009A073CD5CB7902681B04803203F4702327
:103EE00043F0476342F80E3030BD0D681D4C04EAC4
:103EF0008544CCF80040046804F1880C8C681EFBF3
:103F000002CC24BACCF80040046804F18C0C1EFBEF
:103F100002CC12FB0EFECA689B0712BACCF8002036
:103F20000AD5CB7902681B04803203F4702343F076
:103F3000416342F80E3030BDCB7902681B048032F9
:103F400003F4702343F0406342F80E3030BDCB7968
:103F500002681B04803203F4702343F0466342F886
:103F60000E3030BD0000FC1F70B50446D0F8F800DC
:103F7000430903F1382340339B0000F01F001D6804
:103F800001228240154214BF0125002584F8F45017
:103F9000C3F88020B4F89430B4F896209BB292B263
:103FA0009A422DD0B4F89430B4F89800B4F8962022
:103FB0009BB20133B3FBF0F600FB163392B29EB214
:103FC000964242D0B4F89430D4F89C009BB200EBF7
:103FD0000310102203F0CCF994F8F450A4F8946084
:103FE000012065B1D4F8F820530903F13823403398
:103FF00001219B0002F01F0201FA02F21A6070BD5B
:1040000094F89421C2F11002D2B20F2ACAD802F158
:1040100080432C3304EB830304F1F00C03E063458D
:1040200002F10102BED053F8040F0028F7D1266830
:10403000100180363058C0F303600828EFD12046C5
:10404000D2B2FFF721FF0120CBE70020C9E700BF74
:104050000B4601684FF0100C80311CFB021170B54B
:1040600009689980C1F30346DE710468843412FB49
:104070000CFE1CFB024CC1F30055C1F34052DCF8AE
:10408000004042EA4502C1F3036C9A71ACF1060CA0
:10409000D2B2D207BCFA8CFC9A7924F060444FEA81
:1040A0005C1C1C606CF382025CBFA40C1C609A71E7
:1040B00002688832042E52F80E2012BAC1F3074566
:1040C0009A6005D902688C3252F80E2012BADA6072
:1040D00015F0080108D106F10800C6F108021844DD
:1040E000BDE8704007F042B970BD00BF2DE9F04F48
:1040F000834689B05BF8B42B136B03930546824665
:104100000024994608E0022B4CD00134102C0AF10F
:10411000080A0BF1040B40D029FA04F3D907F4D5AF
:10412000270102F18003DB59C3F30363062B39D067
:10413000082BE8D1DBF80060002E00F0B980318850
:10414000738889B29BB2994200F0BE80318873882F
:1041500089B29BB29942D8D07388B1689BB21022C1
:1041600001EB03110DEB020003F002F97388B28832
:104170009BB20133B3FBF2F102FB11339BB2E2B20B
:10418000738004A928460134FFF77EFE102C2A68AC
:104190000AF1080A0BF1040BBED1039B136309B0AB
:1041A000BDE8F08FE2B204A92846FFF751FF95F869
:1041B000FC306BB1DAF814310133CAF814319DF8D0
:1041C00016305B0704D5DAF818310133CAF8183114
:1041D0000123A3400093002305F1800605F1900818
:1041E0000193CDF808B056F8040F48B14268009B1F
:1041F000134033D00368D3F800B0464B9B455AD1E7
:10420000B045F0D1019BDDF808B093B395F8FC30D0
:1042100083B1B5F8A430B5F8A6209BB292B29B1A30
:1042200044BFB5F8A8209B18D5F804219A4238BF9E
:10423000C5F8043105EBC403DAF804201B7A13F047
:10424000010F2B6808BF344903F1840314BF22F027
:10425000604201EA8242DA512A6856E7002ACFDA40
:104260000268D2F800B02B4A9345C9D04FF0FF3214
:1042700023E0B5F8A430B5F8A810B5F8A6209BB295
:104280000133B3FBF1F001FB103392B29EB29642C0
:1042900031D0B5F8A430D5F8AC009BB2102200EBB9
:1042A00003100DEB020103F063F8A5F8A460ADE77D
:1042B00005F1940643E70023224604A9D847019B51
:1042C0001843C3B201939BE70127A74047F000477B
:1042D00005F1800605F1900856F8040F38B14368DF
:1042E0001F4204D003680D4A5B6893420DD1B0456C
:1042F000F2D12A6809E795F8FC30002B9AD0D5F85E
:1043000008310133C5F8083183E700222146984778
:10431000EDE700BFA13900000000FC1FA539000037
:104320000148FFF7E3BE00BF8411FF1F704700BFC5
:10433000014B1B681B6A70478411FF1F704700BF49
:10434000704700BF704700BF01480021FFF72CBB3A
:104350008411FF1F90F81CC04160BCF1020FC260C5
:1043600001D18368184702F0FBBB00BF2DE9F04183
:104370000468E56815F0807F764D256048D1DD073B
:1043800000F1C98090F824601F4646EA0626002FF7
:1043900000F0B08031B10E784D7846EA052676BA45
:1043A0000231B6B2456895F808C0022F0CF1FF3C07
:1043B0004FEA0C3C0CBF46F0805546F010451FFA02
:1043C0008CFC6563023F09E012B10EF8014B7246A6
:1043D000013B05F47045654516D90468E56A15F09A
:1043E000F00FF6D013F0010FA46B9646ECD1C4F396
:1043F00007281AB10EF8028B5470724605F4704506
:104400006545A3F10203E8D8002F73D00468C1E723
:10441000DD075BD490F824701E46BFB2002E42D058
:1044200021B14D7811F8027B47EA0527456895F8D8
:1044300008C0022E0CF1FF3C4FEA0C3C0CBF47F0C9
:10444000805547F010451FFA8CFC6563023E09E079
:1044500012B10EF8014B7246013B05F470456545FB
:1044600016D90468E56A15F0F00FF6D013F0010FC5
:10447000A46B9646ECD12AB10EF8024BC4F3072484
:104480005470724605F470456545A3F10203E8D8FF
:104490004EB10468C4E72AB104F8021BC1F3072136
:1044A00051702246023B7BB10168CC6A14F0F00FD8
:1044B000F9D0DD07896B1446EDD512B104F8011B64
:1044C0002246013B002BEFD1BDE8F08179B311F812
:1044D000015B012B18BF45F00045656390F824701F
:1044E0005E1E9AE7C1F307251AB104F8025B51700A
:1044F0002246023B002BE7D00168CC6A14F0F00F93
:10450000F8D0DE07896B1446ECD512B104F8011B14
:104510002246013BEEE799B111F8015B012B18BF70
:1045200045F00045656390F824605F1E2DE790F824
:104530002470012B1ABF47F0004565636763CFE71E
:1045400090F82460012B1ABF46F00045656366634E
:10455000EBE700BF00041F8010B400248460C46037
:10456000046144618461C461046284848462C462BD
:1045700004634463C0E900125DF8044B704700BF58
:10458000436810B41C685A682168114302682160AE
:10459000164C17491460D160164C1749146111600C
:1045A000417A164A5C180C3194F82CC053F821401B
:1045B00002EBCC0149680C60017A5C1803EB8101C5
:1045C00094F818C0CC6902EBCC0149680C60817A80
:1045D0005DF8044B581803EB810390F84000596CC8
:1045E00002EBC00253681960704700BF01401F0012
:1045F000011000380110007800001F80944601006F
:104600000BB1FFF7B3BE704770B4026B4B4B12791E
:10461000DA77C26A12791A77026B12791A77826A8C
:104620002AB34368DB689A4244D9C46A016BD21A40
:10463000236882621D6800F12404A5424FF0010244
:104640005AD00468E56815F0804F1D682AD12D788E
:104650001E6845F0004501361E606563374B0979D9
:10466000D97612B1C26A1279DA7670BC70470168E5
:10467000334C436B0A63CC62CC6824F08044CC603A
:104680001C68304924684FF0030C8C4280F825C028
:104690003AD1197F5A600229DA603AD170BC9A681F
:1046A000184610472D881E6845F0004502361E60EA
:1046B0006563D3E7C36A1B68DC8B260402F1FF3114
:1046C00033D4C1F30E01D983DC8B016BA4B2DC823D
:1046D0000C68E58B2D0420D4C2F30E05E583E58B31
:1046E000ADB2E5821D680024013A846200F1240421
:1046F00018BF0122A542A4D10368DC6890F82440C9
:1047000044F000445C63A9E718461146234670BC98
:10471000184770BC184602F023BAE58BC2F30806AE
:1047200005F47E453543E583D9E7DC8BC1F3080109
:1047300004F47E442143D983C6E700BF00800040D3
:1047400000000FFF5543000008B50248FFF75CFF6B
:1047500008BD00BF2813FF1F08B50248FFF754FF2C
:1047600008BD00BF6013FF1F08B50248FFF74CFFEC
:1047700008BD00BF9813FF1F08B5084A084909483B
:10478000FFF7EAFE084A09490948FFF7E5FE094A2A
:1047900009490A48FFF7E0FE08BD00BF3C4401009C
:1047A00000C002402813FF1FD044010000D0024087
:1047B0006013FF1F6445010000C00A409813FF1FEB
:1047C00000207047C06938B1C269006947F6FF73BD
:1047D000101A984228BF1846704700BF10B504460B
:1047E000C06938B10023436001F09CFDE3695B6858
:1047F00003B910BD01236360002010BD10B504464D
:10480000C06982B080B101220DF1070101F0C2FA46
:1048100001280DD1E0699DF807400169013901F0D7
:1048200067FB204602B010BD0446204602B010BD12
:104830004FF0FF34F5E700BFC06908B101F088BB55
:10484000704700BFC06978B100B583B001220DF197
:10485000070101F09FFA01280CBF9DF807004FF0F7
:10486000FF3003B05DF804FB4FF0FF30704700BF2E
:1048700010B50368104A5B6882B093428DF8071048
:1048800013D10446C06958B10023436001220DF1E1
:10489000070101F047FDE3695B680BB902B010BD89
:1048A00001230020636002B010BD01220DF1070159
:1048B000984702B010BD00BFDD470000F8B54FF4C7
:1048C0007A73836000250C4B4560044605730360D2
:1048D00028200F46164604F0B7FDE06150B1394676
:1048E000282202F045FD0C22314604F10D0006F0AD
:1048F0003BFE65762046F8BD00460100002210B45C
:10490000054C04604FF47A715DF8044BC26142605B
:1049100081608281704700BF00460100704700BF80
:104920000D30704710B50446C06930B101F098F9F8
:10493000E06904F091FD0023E36110BDC06918B186
:10494000407A003818BF0120704700BF10B50D4BEA
:104950008AB00024CDE900340A46012301466846A6
:104960008DF8094001F05CFCA04218BF012402D17F
:1049700020460AB010BD684601F072F920460AB020
:1049800010BD00BF3846010030B5124B97B000246F
:104990000A46CDE90234CDE90C34019105460146C1
:1049A00001230CA88DF811408DF8394001F038FC36
:1049B000019A40B9294602A801F03EFC003818BF10
:1049C000012017B030BD0CA801F04AF9012017B042
:1049D00030BD00BF384601002DE9F0430B68C45CD0
:1049E0002F2C08BF013300EB030C08BFC45C02F19D
:1049F000FF3E03F10C09E04601E01CF8014F2F2CAB
:104A0000ACEB08071E46654608D03CB101334B4568
:104A10000EF8014FF1D11E46C5180C270024D455BD
:104A20002A782F2A04BF5E1C85190E60287800386A
:104A300018BF0120BDE8F0832DE9F04F9BB00024A2
:104A40009946214B07948DF8214011948DF84940E7
:104A500001948846834692460C460693109306AF0F
:104A600002AA01A95846FFF7B7FF80F001024B46A2
:104A7000D2B202A905462046D0472146012302AA08
:104A8000064688B1BDB1384601F0CAFB444505462B
:104A9000204606D001F0E4F845B123463C461F46C7
:104AA000DEE71DB110ACF8E7444506D100263046DC
:104AB0001BB0BDE8F08F4445F9D0204601F0D0F896
:104AC00030461BB0BDE8F08F3846010038B590F88D
:104AD000353004460D464BB9FE2D0CD02A46012137
:104AE000204600F09BFD78B9002038BD2C3001F045
:104AF000B7F8FE2DF2D1257000F03CFA054600F023
:104B000027FAA070002DEFD1251D0122214628464D
:104B100001F09CFF40B1294604F12C0001F012F98C
:104B2000003818BF012038BD02462146284601F052
:104B30008DFF0028D8D0EEE72DE9F04F9BB04FF065
:104B40000008DFF8E4B001930431814606A89246DC
:104B5000CDF81C808DF82180CDF844808DF84980F7
:104B6000CDF818B0CDF840B001F0ECF806AE5546DF
:104B700010AF2F21284606F04BFC03465C1B29464C
:104B800002A8E4B20BB32B782F2B1CD00C2C28BF1F
:104B90000C24224606F0E8FC04F168036B44384616
:104BA00003F8608C01F05CF83146012302AA384614
:104BB00001F036FB70B3304601F052F8334625441D
:104BC0003E461F46D5E70135D3E7019B318932695F
:104BD000307EA5EB0A051D607368C9F80430F368E0
:104BE000A9F80810C9F80C3006F11C017369C9F85E
:104BF0001020C9F814300EC989F818004846C9F8C1
:104C000000B0C9F81C10C9F82020C9F824301BB026
:104C1000BDE8F08FC9F8040089F809004846C9F8D2
:104C200000B01BB0BDE8F08F38460100F0B5A1B070
:104C300005461E4602A801AB1446FFF77DFF019A08
:104C4000A15C1444002933D09DF811302B4F0C97F0
:104C500000220D928DF839202BB92846FFF74EFE21
:104C6000284621B0F0BD3346224602A90CA801F027
:104C7000D7FA0028F1D002A800F0F2FF16F0060FD4
:104C800036D10D9B1098BDF83810ADF86010CDE905
:104C900016730F9B1993119B9DF848108DF8701097
:104CA000CDE91A03139B1D931498159B224616E019
:104CB0000398124B059ABDF810101992CDE91630E1
:104CC000DDE90603099AADF86010CDE91A03DDE9C4
:104CD0000A039DF820101D92094A8DF87010CDE945
:104CE0001E0316A92846FFF7E9FD284621B0F0BDAE
:104CF00013990CA801F0FCF8C3E700BF3846010087
:104D00001C4601008446034A084600230CF12C018E
:104D1000FFF792BE4D4900008446034A084600232F
:104D20000CF12C01FFF788BE89490000F0B506465A
:104D3000A1B00D461746E86904A901F0B5F80028AE
:104D40001BDD9DF81040C4B1E52CF4D02E2CF2D020
:104D50009DF81B4014F00804EDD104A80D948DF8C3
:104D600039406946174C0C9400F08AFFE9693B46CC
:104D70006A460CA801F054FA28B93046FFF7BEFD88
:104D8000304621B0F0BD0D9B1098BDF83810ADF83D
:104D90006010CDE916430F9B1993119B9DF84810A5
:104DA0008DF87010CDE91A03139B14981D93159B71
:104DB0006A46CDE91E0316A93046FFF77FFD30464F
:104DC00021B0F0BD38460100064B0749D9620022E8
:104DD00002209A70586083F824201A6383F83520E3
:104DE000704700BFD013FF1F38460100254B4FF41A
:104DF0007A7202FB00F0984230B53BD8224C082171
:104E000001239C465B001A01B4FBF2F2824201D9F5
:104E10000139F6D11C4AB2FBF3F290422ED24FEA8E
:104E20000C2E194C59000122B4FBF1FC84451546A7
:104E3000194402F101021AD9102AF5D14EF0F00CF2
:104E4000124AD36A23F00803D362D36A23F47F2380
:104E500023F47F6343EA0C0343F46023D362536A71
:104E60001B07FCD5D36A43F00803D36230BD4EEA7A
:104E7000051CE5E74FF0000E0123D2E74FEA0C2CAA
:104E8000DEE700BFDF707200000E270700100B4046
:104E90001F4A136B43F0800310B41363536AD9079E
:104EA000FCD4536A9B07F9D4D060194C19494FF0D0
:104EB000807200E02AB1236B0B4002F1FF32F9D07F
:104EC0004AB9134A136B012043F47023034313635D
:104ED0005DF8044B7047012BF3D1236B13F0800F67
:104EE000236B0AD113F480330CD1226B42F0010200
:104EF000184622635DF8044B704743F0011303200A
:104F00002363E5E7236B43F0011305202363DFE709
:104F100000100B4001000E0070B50B4D0B480B4EFE
:104F20000023AB60FFF7B4FF40F2E734034606E02E
:104F30004BB9AB60FFF7ACFF013C034603D06A6A94
:104F400052073046F4D470BD00100B400000DB0C5B
:104F5000074B1A784AB99A782AB15B78002B14BFAC
:104F6000032002207047012070470020704700BFD7
:104F70002814FF1FA249A348D1F8002842F040623C
:104F80002DE9F843C1F80028026B9F4B42F4003230
:104F9000026340F203119D4A1960002459609C602D
:104FA000D96019615961D36A43F0807343F40043B7
:104FB000D362D36ADC01FCD44FF4C870FFF716FF4C
:104FC000924A536A9807FCD18F4B904D40F243416F
:104FD0004FF488644FF48130196059609C60D96047
:104FE000196159615060936A894923F0380343F08D
:104FF00028039362136B136340F2DC545163EB6A32
:1050000043F00063EB62EB6A1901FCD4013CF6D17A
:105010002B6B43F080032B636B6ADA0349D57D4E1B
:1050200020463480B470AC63AC607460B460FFF749
:105030002FFF18B101203070BDE8F8834FF4D5730D
:105040002A697548AB60FFF723FF002839D005288F
:10505000F0D16E4D71480023AB60FFF719FF034696
:105060000028E7D12A696E48AB60FFF711FF0746B9
:105070000028DFD12B692B6913F4401F33D07378DC
:10508000DFF89881002B674B0CBF4FF4401999460D
:10509000AF604046FFF7FCFE0346013460482BB981
:1050A0002B69C5F80890FFF7F3FE90B10120BDE829
:1050B000F883584B022018809C705C609C60BDE8AF
:1050C000F8832B692B69B3F5D57FB3D101237370B6
:1050D000BFE72B692A69544B002AC0F288809C42A2
:1050E000D6D100237370494D50480023AB60FFF7C1
:1050F000CFFE034600289DD12A694D48AB60FFF7DB
:10510000C7FE002896D12B692C694A48240C240438
:10511000AC607460FFF7BCFE00288BD1AB691B0E3E
:10512000F370EB6913F4400F59D1AA69AB6969694F
:105130009B0203F4406343EA91536969C1F3C211CE
:10514000C2F3032201330231093A8B4093402F4FBF
:105150003948BC60B360FFF79BFE00287FF46AAF5C
:105160004FF400733A693548BB60FFF791FE0028A1
:105170007FF460AF73683A692848BB60FFF788FE28
:1051800000287FF457AF02233A692D48BB60FFF730
:105190007FFE044600287FF44DAF3B69BB6A1A4D81
:1051A00023F00603BB62BA6A40F2031342F0020224
:1051B000BA6246F2A8102B606B60AC60EB602B61AA
:1051C0006B61FFF713FE40F243434FF488622B609C
:1051D00020466B60AA60EB602B616B612CE70123BA
:1051E000B3706B69C3F3152301339B02AFE70E4B1A
:1051F0009C423FF476AF2B695B003FF574AF70E7DC
:1052000000D000400080044000D0044000100B405B
:10521000BB007F112814FF1F00001A0800001A3776
:105220000000022900003040A086010000000902B1
:1052300000001A030000090900001B0700001A10F3
:1052400000001A0638B5344B1A78002A59D15B7819
:10525000054603B94902314C31484FF6FF724FF40D
:1052600081332263A1606360FFF712FE002847D1FB
:10527000236905F5107105F14003226B42F020050A
:1052800012F4E00F25633ED1626A1205FCD5226A52
:1052900043F8402C226A43F83C2C226A43F8382C0D
:1052A000226A43F8342C226A43F8302C226A43F8ED
:1052B0002C2C226A43F8282C226A43F8242C226AD8
:1052C00043F8202C226A43F81C2C226A43F8182C3D
:1052D000226A43F8142C226A43F8102C226A43F8FD
:1052E0000C2C226A43F8082C226A43F8042C403321
:1052F0008B42C2D1094A136B9B07FCD5094B136340
:1053000038BD032038BD42F4E00242F0200222639F
:10531000FFF702FE0120EDE72814FF1F00100B40ED
:1053200010003A112200000138B5224B1A78002AE9
:1053300033D15B78054603B949021F4C1F48226BE5
:1053400022634FF48133A1606360FFF7A1FD18BBB6
:10535000236905F1400105F5107CA1F14003226BA2
:10536000D206FCD5226B12F4E00F18D153F8042BAF
:1053700022628B42FAD1236B43F010032363236B29
:1053800013F4E00F0BD140318C45E6D10A4A136B80
:105390009B07FCD50A4B136338BD032038BD236B34
:1053A00043F4E00343F010032363FFF7B5FD01204E
:1053B000ECE700BF2814FF1F00100B4000003A1854
:1053C000120000010D4A0E49D37A00200870A3B1E3
:1053D000D80704D54FF0E0219069C1F80001990782
:1053E00004D54FF0E021D069C1F804015B0704D572
:1053F0004FF0E023126AC3F8082170472813FF1FFB
:105400003814FF1F052822D8DFE800F00303091B2A
:105410000F15104A104B11481A60FFF7B1B80E4B28
:105420000F4A0E481A60FFF7ABB80B4B0D4A0B48FA
:105430001A60FFF7A5B8084B0B4A08481A60FFF737
:105440009FB8054B094A05481A60FFF799B8084A02
:10545000E0E700BF000001B83C14FF1F2813FF1F46
:1054600001100038010002380430003803200038F1
:1054700006500138224B1A781AB10078002102F048
:105480005DB970B41F4A2049D47A09684FF0010C05
:1054900083F800C01CB372B6D37ADD0708D54FF08D
:1054A000E025D668D5F880413440C5F88041946144
:1054B0009C0708D54FF0E0251669D5F884413440A3
:1054C000C5F88441D4615B0708D54FF0E0245569E5
:1054D000D4F888312B401362C4F8883162B613685F
:1054E000DA68914207D0094D094A1D6041F08044B5
:1054F000D9601C611A6070BC0078002102F01EB9EE
:105500003814FF1F2813FF1F3C14FF1F01403F00EA
:1055100000003F8070B41248124A036883B04FF015
:1055200000460093009DFF24136843F480631360DA
:10553000D6625463D36A002BFCDA936BDBB2FF2B89
:1055400009D003680193019B5B1B8B42ECD30020C5
:1055500003B070BC7047012003B070BC704700BF3F
:105560007016FF1F00C0024070B50E464FF49671D2
:1055700015460446FFF7CEFF274A136843F48063BD
:1055800013604FF00043D36246F040035363D36A85
:10559000002BFCDA20484FF0180C4FF00041026855
:1055A00025FA0CF342F48062DBB20260C16243630D
:1055B000C36A002BFCDAACF1080C1CF1080FEED129
:1055C0003EB3082E14BFFF208720134A13684FF004
:1055D000004143F480631360D1625063D36A002BAF
:1055E000FCDA0D4A00214FF00045FF20136843F418
:1055F00080631360D5625063D36A002BFCDA936B2F
:105600001E0603D50131B1F5807FEFD1D8B26070AD
:1056100070BD9520D9E700BF00C002402DE9F047DA
:10562000804600239E4D88F8002084B088F8023020
:105630002B68019310460F460121019E994C02F000
:105640007DF898F80000012102F0B0F898F8000009
:10565000012102F073F8944AD36B43F48053D3636F
:105660000620FFF7CFFE914B94F80BE01A68BEF1CD
:10567000000F1DD072B6E37AD90708D54FF0E02CA1
:10568000E068DCF880110140CCF88011A161980736
:1056900008D54FF0E02C2069DCF884110140CCF8EB
:1056A0008411E161590700F1B18062B694F80BE012
:1056B0002368D9688A4207D07D491960DA6042F0D0
:1056C00080421A617B4A1A607B4A4FF00A0C4FF005
:1056D0000040FF21136843F480631360D06251637C
:1056E000D36A002BFCDA0CF1FF3313F0FF0CF1D17D
:1056F000BEF1000F12D01EF0010F04D04FF0E023D6
:10570000A269C3F800211EF0020F04D04FF0E0237D
:10571000E269C3F804211EF0040F71D14046FFF77F
:10572000A9FE06E02B680293029B9B1BB3F5FA6F60
:105730005AD8002211464046FFF716FF01280446BA
:1057400088F80100EED14FF4D57208214046FFF7EA
:105750000BFF43072DD5A2464FF0000988F802A0A1
:1057600006E02B680393039B9B1BB3F5FA6F3BD8B2
:10577000372100224046FFF7F7FE4A4629214046DE
:10578000FFF7F2FE88F801000028EAD1BAF1020F13
:1057900052D098F80000012101F0D0FF474B1B7850
:1057A000002B79D13846FFF72DFE204604B0BDE826
:1057B000F087414A04214FF0004E4FF0FF0C136870
:1057C00043F480631360C2F82CE0C2F834C0D36A9B
:1057D000002BFCDA4B1E13F0FF01906BEFD1C0B22F
:1057E000AA2888F8010022D098F80000012101F0D1
:1057F000A5FF324B1C789CB9204604B0BDE8F08769
:105800004FF0E023226AC3F8082187E74FF0E02039
:105810006169D0F888310B40C0F88831236244E7D1
:10582000FFF7D0FD0024204604B0BDE8F0874FF01C
:1058300080494FF0020A91E702463A214046FFF7BD
:1058400093FE0028D0D11C4B1A6842F480621A6083
:105850004FF00042DA62FF225A63DA6A002AFCDA69
:105860009B6B154A03F0C003C02B04BF032388F8C9
:10587000023003214FF00045FF20136843F480639A
:105880001360D5625063D36A002BFCDA013911F042
:10589000FF01936BF1D17CE7FFF794FD82E700BF36
:1058A0007016FF1F2813FF1F008004403C14FF1FC9
:1058B00001403F0000003F8000C002403814FF1F3D
:1058C000F0B4174D174A2B6882B04FF00047009391
:1058D000DDF800C0FF26136843F480631360D762CD
:1058E0005663D36A002BFCDA936BDBB2FF2B0DD12E
:1058F0002C6801940199A1EB0C01B1F5967FEAD9CE
:1059000043700020019402B0F0BC70474370A3F1D3
:10591000FE00B0FA80F0400902B0F0BC704700BF52
:105920007016FF1F00C0024070B58378032B0E462F
:10593000044618BF4E021546FFF79CFD3246112162
:105940002046FFF711FE58B12078012101F0F6FE44
:105950002B4B187800B970BDFFF734FD002070BDE7
:105960002046FFF7ADFF0028EED02649264A274BF8
:105970000B6005F5FD764A6305F1020C4A6305F5F7
:10598000FE704A63CB6A13F0F00FFBD04A638B6B57
:105990000CF8013CC3F307230CF8023C0CF1020C99
:1059A0008445EFD105F500739E4211D2154905F2E9
:1059B0000225CB6A13F0F00FFBD08B6B0CF8013C87
:1059C000C3F307230CF8023C0CF1020CAC45F0D1F8
:1059D0000C4B0E490C4A19605A63DA6A12F0F00F48
:1059E000FBD020789B6B012101F0A8FE044B1B78B3
:1059F0000BB9012070BDFFF7E5FC012070BD00BFB1
:105A00003814FF1F00C00240FFFF009000041F80F9
:105A10002D4B10B51C6844F480641C604FF00044AA
:105A2000DC628646596302F5007CD96A0029FCDAFB
:105A30001968107841F480611960DC625863D96A92
:105A40000029FCDA19685078023241F4806162451D
:105A50001960DC625863E8D11B4BDA6A002AFCDA71
:105A60001A684FF0004142F480621A60FF20D96248
:105A700015495863CB6A002BFCDA0B684FF00042E3
:105A800043F480630B60FF20CA620F4A4863D36A05
:105A9000002BFCDA13684FF0004143F4806313607D
:105AA000FF20D16208495063CB6A002BFCDA8B6B74
:105AB000DBB203F01F00A0F105008EF80130B0FA50
:105AC00080F0400910BD00BF00C0024070B5044620
:105AD00071B18378032B0D4618BF4D021646FFF7B0
