:10000000F8FF022099010000B98600007586000003
:1000100075860000758600007586000075860000F4
:10002000758600007586000075860000B9860000A0
:10003000B9860000758600007D7B0000817B000092
:10004000B9860000B9860000B9860000B9860000B4
:10005000B9860000B9860000B9860000B9860000A4
:10006000B9860000B9860000B9860000B986000094
:10007000B9860000B9860000B9860000B986000084
:10008000B9860000B9860000B9860000B986000074
:10009000B9860000B9860000B9860000B986000064
:1000A000B9860000B9860000B9860000B986000054
:1000B000B9860000B9860000B9860000B986000044
:1000C000B9860000B9860000B9860000B986000034
:1000D000B9860000B9860000B9860000B986000024
:1000E000B9860000B9860000B9860000B986000014
:1000F000B9860000B9860000B9860000B986000004
:10010000B9860000B9860000B9860000B9860000F3
:10011000B98600008D8E0000B9860000B986000007
:10012000B9860000B9860000B9860000B9860000D3
:10013000B9860000B9860000B9860000B9860000C3
:10014000B9860000B9860000B9860000B9860000B3
:10015000B9860000B9860000B9860000B9860000A3
:10016000B9860000B9860000B9860000BD510000C4
:10017000C9510000CD510000D9510000DD510000EF
:10018000E1510000B9860000B9860000B986000080
:10019000B9860000B98600005A4B4CF2205210B5C7
:1001A000DA814DF62812DA8100BF00BF08F088FA24
:1001B000554B4FF030621A63544A9A63544ADA63DB
:1001C0004FF0E0234FF47002C3F8882D514A1369B1
:1001D00013F4807303D153614FF4A85313614E4B52
:1001E0009A78110703D59A7842F008029A704B4B1F
:1001F0004B482A221A704B4BDA1C121AC11E22F0ED
:100200000302994288BF0022474908F05FF9474B33
:100210004748DA1C121AC11E22F00302994288BF15
:10022000002200210CF03EFB424943484FF4CC72BF
:1002300008F04CF9414B424A802103F8011B9342DC
:10024000FBD14FF0E0233C4AC3F8082D3D4B8A22F6
:100250001A70A3F5805324225A70A0221A709A793A
:100260009207FCD59A79D406FCD4374B9A7902F0E0
:100270000C02082AFAD103221A7146225A719A797D
:100280009006FCD5304A93795906FCD51E4B4FF0A9
:10029000827159640921996420211170917901F0CA
:1002A0000C010C29FAD1294A5A604FF0E023284A60
:1002B0005A6100229A6107221A61264AC3F8202D4A
:1002C00062B608F0ADFA134B5B69DA0705D5224830
:1002D00008F09AFA214B224ADA61224B1B785B061E
:1002E00009D51E4C1E4BE2699A4204D11A4808F007
:1002F0008BFA0023E36108F0E9F90CF06DFE08F0D9
:10030000DDF8FEE70020054000800440823F040045
:100310000100002B00D0034000D0074000E0074060
:10032000F806FF1FC00EFF1F74D00100181BFF1F2F
:10033000C00EFF1F000000000002FF1F00E400E0ED
:1003400056E400E00050064000400640C0100500A2
:10035000BFD4010000002020A8E1E36400E00340D6
:10036000A5C3945A00F00740FFFFFFFFFFFFFFFF08
:10037000FFFFFFFFFFFFFFFFFFFFFFFFFFFFFFFF8D
:10038000FFFFFFFFFFFFFFFFFFFFFFFFFFFFFFFF7D
:10039000FFFFFFFFFFFFFFFFFFFFFFFFFFFFFFFF6D
:1003A000FFFFFFFFFFFFFFFFFFFFFFFFFFFFFFFF5D
:1003B000FFFFFFFFFFFFFFFFFFFFFFFFFFFFFFFF4D
:1003C000FFFFFFFFFFFFFFFFFFFFFFFFFFFFFFFF3D
:1003D000FFFFFFFFFFFFFFFFFFFFFFFFFFFFFFFF2D
:1003E000FFFFFFFFFFFFFFFFFFFFFFFFFFFFFFFF1D
:1003F000FFFFFFFFFFFFFFFFFFFFFFFFFFFFFFFF0D
:10040000FFFFFFFFFFFFFFFFFFFFFFFFDEF9FFFF23
:100410000548064B1B1AD90F01EBA301491002D066
:10042000034B03B118477047C00EFF1FC00EFF1FDC
:100430000000000008B5054B1BB105490548AFF3A6
:100440000080BDE80840FFF7E3BF00BF00000000E8
:10045000C00EFF1F6CD0010010B50446006A10B139
:1004600003685B68984704F1080007F071FD2046B7
:1004700010BD00BFF0B514468DB00E4600210546F4
:100480001F4607F0A1FD621E042A00F28C80DFE8FF
:1004900002F01E857B8003004549284607F0C0FD19
:1004A000337E08ACDBB9737E002B31D1B37E002BD9
:1004B00053D14049204607F087FD2146284607F0E2
:1004C00001FE204607F044FD28460DB0F0BD3A4934
:1004D000284607F0A5FD337E08AC002BE3D0394653
:1004E000204607F071FD354904A807F06DFD04A909
:1004F000204607F0FBFD0146284607F0E3FD04A86F
:1005000007F026FD204607F023FD737E002BCDD09B
:100510002B49684607F058FD694604A807F0FAFC25
:10052000129904A807F0F8FD24490746204607F071
:100530004BFD2146384607F0D9FD0146284607F015
:10054000C1FD204607F004FD04A807F001FD684640
:1005500007F0FEFCB37E002BABD01399204607F0CA
:1005600033FD164904A807F02FFD04A9204607F023
:10057000BDFD0146284607F0A5FD04A807F0E8FCEC
:10058000204607F0E5FC94E70E49284607F048FDB1
:1005900086E70D49284607F043FD81E70B492846C9
:1005A00007F03EFD7CE70A49284607F039FD77E76A
:1005B000CC54010098560100A4540100505601008B
:1005C000D8540100B8540100C0540100B0540100D7
:1005D000606501002DE9F04FA34BDFF8B8820022DF
:1005E0001A60D8F80050BFF35B8F15F00105A5B075
:1005F00000F0B2819D4C2368626A134340F06F8122
:100600009B48FE2105F0B0F9D8F80050BFF35B8F8E
:10061000002800F07D8115F0010500F03D81236880
:10062000626A134340F0DD8004F03AF9039004F06D
:100630001FF9029004F004F9029B8E49039A00907E
:1006400005A80BF03BFF04F02BF940F2BB73984276
:1006500040F3F980864805A905F0A2FA30B984482C
:1006600005A905F0A7FA002800F09883D8F80050F3
:10067000BFF35B8F15F0010500F093812368626A78
:10068000134340F0C7801CAD04F092F8039004F0CF
:10069000A7F8029004F0BCF8029B039A76490090F8
:1006A00008A80BF00BFF04F0FBF840F2BB73984274
:1006B00040F3D083D8F80060BFF35B8F16F00106DB
:1006C00014AF0DF17D0900F03E842368626A134384
:1006D00016D06A4B0193462300936449684B03226A
:1006E0002846FFF7C7FE2368022B00F3AD81206A7E
:1006F00018B1636A022B00F3D582284607F028FC64
:10070000D8F80060BFF35B8F16F0010600F0E083BD
:100710002368626A134316D0584B01934723009312
:100720005249574B03222846FFF7A4FE2368022BA9
:1007300000F31F82206A18B1636A022B00F3428221
:10074000284607F005FC4F4908AB05AA38460BF0D0
:10075000B5FED8F80060BFF35B8F16F0010600F01D
:1007600016842368626A134316D0444B01934923CD
:1007700000933E49424B03222846FFF77BFE236845
:10078000022B00F3CD81206A18B1636A022B00F3BB
:10079000CD82284607F0DCFB3548394605F000FAE3
:1007A000002840F03784384C314913233A46284614
:1007B00005F08AF91D9A1E9B6260A3600D229DF8C8
:1007C0007C302373A018494607F080FE239BE36129
:1007D000284604F0F1FF2D4B01221A7025B0BDE828
:1007E000F08F264A019220231CAD00931F49244B11
:1007F00003222846FFF73EFE2368022B00F39F8466
:10080000206A18B1636A022B00F3EE80284607F0D5
:100810009FFB09E7194B01931CAD33230093134948
:10082000174B03222846FFF725FE2368022B00F30F
:100830003481206A18B1636A022B00F3FB812846D9
:1008400007F086FB20E7124B93E803000B0C0590A2
:10085000ADF8181006488DF81A3005A905F0A0F972
:1008600000287FF403AFFAE60C10FF1FDC0EFF1F19
:100870003814FF1F60550100A8550100F054010015
:10088000E0540100F05501001C10FF1F3C10FF1F39
:100890006C550100D80EFF1F944807F045FF002853
:1008A0003FF4BDAE032323600A236360904991485F
:1008B00007F08AFB904BE361012363624FF0013143
:1008C0000223A1618D4A8E492562E36284F8285093
:1008D0008C4809F065F9854807F02CFF9FE68A4AA5
:1008E000019219231CAD00938649884B03222846A8
:1008F000FFF7C0FD2368022B00F3B283206A18B112
:10090000636A022B00F3C783284607F021FB77E6D2
:1009100015F0010500F0EF832368626A13433FF48A
:100920005DAF7949794B01911C221CAD009275494C
:1009300002222846FFF79EFD2368012B00F33E8428
:10094000206A18B1636A012B00F38784284607F0F8
:10095000FFFA25B0BDE8F08F404607F0E5FE694C90
:1009600000283FF448AE032323600A2363606049F4
:1009700004F1080007F028FB5F4BE3610123636289
:100980004FF001310223A1615C4A5D492562E362B7
:1009900084F82850204609F003F9404607F0CAFEC3
:1009A00029E6524807F0C0FE00283FF467AE032353
:1009B00023600A2363604E494E4807F005FB4FF061
:1009C0000133A3614C4BE3610123636202234B4A71
:1009D0004B492562E36284F828504A4809F0E0F860
:1009E000424807F0A7FE49E6036829465B69984735
:1009F000206A60B194F8283013B10368DB68984727
:100A0000E37E002B00F0F8830A23206A636003680A
:100A10003F499B699847206A00283FF4F7AE036876
:100A20003C499B699847206A00283FF4EFAE94F850
:100A3000283013B10368DB689847E37E002B3FF44E
:100A4000E5AE0A236360E1E6E069294607F0FAF8BB
:100A5000E37E0BB10A236360E0692F4903680D222E
:100A60005B6898472349E06907F0ECF8E66905A858
:100A70000CF0E6FA336802465B6805A930469847F1
:100A8000E0692449036801225B689847E37E002BF4
:100A90003FF42DAE0A23636029E6E069294607F09A
:100AA000D1F8E37E0BB10A236360E0691B49036858
:100AB00010225B6898470F49E06907F0C3F8E669C0
:100AC00005A80CF0BDFA336802465B6805A93046FC
:100AD0009847E0690F49036801225B689847E37E05
:100AE000002B3FF4A6AE0A236360A2E6D80EFF1FD8
:100AF00050560100E40EFF1F5407FF1FF806FF1FAA
:100B000059040000DC0EFF1FF0540100E054010006
:100B10004855010010550100D055010094550100C1
:100B2000E069294607F08EF8E37E0BB10A23636083
:100B3000E0697849036812225B6898477649E06962
:100B400007F080F8E66938460CF07AFA3368024616
:100B50005B68394630469847E0697049036801226E
:100B60005B689847E37E002B3FF40DAE0A23636079
:100B700009E6E069294607F065F8E37E0BB10A2330
:100B80006360E069664903680D225B6898476249C3
:100B9000E06907F057F8E66908A80CF051FA3368E5
:100BA00002465B6808A930469847E0695B490368DC
:100BB00001225B689847E37E002B3FF4BBAD0A231C
:100BC0006360B7E5036829465B699847206A50B1BE
:100BD00094F8283013B10368DB689847E37E002B54
:100BE00040F00C83206A03684D499B699847206A4E
:100BF000494903685B699847206A036808A99B69AB
:100C00009847206A00283FF49BAD036843499B69DD
:100C10009847206A00283FF493AD94F8283013B128
:100C20000368DB689847E37E002B3FF489AD0A2315
:100C3000636085E5036829465B699847206A50B17F
:100C400094F8283013B10368DB689847E37E002BE3
:100C500040F0DD82206A036832499B699847206A28
:100C60002D4903685B699847206A036805A99B6959
:100C70009847206A00283FF4E2AD036827499B6942
:100C80009847206A00283FF4DAAD94F8283013B171
:100C90000368DB689847E37E002B3FF4D0AD0A235E
:100CA0006360CCE5036829465B699847206A50B1C8
:100CB00094F8283013B10368DB689847E37E002B73
:100CC00040F09F82206A036817499B699847206A11
:100CD000114903685B699847206A036805A99B6905
:100CE0009847206A00283FF408AD03680B499B69C8
:100CF0009847206A00283FF400AD94F8283013B1DB
:100D00000368DB689847E37E002B3FF4F6AC0A23C8
:100D10006360F2E4F8550100E40EFF1F1055010076
:100D2000E055010094550100D055010003682946A3
:100D30005B699847206A50B194F8283013B1036872
:100D4000DB689847E37E002B40F05E82206A0368F0
:100D5000A1499B699847206AA04903685B69984745
:100D6000206A036839469B699847206A00283FF447
:100D700010AD03689A499B699847206A00283FF4A0
:100D800008AD94F8283013B10368DB689847E37E18
:100D9000002B3FF4FEAC0A236360FAE4D8F800505D
:100DA000BFF35B8F15F0010500F034822368626A9F
:100DB00013433FF413AD8B4A01922F231CAD0093D4
:100DC00089498A4B01222846FFF754FB2368002BF0
:100DD00000F3C582206A00283FF4B8AD636A002B97
:100DE0007FF7B4AD036829465B699847206A50B124
:100DF00094F8283013B10368DB689847E37E002B32
:100E000040F0D682206A036879499B699847206A36
:100E1000724903685B699847206A036805A99B6962
:100E20009847206A00283FF491AD03686C499B699C
:100E30009847206A00283FF489AD94F8283013B110
:100E40000368DB689847E37E002B3FF47FAD0A23FD
:100E500063607BE56749DFF8B8B1012305AA0CA8F8
:100E600014AF04F031FE384604F096FC4FF0000A4F
:100E70000DF17D0901220CA9284604F0A5FE1D9B59
:100E800015931E9B16930D229DF87C308DF85C30D7
:100E900049460DF15D0007F019FB239B1B93384673
:100EA00004F09AFC0646284604F086FC00233846E7
:100EB000002E31D01C9304F081FC2A4659460BF0D9
:100EC0001DFB0028D6D01C9B9A45B8BF9A46D1E797
:100ED000494807F029FC00283FF41AAC032323609B
:100EE0000A23636045493D4807F06EF8444BE361CF
:100EF0004FF00133A361012363620223414A424957
:100F0000266284F82860E362374808F049FE3A48D0
:100F100007F010FCFFF7FCBB0CA804F051FC3B49A8
:100F20000AF1010208A80BF0C9FA384604F044FCA3
:100F30000CA804F041FCD8F80060BFF35B8F16F0FA
:100F400001067FF4C2AB2C4807F0EEFB00283FF40B
:100F5000BCAB032323600A23636028491F4807F0C2
:100F600033F8274BE3614FF00133A3610123636240
:100F70000223244A2449266284F82860E3621A483E
:100F800008F00EFE1C4807F0D5FBFFF79EBB1A4881
:100F900007F0CAFB00283FF4E4AB032323600A23D5
:100FA000636016490D4807F00FF8154BE3614FF0E9
:100FB0000133A361012363620223124A12492662AC
:100FC00084F82860E362084808F0EAFD0A4807F060
:100FD000B1FBFFF7C6BB00BFF8550100E40EFF1FD1
:100FE00010550100F0540100DC0EFF1FE054010019
:100FF000745501003814FF1FD80EFF1F5056010012
:101000005407FF1FF806FF1F59040000C4550100D4
:10101000BC550100D8F80060BFF35B8F16F00106E5
:1010200000F0A9802368626A13433FF4BCAB984B7D
:1010300001934E2300939749974B01222846FFF7CF
:1010400019FA2368002B00F33D81206A18B1636A06
:10105000002B00F35281284606F07AFFFFF7A3BB6E
:10106000E069294606F0EEFDE37E0BB10A236360DA
:10107000E0698A49036814225B689847E0698849F7
:10108000036801225B689847E37E002B3FF436AC8F
:101090000A23636032E4036829465B699847206A43
:1010A00060B194F8283013B10368DB689847E37E99
:1010B000002B00F09F800A23206A63600368774951
:1010C0009B699847206A00283FF41EAC0368744966
:1010D0009B699847206A00283FF416AC94F82830A2
:1010E00013B10368DB689847E37E002B3FF40CAC38
:1010F0000A23636008E46B4807F016FB00283FF4FE
:101100000BAC032323600A2363606749674806F03A
:101110005BFF674BE361012363624FF00130022301
:10112000A061644A64492562E36284F82850594802
:1011300008F036FD5B4807F0FDFAFFF7EDBBE0690C
:10114000294606F07FFDE37E0BB10A236360E06968
:101150005A49036815225B689847E069504903685B
:1011600001225B689847E37E002B3FF449AB0A23DA
:101170006360FFF745BB4B4807F0D6FA00283FF401
:1011800051AF032323600A2363604749474806F0B1
:101190001BFF0223E362464BE3614FF00133A3617F
:1011A0000123444A4449266284F82860636239482E
:1011B00008F0F6FC3B4807F0BDFA33E7E069294642
:1011C00006F040FDE37E0BB10A236360E0693C4911
:1011D000036832225B689847E0693149036801225D
:1011E0005B689847E37E002B3FF4AAAB0A23636059
:1011F000FFF7A6BB206A61E7206A08E40A23636060
:10120000F0E40A2363605DE50A2363609EE50A2338
:1012100063601FE5234807F087FA00283FF4C6AD56
:10122000032323600A2363601F49204806F0CCFE95
:101230001F4BE361012363624FF001310223A1617F
:101240001C4A1D492562E36284F82850114808F0C1
:10125000A7FC144807F06EFAA8E5036829465B6905
:101260009847206A48B194F8283013B10368DB68C6
:101270009847E37E002B6ED1206A036810499B6972
:101280009847206A00287FF4D0ADFFF75FBB00BF0E
:10129000F0540100DC0EFF1FE0540100F85401007F
:1012A00010550100D80EFF1F50560100E40EFF1F1D
:1012B0005407FF1FF806FF1F59040000485501009E
:1012C00014550100E069294606F0BCFCE37E0BB131
:1012D0000A236360E0693849036824225B68984701
:1012E000E0693649036801225B689847E37E002B7A
:1012F0003FF4ABAE0A236360A7E6036829465B6947
:101300009847206A50B194F8283013B10368DB681D
:101310009847E37E0BB10A236360206A036826497D
:101320009B699847206A00283FF495AE03682349DB
:101330009B699847206A00283FF48DAE94F82830C6
:1013400013B10368DB689847E37E002B3FF483AE5C
:101350000A2363607FE60A23206A63608DE7E06901
:10136000294606F06FFCE37E0BB10A236360E06957
:10137000134903681C225B6898471249E06906F02C
:1013800061FCE66905A80BF05BFE336802465B680A
:1013900005A930469847E0690849036801225B685F
:1013A0009847E37E002B3FF415AD0A23636011E5F7
:1013B0000A23206A636026E50C56010010550100DF
:1013C00074550100E40EFF1F2DE9F0430E4687B06F
:1013D00014460546204F00F027FB2049B079002C29
:1013E00008BF39461E4C019110F0010F4FF001016A
:1013F0001C48009108BF204602903068039053ECCF
:10140000102B194928460BF059F8F37903B3DFF88C
:101410005C80DFF85C90F71D002417F8012F41462F
:1014200005A80BF04BF828460BF00AFE05A9284446
:101430000BF068FBF379591EA1424FF0020204F150
:10144000010403D0494607F041F8F3799C42E4DBFC
:1014500007B0BDE8F08300BF185901003456010001
:101460003C56010038560100405601005456010018
:101470005056010070B504460D460068616A01438C
:1014800086B014D09DB10A9901910093214613466C
:1014900002A82A46FEF7EEFF2368AB4209DA206A6B
:1014A00010B1636AAB4231DA02A806F051FD06B012
:1014B00070BDE06902A906F0C5FBE37E0BB10A230B
:1014C0006360E6690B980BF0BBFD33680B995B68B2
:1014D00002463046984704F10801E06906F0B2FB85
:1014E00062680C9BE06919680A2A46D0D2B20023D0
:1014F00006F0EEFBE0692449036801225B68984727
:10150000E37E002BCBD00A236360C8E7036802A9FF
:101510005B699847206A48B194F828301BB103688A
:10152000DB689847206AE37E002B29D103680B997A
:101530009B699847206A036804F108015B69984732
:10154000206A0C99036862685B6A09689847206A98
:101550000028A9D003680C499B699847206A002895
:10156000A2D094F8283013B10368DB689847E37E73
:10157000002B99D00A23636096E706F089FBB9E750
:101580000A236360D2E700BF1055010010B5084C74
:10159000204604F001F90749074A204608F000FBFD
:1015A000BDE81040054843F6982102F0B7BF00BFE0
:1015B0001C10FF1FB9570000F806FF1F1010FF1F77
:1015C000F0B58E4E307889B01421002868D0002004
:1015D00006F06EFCD0B18A480BF032FD8849024615
:1015E000884804F049F80546864806F059FB044649
:1015F00083480BF025FD831C601983422BD0824B5E
:101600000021012231701A7009B0F0BD7F4F3D6892
:10161000BFF35B8F15F001054FD07D4C2368626AE4
:101620001343D8D07B4A0192832304AD00937849B9
:10163000794B04222846FEF71DFF2368032B00F395
:101640004F81206A18B1636A032B00F37281284628
:1016500006F07EFCBFE7714C6B4A2368704801338B
:1016600000212360117002F069FF0028CCD0674E82
:101670003568BFF35B8F15F0010500F0998069496B
:10168000644B01910093644A6148029491230421C0
:10169000FFF7F0FE5B4809B0BDE8F04004F01AB86F
:1016A00006F006FC68B35E4802F048FF0028ABD0A5
:1016B00009B0BDE8F040FEF78DBF384607F034F8BA
:1016C000534C0028AAD0032323600A2363605649A1
:1016D00004F1080006F078FC4FF00133A361534B8E
:1016E000E361012363620223514A52492562E362A6
:1016F00084F82850204608F053FA384607F01AF8C4
:101700008CE7424E3568BFF35B8F15F0010500F0A2
:10171000C2803F4C2368626A1343C4D03D493E4BAC
:1017200001917B2204AD0092394902222846FEF73E
:10173000A1FE2368012B00F38580206A002833D0A6
:10174000636A012B30DD036829465B699847206A8C
:1017500050B194F8283013B10368DB689847E37EF2
:10176000002B40F02181206A036833499B69984728
:10177000206A324903685B699847206A20490368F8
:101780009B699847206A78B103682D499B699847FF
:10179000206A48B194F8283013B10368DB68984791
:1017A000E37E0BB10A236360284606F0D1FB7AE79B
:1017B000304606F0B9FF00283FF461AF144F1A49D4
:1017C00003233B600A237B6007F1080006F0FCFB63
:1017D0004FF00133BB61154BFB6101237B62022398
:1017E000134A14493D62FB6287F82850384608F0D6
:1017F000D7F9304606F09EFF41E700BF3C10FF1FBF
:101800000C0FFF1F1C10FF1F3D10FF1FD80EFF1FE6
:10181000DC0EFF1F5C560100E05401000C10FF1F9E
:101820001010FF1F80560100505601005407FF1F83
:10183000F806FF1F5904000064560100E40EFF1F64
:1018400010550100E069294606F0FCF9E37E0BB172
:101850000A236360E069564903680C225B68984775
:101860005449E06906F0EEF9E66953480BF0E8FBED
:10187000336851495B68024630469847E0694F49F2
:10188000036801225B689847E37E002B3FF455AF65
:101890000A23636051E7304606F046FF484C0028B3
:1018A0003FF438AF032323600A236360454904F102
:1018B000080006F089FB444BE361012363624FF0AB
:1018C00001310223A161414A41492562E36284F862
:1018D0002850204608F064F9304606F02BFF19E73F
:1018E000E069294606F0AEF9E37E0BB10A23636096
:1018F000E069384903680A225B6898472D49E06926
:1019000006F0A0F9E7692C480BF09AFB3B682A49DE
:101910005B68024638469847E06928490368012217
:101920005B689847E37E002B3FF48BAE0A2363602D
:1019300087E6036829465B699847206A48B194F8AE
:10194000283013B10368DB689847E37E002B27D16A
:10195000206A03681F499B699847206A15490368F4
:101960005B699847206A144903689B699847206A15
:1019700000283FF46CAE036810499B699847206AC1
:1019800000283FF464AE94F8283013B10368DB6894
:101990009847E37E002B3FF45AAE0A23636056E675
:1019A0000A23206A6360D4E70A23206A6360DBE6C7
:1019B00064560100E40EFF1F0C0FFF1F10550100BD
:1019C000DC0EFF1F505601005407FF1FF806FF1FD3
:1019D000590400007456010010B5C2B005AC0023D4
:1019E0002146F02206F0ACFB00F01EF8054A0294F6
:1019F0008DED000BFE21044809F086FCFFF7E0FDA9
:101A000042B010BD9C5601000C0FFF1F08B50346E5
:101A10000A4604481946FFF7D7FCBDE80840FFF71F
:101A2000CFBD00BF0C0FFF1F30B50D4B83B0D3E906
:101A3000000108F0D9FA0B4B1B680193044601988A
:101A40000D4608F085FA084B002208F025FC2246D6
:101A50002B4608F041F941EC100B03B030BD00BF3C
:101A60004010FF1FD816FF1F00408F40FFFFFFFFF1
:101A700030B5044683B00078002107F0EFF86078B5
:101A8000002107F0EBF8A078002107F0E7F8E078F4
:101A9000002107F0E3F86079012107F0DFF8A07971
:101AA000012107F0DBF8E079012107F0D7F80121E7
:101AB000207A07F0D3F86279174B53F832200125CA
:101AC00082F80051A27953F8322082F80051E2796D
:101AD00053F8322082F80051227A53F8323004F160
:101AE000680083F80051019001F0BEFD01989FED60
:101AF000061B9FED070B02F095FC0198294603B0E9
:101B0000BDE8304002F0D6BC0000000000F88F4075
:101B10000000000000000000B85D01002DE9F04366
:101B2000044687B0007806F01BFC80B2632848D9D1
:101B3000D4F8E030002B42DCB0F5967FC0F0048191
:101B4000B0F5FA7FC0F00281B0F52F7F34BF0426D4
:101B50000526E368B3422FD0DFF83082D8F8007052
:101B6000BFF35B8F17F0010700F0C9807A4DE26880
:101B7000052A96BF794B794B53F8227053F826808B
:101B80006A6A2B6888BF764F134314D0754B019354
:101B90002D2300937049744B032202A8FEF76AFCC0
:101BA0002B68022B12DC286A10B16B6A022B5ADCFC
:101BB00002A806F0CDF9E66007B0BDE8F083002684
:101BC000C7E70023C4F8E0300126C2E7E86902A9AC
:101BD00006F038F8EB7E002B40F0BA80E8696349E4
:101BE000036817225B6898476149E86906F02AF89C
:101BF000D5F81C905FB138460BF022FAD9F80030C6
:101C000002465B68484639469847D5F81C905849C3
:101C1000484606F017F8E8695649036802225B68EF
:101C200098475349E86906F00DF8D5F81C90B8F1CB
:101C3000000F0BD040460BF003FAD9F800300246F3
:101C40005B68484641469847D5F81C90D9F8003063
:101C500049495B68484601229847EB7E002BA2D099
:101C60000A236B609FE7036802A95B699847286AAB
:101C700050B195F8283013B10368DB689847EB7EC4
:101C80000BB10A236B60286A036838499B6998473F
:101C9000286A374903685B699847286A03683946A8
:101CA0009B699847286A324903685B699847286AA4
:101CB000304903689B699847286A2D4903685B6926
:101CC0009847286A036841469B699847286A002814
:101CD0003FF46EAF036828499B699847286A00283B
:101CE0003FF466AF95F8283013B10368DB68984776
:101CF000EB7E002B3FF45CAF0A236B6058E7404655
:101D000006F012FD144D00283FF431AF03232B6081
:101D10001A490A2305F108006B6006F055F9022301
:101D2000EB62174BEB614FF00133AB61154A16497B
:101D30002F620123284685F828706B6207F030FF78
:101D4000404606F0F7FC12E7022602E7032600E70A
:101D50000A236B6042E700BFDC0EFF1F4C590100F5
:101D6000AC560100CC560100B8560100E056010007
:101D7000E40EFF1F98580100105501005056010055
:101D80005407FF1FF806FF1F59040000D80EFF1F5D
:101D900038B5114D2B68BFF35B8FDB0704460CD5BC
:101DA0000E4805F041FE00B938BD0C4805F076FE3E
:101DB000003818BF0120207438BD284606F0B4FC56
:101DC0000028EDD061780548642205F017FE28460A
:101DD00006F0B0FCE4E700BF4C10FF1F6C10FF1FC3
:101DE00038B5154C2368BFF35B8FDB07054614D568
:101DF000124805F019FE00B938BD104805F050FE34
:101E00000028F9D006F066FF0D490E4B0A680860FD
:101E1000821AB3FBF2F3AB8438BD204606F084FC93
:101E20000028E5D0A9780548032205F0E7FD204603
:101E300006F080FCDCE700BF4810FF1F5410FF1FB6
:101E40006410FF1F5581F2072DE9F043C368032B8F
:101E500087B0044646D0042B3DD14FF42A7637464E
:101E6000E38CBB422FD0DFF8FC91D9F80030BFF3F0
:101E70005B8F13F0010800F0AC806E4D2B686A6A2E
:101E8000134320D064236C4A06FB03F303F2FF13D1
:101E900082FB03121A44DB17C3EB6228674B0193E2
:101EA000772300936349664B032202A8FEF7E2FA08
:101EB0002B68022B1ADC286A10B16B6A022B47DCF4
:101EC00002A806F045F8E079E784314607B0BDE89E
:101ED000F04306F007BD052B40F0A88040F2FF3626
:101EE0003746BDE74FF4CD763746B9E7E86902A932
:101EF00005F0A8FEEB7E002B40F09180E869514987
:101F000003681D225B6898474F49E86905F09AFE0F
:101F10006A68E8690A2A00F08580D2B20023414647
:101F200005F0D6FE4849E86905F08CFEE8694749A6
:101F3000036801225B689847E86945490368012204
:101F40005B689847EB7E002BB5D00A236B60B2E745
:101F5000036802A95B699847286A50B195F8283050
:101F600013B10368DB689847EB7E0BB10A236B6003
:101F7000286A036833499B699847286A324903688D
:101F80005B699847286A6A6803684146DB6A984734
:101F9000286A2D4903685B699847286A2B490368BA
:101FA0009B699847286A00288AD0036828499B695A
:101FB0009847286A002883D095F8283013B1036821
:101FC000DB689847EB7E002B3FF47AAF0A236B6007
:101FD00076E7484606F0A8FB164D00283FF44EAFC2
:101FE00003232B601B490A2305F108006B6005F0F1
:101FF000EBFF194BEB614FF00133AB6101236B62D7
:10200000164A1749C5F820800223284685F82880FB
:10201000EB6207F0C5FD484606F08CFB2EE70A236D
:102020006B606BE7414605F033FE7BE700263746E1
:1020300016E700BFDC0EFF1F03082080F8560100E2
:10204000B85601000C570100E40EFF1F2C57010089
:1020500010550100505601005407FF1FF806FF1FDE
:1020600059040000D80EFF1F2DE9F041D0F8E030F0
:102070008B4286B004460D4607D12046C4F8E05096
:1020800006B0BDE8F041FFF749BDDFF89881D8F808
:102090000070BFF35B8F17F0010700F08380554E8F
:1020A000726A102D96BF544B544F53F82570336805
:1020B0001343E2D0524B0193A02300934D49514B5F
:1020C000012202A8FEF7D6F93368002B08DC306A3B
:1020D00010B1736A002B30DC02A805F039FFCCE7A1
:1020E000F06902A905F0AEFDF37E002B7FD1F06907
:1020F0004549036824225B6898474449F06905F024
:10210000A1FDD6F81C805FB138460AF099FFD8F8D7
:10211000003002465B68404639469847D6F81C8036
:10212000D8F800303A495B68404601229847F37E70
:10213000002BCCD00A237360C9E7036802A95B694E
:102140009847306A50B196F8283013B10368DB68BD
:102150009847F37E0BB10A237360306A03682A49FB
:102160009B699847306A294903685B699847306AD8
:10217000036839469B699847306A0028ACD00368E9
:1021800023499B699847306A0028A5D096F82830E3
:1021900013B10368DB689847F37E002B9CD00A23B9
:1021A000736099E7404606F0BFFA124E00283FF4EC
:1021B00077AF0323336017490A2306F108007360E1
:1021C00005F002FF0223F362134BF3614FF001337A
:1021D000B361124A124937620123304686F82870EB
:1021E000736207F0DDFC404606F0A4FA58E70A23C4
:1021F00073607CE7DC0EFF1F64590100AC560100E0
:1022000030570100B856010038570100E40EFF1F97
:1022100010550100505601005407FF1FF806FF1F1C
:1022200059040000D80EFF1F38B54FF40063CB806F
:1022300090F919300B72038B4B72838C2A4A0C462F
:102240002A49A1FB0313DB08A372438A9B08E372AC
:10225000038DC3EBC3135B0003F2FF1340F2EE7177
:102260000546216082FB03011944DB17C3EB6123A0
:102270002373EB8CC3EBC3135B0003F2FF1382FBEE
:1022800003121A44DB17C3EB622300226373A273A9
:10229000287A06F0D5FC18B1A37B63F07F03A37303
:1022A000A87906F0CDFCA37B10B143F04003A373E3
:1022B000D5F8E020002AC4BF43F02003A3732A7C92
:1022C00012B143F01003A37395F8482012B143F004
:1022D0000803A373EA6802F007021343A373D5F857
:1022E000E030E37338BD00BF03082080CDCCCCCCF8
:1022F00070B504460D460068616A014386B014D08B
:102300009DB10A99019100932146134602A82A46DD
:10231000FEF7B0F82368AB4209DA206A10B1636AAD
:10232000AB4222DA02A805F013FE06B070BDE069E8
:1023300002A905F087FCE37E0BB10A236360E6691E
:102340000B980AF07DFE33680B995B6802463046B5
:102350009847E0691B49036801225B689847E37E60
:10236000002BDAD00A236360D7E7036802A95B6910
:102370009847206A40B194F828301BB10368DB68A5
:102380009847206AE37ECBB903680B999B6998470D
:10239000206A0028C6D003680A499B699847206ACA
:1023A0000028BFD094F8283013B10368DB68984741
:1023B000E37E002BB6D00A236360B3E70A23636091
:1023C000E2E700BF1055010070B504460D460068F5
:1023D000616A014386B014D09DB10A9901910093BE
:1023E0002146134602A82A46FEF744F82368AB426A
:1023F00009DA206A10B1636AAB423DDA02A805F03F
:10240000A7FD06B070BDE06902A905F01BFCE37EE4
:102410000BB10A236360E6690B980AF011FE33687A
:102420000B995B680246304604F10806984731462E
:10243000E06905F007FC0C9922790968E06900233E
:1024400005F046FC3146E06905F0FCFBE6690D98B5
:102450000AF0F6FD33680D995B68024630469847EE
:10246000E0692849036801225B689847E37E002BF6
:10247000BFD00A236360BCE7036802A95B69984781
:10248000206A48B194F828301BB10368DB6898478C
:10249000206AE37E002B31D103680B999B69984732
:1024A000206A036804F108055B6929469847206A99
:1024B0000C99036862681B6B09689847206A036877
:1024C00029465B699847206A0D9903689B6998477C
:1024D000206A002892D003680A499B699847206ABD
:1024E00000288BD094F8283013B10368DB68984734
:1024F000E37E002B82D00A2363607FE70A236360B8
:10250000CAE700BF105501002DE9F043C368012B55
:1025100004468BB0807943DD06F092FB984F994ECC
:1025200080B13B680693069B3168A28C5B1AB2F5BA
:10253000967F049303D841F2873293423AD80BB086
:10254000BDE8F0833B680593DFF84892059BA079CE
:102550003360012106F04AFBD9F80030BFF35B8FEE
:1025600013F0010854D0884D2B686A6A1343D8D001
:10257000864B0193652300938349854B032206A86C
:10258000FDF778FF2B68022B00F38B80286A18B1C7
:102590006B6A022B00F3A08006A805F0D9FCC0E707
:1025A00006F04EFB08BBA07900210BB0BDE8F0435C
:1025B00006F01CBB774E3568BFF35B8F15F0010545
:1025C0004BD0754D714B754A039204AE8DE868008F
:1025D0006D486F4A01216B23FFF7F6FE022120466A
:1025E0000BB0BDE8F043FFF73FBD6A4E3568BFF35F
:1025F0005B8F15F0010500F09D806949634B0191E7
:102600000093634A60485C230321FFF771FECAE729
:10261000484606F089F85C4D0028A5D003232B60BE
:102620000A236B605F4905F1080005F0CDFC5E4BA5
:10263000EB614FF00133AB6101236B6202235B4A14
:102640005B49C5F8208085F82880EB62284607F0B2
:10265000A7FA484606F06EF886E7304606F064F8BA
:102660000028AED0484F4F4903233B600A237B60CC
:1026700007F1080005F0A8FC4FF00133BB614A4B9D
:10268000FB6101237B620223484A49493D62FB62A8
:1026900087F82850384607F083FA304606F04AF8A3
:1026A0008FE7E86906A905F0CDFAEB7E0BB10A23A6
:1026B0006B60E8693F49036815225B689847E869E1
:1026C0003D49036801225B689847EB7E002B3FF48D
:1026D0005DAF0A236B6059E7036806A95B699847F9
:1026E000286A50B195F8283013B10368DB68984721
:1026F000EB7E0BB10A236B60286A03682D499B6946
:102700009847286A00283FF447AF03682A499B6925
:102710009847286A00283FF43FAF95F8283013B156
:102720000368DB689847EB7E002B3FF435AF0A2344
:102730006B6031E7304605F0F7FF00283FF45DAFEE
:10274000114F184903233B600A237B6007F10800FF
:1027500005F03AFC4FF00133BB61134BFB610123E1
:102760007B620223114A12493D62FB6287F82850BE
:10277000384607F015FA304605F0DCFF3DE700BFAC
:10278000D816FF1F6810FF1FDC0EFF1F78570100CF
:10279000B8560100D80EFF1FC8570100A05701000E
:1027A00060570100505601005407FF1FF806FF1F35
:1027B000590400008857010010550100F0B5044687
:1027C0000D460068616A014387B014D09DB10C9931
:1027D000019100932146134602A82A46FDF74AFEBE
:1027E0002368AB4209DA206A10B1636AAB4264DA4B
:1027F00002A805F0ADFB07B0F0BDE06902A905F045
:1028000021FAE37E0BB10A236360E6690D980AF0B2
:1028100017FC33680D995B680246304604F10806E0
:1028200098473146E06905F00DFA0E9B94F82C109C
:10283000E06993ED000B05F057FA3146E06905F0C9
:1028400001FAE7690F980AF0FBFB3B680F995B6898
:102850000246384698473146E06905F0F3F9109B87
:1028600094F82C10E06993ED000B05F03DFA314629
:10287000E06905F0E7F9E76911980AF0E1FB3B68C8
:1028800011995B680246384698473146E06905F081
:10289000D9F9129B94F82C10E06993ED000B05F028
:1028A00023FAE0693B49036801225B689847E37EAD
:1028B000002B98D00A23636095E7036802A95B693F
:1028C0009847206A48B194F828301BB10368DB6848
:1028D0009847206AE37E002B59D103680D999B69C4
:1028E0009847206A036804F108055B692946984700
:1028F0000E9B206AE16A93ED000B03685B6B9847BF
:10290000206A036829465B699847206A0F99036823
:102910009B699847206A036829465B699847109B22
:10292000206AE16A93ED000B03685B6B9847206AAD
:10293000036829465B699847206A119903689B6977
:102940009847206A036829465B699847129B206A6A
:10295000E16A93ED000B03685B6B9847206A0028DF
:102960003FF446AF03680B499B699847206A0028EB
:102970003FF43EAF94F8283013B10368DB68984702
:10298000E37E002B3FF434AF0A23636030E70A2371
:102990006360A2E7105501002DE9F0432DED028B95
:1029A00090ED058A04468DB018EE100A07F0F2FA91
:1029B000F0EE087AB4EEE78AF1EE10FAC4E90C0101
:1029C00026D894F84830002B00F08F80F1EE0C7A76
:1029D000B4EEE78AF1EE10FA80F2B780E368012BDB
:1029E00002DD94F8483013B3238D00273E46B342EE
:1029F00047D16079268539460DB0BDEC028BBDE824
:102A0000F04305F06FBF484605F0A2FA94ED058A41
:102A1000F1EE0C7AB4EEE78AF1EE10FADEDB94F810
:102A20004830002B40F09180E368012BDCDDDFF8BB
:102A30009C82D4E90E0107F0B5FDD8F80070BFF311
:102A40005B8F17F0010786B200F05081984B059319
:102A500004F1380004F140039649974A0690049324
:102A600004F13000954B0290039101920093944A37
:102A7000944894230421FFF7A1FE238DB3423746E7
:102A8000B7D0DFF84892D9F80030BFF35B8F13F06E
:102A9000010800F0E7808B4D2B686A6A1343A8D0C9
:102AA0006423894A07FB03F303F2FF1382FB03123B
:102AB0001A44DB17C3EB6228804B01930DF1200908
:102AC000972300937F497E4B03224846FDF7D2FCB3
:102AD0002B68022B64DC286A18B16B6A022B00F3A6
:102AE0008880484605F034FA83E74FF00108774FB5
:102AF00084F848803E68BFF35B8F16EA080600F052
:102B00001A81704D2B686A6A13433FF47FAF6B4A9A
:102B1000019288230DF1200900936A49684B022233
:102B20004846FDF7A7FC2B68012B00F3DC81286ADF
:102B300000283FF468AF6B6A012B00F377814846A9
:102B400005F006FA94ED058A62E7604F002384F8E9
:102B500048303E68BFF35B8F16F0010600F010812D
:102B6000584D2B686A6A13433FF438AF534A0192B9
:102B70008C230DF1200900935249514B0322484602
:102B8000FDF778FC2B68022B00F39281286A18B1BC
:102B90006B6A022B00F31C81484605F0D9F91DE74A
:102BA000E869494605F04EF8EB7E002B40F00D81B8
:102BB000E869474903681A225B6898474549E8690C
:102BC00005F040F86A68E8690A2A00F06D81D2B21F
:102BD0000023414605F07CF8E8693F49036801227B
:102BE0005B689847EB7E002B3FF475AF0A236B6060
:102BF00071E7036849465B699847286A50B195F8C0
:102C0000283013B10368DB689847EB7E0BB10A23C9
:102C10006B60286A03682E499B699847286A2D498A
:102C200003685B699847286A6A6803684146DB6AFB
:102C30009847286A00283FF454AF036826499B69E7
:102C40009847286A00283FF44CAF95F8283013B114
:102C50000368DB689847EB7E002B3FF442AF0A2302
:102C60006B603EE7484605F05FFD164D00283FF4D7
:102C700013AF03232B6019490A2305F108006B6089
:102C800005F0A2F9164BEB614FF00133AB61012364
:102C90006B62144A1449C5F820800223284685F83F
:102CA0002880EB6206F07CFF484605F043FDF3E622
:102CB000485801005858010068580100D8570100D1
:102CC000B8560100DC0EFF1F03082080D80EFF1F3E
:102CD00080580100E40EFF1F1055010050560100FE
:102CE0005407FF1FF806FF1F59040000404605F077
:102CF0001BFD00283FF4AAAE944D954903232B6099
:102D000005F108000A236B6005F05EF90223EB620F
:102D1000904BEB614FF00133AB618F4A8F492F62CB
:102D20000123284685F828706B6206F039FF40467B
:102D300005F000FD8AE6384605F0F6FC834D0028D4
:102D40003FF4E0AE03232B6081490A2305F108001C
:102D50006B6005F039F90223EB627E4BEB617E4A32
:102D60007E49C5F824804FF0013328462E6285F84D
:102D70002860AB6106F014FF384605F0DBFCC1E6C5
:102D8000384605F0D1FC714D00283FF4EAAE03232C
:102D90002B606F490A2305F108006B6005F014F9F8
:102DA0004FF00133AB616B4BEB6101236B626A4AFD
:102DB0006A492E6202232846EB6285F8286006F0F5
:102DC000EFFE384605F0B6FCCBE60A236B60EFE673
:102DD000036849465B699847286A50B195F82830DE
:102DE00013B10368DB689847EB7E002B40F0A980A5
:102DF000286A03685A499B699847286A00283FF463
:102E0000CBAE036857499B699847286A00283FF46E
:102E1000C3AE95F8283013B10368DB689847EB7EA2
:102E2000002B3FF4B9AE0A236B60B5E60368494650
:102E30005B699847286A48B195F8283013B1036850
:102E4000DB689847EB7E002B77D1286A03684649F8
:102E50009B699847286A454903685B6998472E6AC9
:102E60006069EF6A07F096F8336841EC100B5B6B12
:102E7000394630469847286A00283FF460AE036818
:102E800038499B699847286A00283FF458AE95F85E
:102E9000283013B10368DB689847EB7E002B3FF4C2
:102EA0004EAE0A236B604AE6414604F0F1FE93E61B
:102EB000E869494604F0C6FEEB7E0BB10A236B605D
:102EC000E8692749036823225B689847E869254930
:102ED000036801225B689847EB7E002B3FF456AEF7
:102EE0000A236B6052E6E869494604F0ABFEEB7ECC
:102EF0000BB10A236B60E8691B4903683A225B68DF
:102F000098471A49E86904F09DFE606995F82C60BD
:102F100007F040F841EC100B3146E86904F0E4FE9C
:102F2000E8691049036801225B689847EB7E002B33
:102F30003FF4FDAD0A236B60F9E50A23286A6B6054
:102F400084E70A23286A6B6053E700BFDC0EFF1F8B
:102F5000505601005407FF1FF806FF1F59040000D8
:102F60002458010010550100E8570100E40EFF1F2E
:102F700038B5374D2B68BFF35B8FDB07044609D5A7
:102F8000344801F0DBFAB0B904F16800BDE838401C
:102F900001F086B9284605F0C7FB0028F0D00A21C9
:102FA0002C4801F0BBFA284605F0C4FB294801F083
:102FB000C5FA0028E8D02046FEF7B0FDE07805F01D
:102FC000CFF940F29A339842A8BF18466628B8BF96
:102FD0006620A0F166034FF4137202FB03F31E4A4E
:102FE00003F5CD73A2FB03231B0A653363822046DE
:102FF000FEF7F6FE2046FEF7CBFE237C1BB32079BE
:1030000004F1140100F0D4FB94F82230B3B9E16864
:10301000207A0129D4BF0021012105F0E7FD2046D7
:10302000FFF772FA2046FFF7B7FC2046FEF70CFFC9
:1030300004F16800BDE8384001F032B904212046AF
:10304000FFF712F8E3E701212046FFF70DF8D6E776
:103050005010FF1F7C10FF1FFF04EC4F08B501212B
:10306000152005F0FBFDBDE808400121172005F003
:10307000F5BD00BF10B51C4801F060FA00B910BDE5
:10308000172005F0DDFD194CB0FA80F14909172031
:1030900005F0ACFD2278D30720D4154BA3FB021317
:1030A000D11A03EB51031B0903EB4303C3EBC30327
:1030B000D21AC2F34602072A10D80E4B1B781341CE
:1030C00013F0010F0C4B4FF0400214BFC3F8C420A3
:1030D000C3F8C82023780133237010BD00211520C8
:1030E00005F084FDF6E700BF8810FF1F9410FF1F56
:1030F00087611886FC06FF1F00F00F40014B18780F
:10310000704700BFFC06FF1F02484FF4967101F0A4
:1031100005BA00BF8810FF1F2DE9F0430A2087B0D1
:10312000614D624C624FDFF8C49105F0E3F86148ED
:10313000FEF79EFCFFF792FF2E6840F2EE2806F0A5
:103140007DFC237803B33B78D9071DD52B68D9F8CC
:1031500000209B1A0E2B17D90023574E574A584967
:103160005848009301F004FDFDF734FA3568BFF3C9
:103170005B8F15F001052CD0534C2368626A134312
:103180000FD107B0BDE8F0832B6822789B1B2AB1D2
:10319000B3F5FA6FE0D806F051FCD0E74345FAD911
:1031A000DAE74A494A4B01912C2200924649032210
:1031B00002A8FDF75FF92368022B2EDC206A10B10C
:1031C000636A022B43DC02A804F0C2FE07B0BDE82C
:1031D000F083304605F0A8FA3B4C0028CDD00323FD
:1031E00023600A2363603B4904F1080004F0ECFE0D
:1031F000394BE361012363624FF001310223A16186
:10320000364A37492562E36284F82850204606F0A2
:10321000C7FC304605F08EFAAFE7E06902A904F07A
:1032200011FDE37E0BB10A236360E0692D49036859
:103230000E225B689847E0692B49036801225B68AE
:103240009847E37E002BB9D00A236360B6E7036892
:1032500002A95B699847206A50B194F8283013B1ED
:103260000368DB689847E37EE3B10A23206A636062
:1032700003681C499B699847206A0028A3D003680B
:1032800019499B699847206A00289CD094F82830F7
:1032900013B10368DB689847E37E002B93D00A23C1
:1032A000636090E7206AE3E7D816FF1FB817FF1F97
:1032B000DC17FF1FB810FF1FD80EFF1F8813FF1F5A
:1032C00020A10700EC11FF1FDC0EFF1FF0540100CE
:1032D000AC590100505601005407FF1FF806FF1FAC
:1032E00059040000B859010010550100E017FF1FF4
:1032F0002DE9F04192B005F0EDFC924B924A1D6829
:10330000106018600446FFF7B5FE9048FFF730FEE6
:103310008F4801F013F930B98E4801F00FF998B9D0
:1033200012B0BDE8F0818C498848FEF77DFF8A49DC
:103330008A4801F067FD88480021FEF767FB854851
:1033400001F0FCF80028EBD08549864EDFF840827A
:10335000641B06A804F038FE0A22214602A804F0E5
:1033600047FE02A906A804F0C1FE7F4904F0C6FE8C
:103370000746FFF7C3FE7D4905460AA804F024FE70
:10338000C5F3071305F00F05F15C0AA804F09EFED3
:10339000715D0AA804F09AFE0AA9384604F0A6FE58
:1033A00001460EA804F0B6FD0EA8FEF715FB0EA808
:1033B00004F0CEFD0AA804F0CBFD02A804F0C8FD7D
:1033C00006A804F0C5FDD8F80070BFF35B8F17F0B6
:1033D00001074FD0664D624906A804F0F5FD0A22A8
:1033E000214602A804F004FE02A906A804F07EFE0D
:1033F0005D4904F083FE0746FFF780FE5B49044603
:103400000AA804F0E1FDC4F3071304F00F04F15C13
:103410000AA804F05BFE315D0AA804F057FE0AA971
:10342000384604F063FE2B686A6A134304460BD1E6
:103430000AA804F08DFD02A804F08AFD06A804F095
:1034400087FD12B0BDE8F0814A4B019353230093EE
:103450004749494B03220EA8FDF70CF82B68022BB5
:103460002CDC286A10B16B6A022B3FDC0EA804F03A
:103470006FFDDDE7404605F057F93D4D0028AAD025
:1034800003232B600A236B603C4905F1080004F01C
:103490009BFD3B4BEB614FF00133AB6101236B6252
:1034A0000223384A38492F6285F82870EB62284693
:1034B00006F076FB404605F03DF98CE7E8690EA979
:1034C00004F0C0FBEB7E0BB10A236B602146E86978
:1034D00004F0B8FBE8692D49036801225B6898474E
:1034E000EB7E002BBDD00A236B60BAE703680EA900
:1034F0005B699847286A50B195F8283013B1036882
:10350000DB689847EB7E0BB10A236B60286A03687F
:1035100021465B699847286A0028A7D003681B49A1
:103520009B699847286A0028A0D095F8283013B1E5
:103530000368DB689847EB7E002B97D00A236B600B
:1035400094E700BFB011FF1FA011FF1FB810FF1FAD
:10355000A810FF1FB411FF1F9810FF1FEC11FF1FD1
:10356000C8590100F0590100D4590100E459010083
:10357000DC0EFF1FE8590100AC5901005056010054
:103580005407FF1FF806FF1F5904000010550100E3
:10359000D80EFF1FFFFFFFFF30B542F2107183B05E
:1035A0002B482C4C00F0BAFF4FF4FA712A4800F077
:1035B000B5FF0121294800F0B1FF9FED1F7B9FED72
:1035C000205BB0EE471AF0EE671A9FED1F6BB0EE6E
:1035D000450AF0EE650A224820602248606000211A
:1035E0000022002301254FF48F70C4E90C23B0EEB4
:1035F000462AF0EE662AC4E90E23C4E9020104F16A
:10360000400321616162A162A164009504F1380266
:1036100004F1300104F1680084ED107B84ED145B4B
:1036200084ED167B84ED186B00F0AEFD1023C4F81A
:10363000E03003B030BD00BF0000000000001440C7
:103640000000000000000040000000000000F03F0B
:10365000B411FF1FB810FF1FA810FF1FA411FF1FF8
:10366000212223240E05061D08B50A4801F0D6FEC6
:1036700001210E2005F0F2FA01210E2005F0B6FA24
:1036800001210F2005F0EAFABDE8084001210F20D2
:1036900005F0ACBA9013FF1F70B504460D460068E4
:1036A000616A014386B014D09DB10A9901910093DB
:1036B0002146134602A82A46FCF7DCFE2368AB42EB
:1036C00009DA206A10B1636AAB4231DA02A804F069
:1036D0003FFC06B070BDE06902A904F0B3FAE37ED6
:1036E0000BB10A236360E6690B9809F0A9FC336803
:1036F0000B995B6802463046984704F10801E0697F
:1037000004F0A0FA62680C9BE06919680A2A46D0A6
:10371000D2B2002304F0DCFAE069244903680122F4
:103720005B689847E37E002BCBD00A236360C8E731
:10373000036802A95B699847206A48B194F8283069
:103740001BB10368DB689847206AE37E002B29D110
:1037500003680B999B699847206A036804F1080184
:103760005B699847206A0C99036862685B6A09681C
:103770009847206A0028A9D003680C499B6998479C
:10378000206A0028A2D094F8283013B10368DB68BF
:103790009847E37E002B99D00A23636096E704F0F4
:1037A00077FAB9E70A236360D2E700BF105501003A
:1037B0002DE9F047A54CA64AE37A12688EB08846F8
:1037C0000590DBB172B6E37AD90708D54FF0E02057
:1037D000E568D0F880112940C0F88011A1619F07E9
:1037E00008D54FF0E0202569D0F884112940C0F8B1
:1037F0008411E1615E0700F1C58062B62368D96873
:10380000914207D093491960DA6042F08041924AB0
:1038100019611A609DF81470904E914A56F837302D
:103820008A48012583F800511146042301F036FE31
:1038300056F83720E37A82F88050A3B1DD0704D52B
:103840004FF0E022A169C2F80011980704D54FF0AB
:10385000E022E169C2F80411590704D54FF0E023D2
:10386000226AC3F80821DFF81092D9F80050BFF39C
:103870005B8F15F0010500F01A817A4C7A49784E79
:103880007A4F06A804F0A0FB354606F1040A2B780F
:103890001B0906A8F95C04F019FC15F8013B03F0BC
:1038A0000F0306A8F95C04F011FCAA45EFD12368C8
:1038B000626A134340F0E28006A804F049FB3378C3
:1038C0007278980100F4FE5040EA92001B0644BF53
:1038D000404200B2A8F8040006F04AFB41EC100B8D
:1038E0006FF0030006F064F951EC100B06F07AFE5D
:1038F000C8F80000D9F80050BFF35B8F15F0010540
:1039000000F01D812368626A134340F08580B3781C
:10391000F278180100F4FE6040EA12101F0644BF5E
:10392000404200B2A8F80C0006F022FB41EC100B5C
:103930006FF0010006F03CF951EC100B06F052FE5E
:10394000C8F80800D9F80050BFF35B8F15F00105E7
:1039500000F0D2802368626A13431DD17378DB07BD
:1039600035D4F37803F0070288F80E205A0700F1E7
:1039700036819D0700F11D81D90700F103810EB04A
:10398000BDE8F0874FF0E0216069D1F8883103404D
:103990002362C1F8883130E7354B01930AAD2C23FF
:1039A00000933049334B05222846FCF763FD23681A
:1039B000042B00F3B381206A18B1636A042B00F36F
:1039C0007382284604F0C4FA7378DB07C9D5D9F8A6
:1039D0000050BFF35B8F15F0010500F0DC82236817
:1039E000626A1343BDD0224B01930AAD2E2300938C
:1039F0001C49204B02222846FCF73CFD2368012B82
:103A000000F33B83206A18B1636A012B00F36983DA
:103A1000284604F09DFAA4E7154B01930AAD27232D
:103A200000931049134B05222846FCF723FD236819
:103A3000042B00F31B81206A18B1636A042B00F386
:103A4000E981284604F084FA61E700BF9013FF1F64
:103A5000C011FF1F01403F0000003F80B85D010022
:103A6000C411FF1FDC0EFF1FE4590100F85A0100CA
:103A70001C5A0100085A0100D80EFF1F984B0193F1
:103A80000AAD222300939749974B05222846FCF75D
:103A9000F1FC2368042B00F3B880206A18B1636A34
:103AA000042B00F37481284604F052FA04E74846D8
:103AB00004F03AFE8B4C00283FF4E0AE0323236071
:103AC0000A236360894904F1080004F07DFA4FF08D
:103AD0000133A361864BE361012363620223854ABC
:103AE00085492562E36284F82850204606F058F89C
:103AF000484604F01FFEC1E6804804F015FE002889
:103B00003FF428AF032323600A23636077497C488E
:103B100004F05AFA0223E362754BE3614FF001337C
:103B2000A3610123734A7449256284F828506362B3
:103B30006C4806F035F8714804F0FCFD0AE76F4860
:103B400004F0F2FD00283FF4DDAE032323600A23D6
:103B5000636066496A4804F037FA0223E362644B03
:103B6000E3614FF00133A3610123624A6249256298
:103B700084F8285063625B4806F012F85F4804F04E
:103B8000D9FDBFE6D9F80050BFF35B8F15F00105F2
:103B900000F0DE8105A85B49514B02900191009332
:103BA000514A50483D230221FFF776FD0EB0BDE893
:103BB000F087D9F80050BFF35B8F15F0010500F0D6
:103BC0003082514A464B019205A902910093464A20
:103BD000444838230221FFF75FFDF378CCE6D9F89B
:103BE0000050BFF35B8F15F0010500F0F781474AE5
:103BF0003B4B019205A9029100933B4A394833237C
:103C00000221FFF749FDF378B3E6E069294604F0A5
:103C100019F8E37E0BB10A236360E0693C4903684D
:103C20000F225B6898473649E06904F00BF8626838
:103C30000599E0690A2A00F01782D2B2002304F045
:103C400047F82F49E06903F0FDFF06A9E06903F09A
:103C5000F9FFE0692F49036801225B689847E37E1A
:103C6000002B3FF41AAF0A23636016E7E069294688
:103C700003F0E8FFE37E0BB10A236360E0692649A5
:103C800003681E225B6898471D49E06903F0DAFF6C
:103C900062680599E0690A2A00F0E981D2B200233E
:103CA00004F016F81649E06903F0CCFFD8F80000DC
:103CB00094F82C7006F06EF941EC100B3946E0696F
:103CC00004F012F8E0691349036801225B68984721
:103CD000E37E002B3FF4AFAE0A236360ABE600BF88
:103CE0001C5A0100DC0EFF1F085A0100505601004B
:103CF0005407FF1FF806FF1F59040000D80EFF1FCE
:103D0000E40EFF1FD45A0100B05A01008C5A010082
:103D1000285A010010550100385A0100E06929466F
:103D200003F090FFE37E0BB10A236360E0698349EF
:103D3000036819225B6898478149E06903F082FFB4
:103D400062680599E0690A2A00F09481D2B20023E2
:103D500003F0BEFF7A49E06903F074FFD8F8080069
:103D600094F82C7006F016F941EC100B3946E06916
:103D700003F0BAFFE0697349036801225B68984762
:103D8000E37E002B3FF417AE0A23636013E603685B
:103D900029465B699847206A50B194F8283013B1DE
:103DA0000368DB689847E37E002B40F09481206A2B
:103DB000036865499B699847206A614903685B69A4
:103DC0009847206A6268036805995B6A9847206A89
:103DD0005B4903685B699847206A036806A95B69C9
:103DE0009847206A00283FF45EAE036855499B69F6
:103DF0009847206A00283FF456AE94F8283013B153
:103E00000368DB689847E37E002B3FF44CAE0A233F
:103E1000636048E6036829465B699847206A50B1A9
:103E200094F8283013B10368DB689847E37E002BD1
:103E300040F04E81206A036844499B699847206A94
:103E40003F4903685B699847206A6268036805997F
:103E50005B6A9847206A3A4903685B699847276A12
:103E6000D8F8000006F096F83B6841EC100B5B6B4D
:103E7000E16A38469847206A00283FF4E2AD0368BB
:103E800030499B699847206A00283FF4DAAD94F8DE
:103E9000283013B10368DB689847E37E002B3FF4BA
:103EA000D0AD0A236360CCE5036829465B69984777
:103EB000206A50B194F8283013B10368DB68984742
:103EC000E37E002B40F00181206A03681B499B6957
:103ED0009847206A1A4903685B699847206A6268B4
:103EE000036805995B6A9847206A154903685B690E
:103EF0009847276AD8F8080006F04CF83B6841EC70
:103F0000100B5B6BE16A38469847206A00283FF443
:103F100058AD03680B499B699847206A00283FF415
:103F200050AD94F8283013B10368DB689847E37EFE
:103F3000002B3FF446AD0A23636042E5585A010066
:103F4000E40EFF1F10550100285A0100385A0100E5
:103F5000804804F0E9FB00283FF41CAE03232360F3
:103F60000A2363607C497D4804F02EF87C4BE361B2
:103F7000012363624FF001300223A061794A7A493C
:103F80002562E36284F82850784805F009FE7148FC
:103F900004F0D0FBFEE56F4804F0C6FB00283FF4B8
:103FA0001EAD032323600A2363606B496B4804F052
:103FB0000BF80223E3626A4BE3614FF00133A36124
:103FC0000123684A6849256284F82850636267487B
:103FD00005F0E6FD5F4804F0ADFB00E55D4804F048
:103FE000A3FB00283FF403AE032323600A2363608E
:103FF00059495A4803F0E8FF4FF00133A361584B89
:10400000E361012363620223564A57492562E36252
:1040100084F82850554805F0C3FD4E4804F08AFB4B
:10402000E5E54C4804F080FB00283FF4CAAD0323CB
:1040300023600A2363604849484803F0C5FF4FF0F6
:104040000133A361464BE361012363620223454AC6
:1040500045492562E36284F82850444805F0A0FDF4
:104060003C4804F067FBACE503F012FEE9E503F021
:104070000FFE17E603F00CFE6CE6E069294603F03C
:10408000E1FDE37E0BB10A236360E0693849036810
:1040900016225B6898473149E06903F0D3FD6268F6
:1040A0000599E0690A2A19D0D2B2002303F010FE64
:1040B000E0693049036801225B689847E37E002B82
:1040C0003FF4A0AC0A2363609CE40A236360FBE630
:1040D0000A236360AEE60A23636068E603F0D8FD56
:1040E000E6E7036829465B699847206A50B194F86F
:1040F000283013B10368DB689847E37E0BB10A23CD
:104100006360206A03681A499B699847206A1349CB
:1041100003685B699847206A6268036805995B6A6F
:104120009847206A00283FF473AC036811499B69E3
:104130009847206A00283FF46BAC94F8283013B1FC
:104140000368DB689847E37E002B3FF461AC0A23E9
:1041500063605DE4D80EFF1F50560100E40EFF1FA0
:104160005407FF1FF806FF1F59040000DC0EFF1F55
:10417000745A010010550100014B024A1A60704741
:10418000C011FF1F032000382DE9F04FC0E90E12C7
:104190000022036480F870203CA3D3E9002385B09B
:1041A0000546C0E91A234FF0000A4FF0000B6423C4
:1041B0000E9C8365C0E918AB524651EC100B5B4670
:1041C0002C638DED000B57EC116B59EC128B06F044
:1041D000ABF9002835D152465B463046394606F0E9
:1041E000A3F970BB52465B464046494606F09CF92F
:1041F00038BB9DED007B0123C5E90267C5E9048951
:1042000085ED007B85ED067B304639466B6385F88E
:10421000713020A3D3E9002305F014FF02460B46BA
:104220004046494690469946C5E9088919A3D3E90D
:10423000002306F031F8012C06460F46C5E90A674F
:1042400009D0114B1B680393039B2846643B6B64A6
:1042500005B0BDE8F08FDDE900235046594605F072
:1042600039FD4246C5E906014B465046594605F020
:1042700031FD3246C5E908013B465046594605F036
:1042800029FDC5E90A01DCE7D816FF1F0000000080
:1042900000E06F409A9999999999B93FFFFFFFFF04
:1042A0002DE9F04F2DED048B90F8705087B05DB183
:1042B0005B4A436C12680592059A00921146826D22
:1042C000CB1A9A42044606D90025284607B0BDEC11
:1042D000048BBDE8F08F836BD3E900AB036C5246CF
:1042E000D3E900015B4605F0F5FCD4E9142306464A
:1042F0000F465046594605F0EDFCD4E908238046A8
:1043000089463046394605F09DFED4E9122305F072
:10431000E3FC94F87130019347EC186B06460F46A6
:10432000C4E9126749EC198B7BB9D4E906234046EE
:10433000494605F087FE02460B463046394605F0F1
:10434000C9FC06460F46C4E91267D4E91A89324609
:104350003B464046494606F0E7F800284CD194ED2C
:10436000187B324651EC170B3B468DED027B06F075
:10437000F9F828B19DED027B84ED127B57EC176BA9
:10438000019B002B3FD051EC180BD4E9062305F01C
:1043900059FE41EC180BD4E90A2351EC190B05F036
:1043A00051FE02460B463046394605F093FC53EC6D
:1043B000182B05F091FC06460F464046494632460A
:1043C0003B4606F0B1F850B9D4E9188932463B466D
:1043D0004046494606F0C6F808B9B046B946E36B10
:1043E000C3E90089009B63642846C4E914AB07B0A5
:1043F000BDEC048BBDE8F08F019BC4E912894646F1
:104400004F46002BBFD19FED047BB0EE478AF0EE04
:10441000678AC0E7AFF300800000000000000000E2
:10442000D816FF1F2DE9F84F57EC106B55EC114BC8
:10443000824611EE102A10EE100A2B46394606F07D
:1044400087F8002830D19AF87030CAE91867CAE9AD
:104450001A454BB3DAF83CB0DBE9008922462B461B
:104460004046494606F07EF800BB40464946324683
:104470003B4606F059F818B1CBE90067DAE91A456E
:10448000DAE9126722462B463046394606F06AF8CA
:1044900040B9DAE918453046394622462B4606F03F
:1044A00043F808B1CAE91245BDE8F88FCBE90045E9
:1044B000E6E700BF01292DE9F84304460CBF0125BA
:1044C000002503D084F87050BDE8F88390F8703070
:1044D000002BF7D1D0E90E32D2E90067C0E91267AC
:1044E000D0E91A89D3E900233946C0E914233046BC
:1044F00042464B4606F036F810B1C4E91289E1E7AE
:1045000030463946D4E9186732463B4606F00CF887
:104510000028D7D0C4E91267D4E700BF064B8160FA
:1045200082B01A680192019A42604FF0000C80F844
:1045300000C002B0704700BFD816FF1F10B40F4C68
:1045400041682368826883B00093009B5B1A9342A2
:1045500004D2002003B05DF8044B70472AB1037801
:104560001BB9114441600120F4E723680193019BCA
:104570004360012003B05DF8044B7047D816FF1F5D
:1045800058492DE9F043A1FB00435B09A1FB03411E
:10459000C3EB03144909A0EB8400534C1070C1EB2A
:1045A0000115A4FB014CA3EB85034FEA1C1C5370BF
:1045B0004E4B4F4E4F4FDFF844810CF10400A3FBEC
:1045C00000430CEB4C04A1EBC4019170C11A03EB46
:1045D00051039B08C3EBC303C01A431C0020D370D4
:1045E000014640F26D190DE0B7EBB40F46D3B8EBBE
:1045F000341F34BF4C464FF4B77421448C4500F14E
:1046000001000FD35FFA80FE0EF2B27313F00305C0
:1046100006FB03F4E8D040F26D1421448C4500F110
:104620000100EFD2344E82F806E0A6FB03067709BC
:10463000A5B36420F60900FB17374FF4C87000FBE0
:10464000163640F26D10ACEB010CDFF8B4E06044BC
:10465000012100230AE013F80E40844234D80C29CB
:10466000A0EB040012D001310133C9B2012B5FFA73
:1046700083FCF0D12DB9EFB11D2403E04FF4B774E2
:10468000BBE71C24A04229D3001BECE74FF00D0C24
:10469000013082F805C01071BDE8F083642000FB92
:1046A0001737F6094FF4C87000FB16363FB14FF4C8
:1046B000B770C8E7002E14BF1C241D24E2E7002EAB
:1046C000BFD14FF4B770BEE70CF1010C5FFA8CFC60
:1046D000013082F805C01071BDE8F0834FF0020C84
:1046E000D6E700BF89888888ABAAAAAA2549922460
:1046F000295C8FC2285C8F021F85EB510AD7A3006B
:104700000C5B0100F0B5234D234E2B683268234F1C
:1047100083B00093009B9B1AB3F57A7F37D3396837
:1047200001312C680094009B02F57A729B1AB3F554
:104730007A7F084601F10101F3D2326038600094BB
:10474000174C2368834211D8164B1B6873B19847E6
:1047500001430ED02B680193134B019A1B68326002
:1047600003442360114B386002221A70002103B009
:10477000F0BD0E490C4A0B7838681268003B18BF30
:10478000012302440B700021226003B0F0BD3868A1
:10479000D6E700BFD816FF1FC811FF1FD811FF1F93
:1047A000CC11FF1FE811FF1F0007FF1FD711FF1FCC
:1047B00070B5094EFFF7A6FFD6E90023994208BF5E
:1047C000904206D005460C46044AFFF7D9FEC6E9DA
:1047D0000054024B987870BDE011FF1FD011FF1FED
:1047E00070B5094EFFF78EFFD6E90023994208BF46
:1047F000904206D005460C46044AFFF7C1FEC6E9C2
:104800000054024B587870BDE011FF1FD011FF1FFC
:1048100070B5094EFFF776FFD6E90023994208BF2D
:10482000904206D005460C46044AFFF7A9FEC6E9A9
:104830000054024B187870BDE011FF1FD011FF1F0C
:1048400070B5094EFFF75EFFD6E90023994208BF15
:10485000904206D005460C46044AFFF791FEC6E991
:104860000054024B187970BDE011FF1FD011FF1FDB
:1048700070B5094EFFF746FFD6E90023994208BFFD
:10488000904206D005460C46044AFFF779FEC6E979
:104890000054024B587970BDE011FF1FD011FF1F6B
:1048A00070B50A4EFFF72EFFD6E90023994208BFE4
:1048B000904206D005460C46054AFFF761FEC6E960
:1048C0000054034B987900F2B27070BDE011FF1FE5
:1048D000D011FF1F00207047704700BF38B51B4B39
:1048E0001B491A7904460025216022F003024B215E
:1048F000C4F8F8101D601A71022010232021A4F8BA
:10490000983184F89401A4F89611C4F8A05029466F
:10491000C4F8B050402204F1B40007F0C3FFC4F85B
:104920008450C4F88850C4F88C50C4F89050982231
:10493000294604F1FC0007F0B5FF1F220F23C4F83D
:104940000021C4F80C31204638BD00BF8813FF1F7A
:104950000040024070B52D4EB6FBF1FCBCF1050FD6
:10496000B6FBFCF44FF00005A1EB040421D92B4663
:1049700003F1010E0233BCFBF3F2192A02FB03F32D
:104980000FD8B6FBF3F3CB1A002BB8BF5B42A342A0
:1049900009DA1C4675460B2A06D9122A9CBF1C460A
:1049A00075467346E4E7F6D0052AFAD86B1CBCFBC3
:1049B000F3FCACF1050CBCF1140F1ED8B4F5967FD6
:1049C0001BDC134B00680CEB4C0C03EB0C0213F8D4
:1049D0000C1053789278DB04120403F4601302F491
:1049E000E02201F0070113430B4343F4800343F437
:1049F000804343EA0563436070BD0648392104F0F3
:104A000017FFBDE87040044803F04AB90024F400E1
:104A10000407FF1F185B01005407FF1F012938BF5F
:104A2000012130B5D0F8A03004460F2928BF0F214E
:104A3000084684F894111BB3C1F1100E5FFA8EF58D
:104A4000AE4600222D01236803F1800C5CF8023091
:104A500003F4001343F080634CF8023010329542A7
:104A6000F1D110254FF0006123680EF1010280336F
:104A700015FB0E335FFA82FEBEF1100F1960F3D101
:104A800030BD00BF90F89431C3F11003DBB29A42FD
:104A900022D210B58C46864600EBC203D1E9000154
:104AA000043383E803009CF80430DEF80010DB07D1
:104AB00013D5DCF800001023843113FB021120F021
:104AC00060400860DEF80010803113FB02131A68A2
:104AD00042F400121A6010BD7047DCF8004009482B
:104AE0001023843113FB021100EA84400860DEF8D1
:104AF0000010803113FB02131A6822F400121A60AE
:104B000010BD00BF0000FC1F90F89431C3F11003EA
:104B1000DBB29A4222D2036810B41C68E4011ED4AE
:104B20001C6844F080441C600468236843F0805390
:104B3000236004682368DB01FCD504F5086404EBFA
:104B4000820421600268136823F0805313600268B6
:104B50001368DB01FCD45DF8044B7047704703F524
:104B6000086303EB82035DF8044B1960704700BFD4
:104B7000F0B5174683B0D0F8A0209DF82050064627
:104B80001C46002A00F08D80624A306890427BD03B
:104B9000614A137843F0800313703368A2F58222D0
:104BA000934206D102F51032D36B43F01003D36366
:104BB00033685A6822F400525A603268136843F02E
:104BC000804313603268136823F000431360326837
:104BD0001368DB02FCD4136883F00073136033683E
:104BE0001C6814F00074FBD11A68D501FCD51A6852
:104BF00042F400321A603046FFF7ACFE32681368A8
:104C000043F48033136096F89411102912D00025D4
:104C10002A4630460021FFF777FF2A463946FFF73C
:104C200031FF96F894110134C1F11003E5B2DBB203
:104C30009D42EDD33268136823F0805313603368CC
:104C40001A68D001FCD41A681201FCD43046FFF770
:104C5000E5FED6F8F83003F1604303F564434022E3
:104C60001A70D6F8F820530903F138234033012194
:104C70009B0002F01F0201FA02F21A6033684FF63D
:104C8000FF70986203B0F0BD012C2CD0234B4FF481
:104C90000072012D1A632CD0204B4FF400725A631E
:104CA00076E7B0F898010191000103F049FDD6F8CC
:104CB000B0300199C6F8A00003B3C6F8AC300023A9
:104CC000A6F89430A6F89630A6F8A430A6F8A63038
:104CD000B6F89831A6F89830B6F89631C6F89C0028
:104CE000A6F8A83050E70E4B4FF40072012D9A64DD
:104CF000D2D10B4B4FF40072DA6449E7B6F8960153
:104D0000000103F01DFD0199C6F8B0000346D6F876
:104D1000A000D2E70040024000500640009004404E
:104D200000A0044030B58B7904684FF0100E04F1F8
:104D3000840CDC071EFB02CC25D50C6824F06044F3
:104D4000CCF80040046804F1880C8C681EFB02CC8F
:104D500024BACCF80040046804F18C0C1EFB02CC91
:104D600012FB0EFECA6812BACCF800209A073CD596
:104D7000CB7902681B04803203F4702343F047634D
:104D800042F80E3030BD0D681D4C04EA8544CCF865
:104D90000040046804F1880C8C681EFB02CC24BA25
:104DA000CCF80040046804F18C0C1EFB02CC12FB12
:104DB0000EFECA689B0712BACCF800200AD5CB7940
:104DC00002681B04803203F4702343F0416342F80D
:104DD0000E3030BDCB7902681B04803203F470239F
:104DE00043F0406342F80E3030BDCB7902681B04BB
:104DF000803203F4702343F0466342F80E3030BD36
:104E00000000FC1F70B50446D0F8F800430903F118
:104E1000382340339B0000F01F001D6801228240B0
:104E2000154214BF0125002584F8F450C3F88020F2
:104E3000B4F89430B4F896209BB292B29A422DD036
:104E4000B4F89430B4F89800B4F896209BB20133CB
:104E5000B3FBF0F600FB163392B29EB2964242D0FC
:104E6000B4F89430D4F89C009BB200EB03101022ED
:104E700003F02CFB94F8F450A4F89460012065B181
:104E8000D4F8F820530903F13823403301219B0063
:104E900002F01F0201FA02F21A6070BD94F8942128
:104EA000C2F11002D2B20F2ACAD802F180432C33C9
:104EB00004EB830304F1F00C03E0634502F101020B
:104EC000BED053F8040F0028F7D1266810018036B1
:104ED0003058C0F303600828EFD12046D2B2FFF764
:104EE00021FF0120CBE70020C9E700BF0B46016886
:104EF0004FF0100C80311CFB021170B509689980CD
:104F0000C1F30346DE710468843412FB0CFE1CFB03
:104F1000024CC1F30055C1F34052DCF8004042EAB4
:104F20004502C1F3036C9A71ACF1060CD2B2D20700
:104F3000BCFA8CFC9A7924F060444FEA5C1C1C603B
:104F40006CF382025CBFA40C1C609A710268883208
:104F5000042E52F80E2012BAC1F307459A6005D903
:104F600002688C3252F80E2012BADA6015F008018D
:104F700008D106F10800C6F108021844BDE87040E7
:104F800007F090BC70BD00BF2DE9F04F834689B09B
:104F90005BF8B42B136B03930546824600249946B5
:104FA00008E0022B4CD00134102C0AF1080A0BF156
:104FB000040B40D029FA04F3D907F4D5270102F1F4
:104FC0008003DB59C3F30363062B39D0082BE8D1E8
:104FD000DBF80060002E00F0B9803188738889B258
:104FE0009BB2994200F0BE803188738889B29BB22F
:104FF0009942D8D07388B1689BB2102201EB03119B
:105000000DEB020003F062FA7388B2889BB20133A1
:10501000B3FBF2F102FB11339BB2E2B2738004A93D
:1050200028460134FFF77EFE102C2A680AF1080A90
:105030000BF1040BBED1039B136309B0BDE8F08FE5
:10504000E2B204A92846FFF751FF95F8FC306BB196
:10505000DAF814310133CAF814319DF816305B07C1
:1050600004D5DAF818310133CAF818310123A34006
:105070000093002305F1800605F190080193CDF817
:1050800008B056F8040F48B14268009B134033D073
:105090000368D3F800B0464B9B455AD1B045F0D1D8
:1050A000019BDDF808B093B395F8FC3083B1B5F8F7
:1050B000A430B5F8A6209BB292B29B1A44BFB5F8B3
:1050C000A8209B18D5F804219A4238BFC5F80431AE
:1050D00005EBC403DAF804201B7A13F0010F2B68E8
:1050E00008BF344903F1840314BF22F0604201EA8F
:1050F0008242DA512A6856E7002ACFDA0268D2F8EB
:1051000000B02B4A9345C9D04FF0FF3223E0B5F8E9
:10511000A430B5F8A810B5F8A6209BB20133B3FBB4
:10512000F1F001FB103392B29EB2964231D0B5F845
:10513000A430D5F8AC009BB2102200EB03100DEBAD
:10514000020103F0C3F9A5F8A460ADE705F19406E8
:1051500043E70023224604A9D847019B1843C3B262
:1051600001939BE70127A74047F0004705F1800620
:1051700005F1900856F8040F38B143681F4204D077
:1051800003680D4A5B6893420DD1B045F2D12A689D
:1051900009E795F8FC30002B9AD0D5F80831013397
:1051A000C5F8083183E7002221469847EDE700BFA4
:1051B000D54800000000FC1FD94800000148FFF757
:1051C000E3BE00BFEC11FF1F704700BF014B1B681F
:1051D0001B6A7047EC11FF1F704700BF704700BF8C
:1051E000704700BF01480021FFF778BBEC11FF1F9B
:1051F00090F81CC04160BCF1020FC26001D183680D
:10520000184702F057BC00BF2DE9F0410468E5687B
:1052100015F0807F764D256048D1DD0700F1C9800B
:1052200090F824601F4646EA0626002F00F0B08062
:1052300031B10E784D7846EA052676BA0231B6B21B
:10524000456895F808C0022F0CF1FF3C4FEA0C3C72
:105250000CBF46F0805546F010451FFA8CFC656384
:10526000023F09E012B10EF8014B7246013B05F412
:105270007045654516D90468E56A15F0F00FF6D05B
:1052800013F0010FA46B9646ECD1C4F307281AB1B2
:105290000EF8028B5470724605F470456545A3F113
:1052A0000203E8D8002F73D00468C1E7DD075BD4A0
:1052B00090F824701E46BFB2002E42D021B14D7826
:1052C00011F8027B47EA0527456895F808C0022EC9
:1052D0000CF1FF3C4FEA0C3C0CBF47F0805547F007
:1052E00010451FFA8CFC6563023E09E012B10EF80E
:1052F000014B7246013B05F47045654516D90468BB
:10530000E56A15F0F00FF6D013F0010FA46B964686
:10531000ECD12AB10EF8024BC4F307245470724644
:1053200005F470456545A3F10203E8D84EB1046861
:10533000C4E72AB104F8021BC1F3072151702246C9
:10534000023B7BB10168CC6A14F0F00FF9D0DD07A5
:10535000896B1446EDD512B104F8011B2246013BBE
:10536000002BEFD1BDE8F08179B311F8015B012B7F
:1053700018BF45F00045656390F824705E1E9AE7FB
:10538000C1F307251AB104F8025B51702246023BB3
:10539000002BE7D00168CC6A14F0F00FF8D0DE07DC
:1053A000896B1446ECD512B104F8011B2246013B6F
:1053B000EEE799B111F8015B012B18BF45F00045EC
:1053C000656390F824605F1E2DE790F82470012B30
:1053D0001ABF47F0004565636763CFE790F8246024
:1053E000012B1ABF46F0004565636663EBE700BF1B
:1053F00000041F8010B400248460C4600461446110
:105400008461C461046284848462C462046344630A
:10541000C0E900125DF8044B704700BF436810B448
:105420001C685A682168114302682160164C1749AC
:105430001460D160164C174914611160417A164A04
:105440005C180C3194F82CC053F8214002EBCC01CD
:1054500049680C60017A5C1803EB810194F818C06C
:10546000CC6902EBCC0149680C60817A5DF8044B91
:10547000581803EB810390F84000596C02EBC0020E
:1054800053681960704700BF01401F0001100038C9
:105490000110007800001F80B85D01000BB1FFF71C
:1054A000B3BE704770B4026B4B4B1279DA77C26AA5
:1054B00012791A77026B12791A77826A2AB34368D3
:1054C000DB689A4244D9C46A016BD21A23688262AB
:1054D0001D6800F12404A5424FF001025AD004686F
:1054E000E56815F0804F1D682AD12D781E6845F0BB
:1054F000004501361E606563374B0979D97612B1D4
:10550000C26A1279DA7670BC70470168334C436B1B
:105510000A63CC62CC6824F08044CC601C683049BB
:1055200024684FF0030C8C4280F825C03AD1197FD3
:105530005A600229DA603AD170BC9A68184610475E
:105540002D881E6845F0004502361E606563D3E76E
:10555000C36A1B68DC8B260402F1FF3133D4C1F32C
:105560000E01D983DC8B016BA4B2DC820C68E58B65
:105570002D0420D4C2F30E05E583E58BADB2E582A0
:105580001D680024013A846200F1240418BF01223E
:10559000A542A4D10368DC6890F8244044F000449C
:1055A0005C63A9E718461146234670BC184770BCD7
:1055B000184602F07FBAE58BC2F3080605F47E4573
:1055C0003543E583D9E7DC8BC1F3080104F47E445D
:1055D0002143D983C6E700BF0080004000000FFFD1
:1055E000F151000008B50248FFF75CFF08BD00BF9D
:1055F0009013FF1F08B50248FFF754FF08BD00BF16
:10560000C813FF1F08B50248FFF74CFF08BD00BFD5
:105610000014FF1F08B5084A08490948FFF7EAFEC9
:10562000084A09490948FFF7E5FE094A09490A48B5
:10563000FFF7E0FE08BD00BF545B010000C0024060
:105640009013FF1FE85B010000D00240C813FF1F4A
:105650007C5C010000C00A400014FF1F002070475E
:10566000C06938B1C269006947F6FF73101A9842E1
:1056700028BF1846704700BF10B50446C06938B14E
:105680000023436001F09CFDE3695B6803B910BD32
:1056900001236360002010BD10B50446C06982B0CC
:1056A00080B101220DF1070101F0C2FA01280DD1EC
:1056B000E0699DF807400169013901F067FB204668
:1056C00002B010BD0446204602B010BD4FF0FF34BA
:1056D000F5E700BFC06908B101F088BB704700BFA3
:1056E000C06978B100B583B001220DF1070101F066
:1056F0009FFA01280CBF9DF807004FF0FF3003B060
:105700005DF804FB4FF0FF30704700BF10B5036831
:10571000104A5B6882B093428DF8071013D104469B
:10572000C06958B10023436001220DF1070101F067
:1057300047FDE3695B680BB902B010BD012300208F
:10574000636002B010BD01220DF10701984702B05D
:1057500010BD00BF79560000F8B54FF47A7383602E
:1057600000250C4B456004460573036028200F4656
:10577000164605F005F9E06150B13946282202F0DD
:10578000A5FE0C22314604F10D0007F089F965767B
:105790002046F8BD185D0100002210B4054C0460DD
:1057A0004FF47A715DF8044BC2614260816082817E
:1057B000704700BF185D0100704700BF0D30704793
:1057C00010B50446C06930B101F098F9E06905F000
:1057D000DFF80023E36110BDC06918B1407A0038DA
:1057E00018BF0120704700BF10B50D4B8AB00024D0
:1057F000CDE900340A460123014668468DF8094088
:1058000001F05CFCA04218BF012402D120460AB07E
:1058100010BD684601F072F920460AB010BD00BF05
:10582000505D010030B5124B97B000240A46CDE917
:105830000234CDE90C3401910546014601230CA840
:105840008DF811408DF8394001F038FC019A40B9CB
:10585000294602A801F03EFC003818BF012017B00D
:1058600030BD0CA801F04AF9012017B030BD00BFCF
:10587000505D01002DE9F0430B68C45C2F2C08BF7C
:10588000013300EB030C08BFC45C02F1FF3E03F1DF
:105890000C09E04601E01CF8014F2F2CACEB080787
:1058A0001E46654608D03CB101334B450EF8014F0A
:1058B000F1D11E46C5180C270024D4552A782F2A6A
:1058C00004BF5E1C85190E602878003818BF0120BF
:1058D000BDE8F0832DE9F04F9BB000249946214BA1
:1058E00007948DF8214011948DF849400194884621
:1058F000834692460C460693109306AF02AA01A96E
:105900005846FFF7B7FF80F001024B46D2B202A91A
:1059100005462046D0472146012302AA064688B103
:10592000BDB1384601F0CAFB44450546204606D0C5
:1059300001F0E4F845B123463C461F46DEE71DB1C1
:1059400010ACF8E7444506D1002630461BB0BDE850
:10595000F08F4445F9D0204601F0D0F830461BB016
:10596000BDE8F08F505D010038B590F83530044641
:105970000D464BB9FE2D0CD02A460121204600F0E1
:105980009BFD78B9002038BD2C3001F0B7F8FE2D12
:10599000F2D1257000F03CFA054600F027FAA0701D
:1059A000002DEFD1251D01222146284601F09CFF44
:1059B00040B1294604F12C0001F012F9003818BF5B
:1059C000012038BD02462146284601F08DFF0028FF
:1059D000D8D0EEE72DE9F04F9BB04FF00008DFF88C
:1059E000E4B001930431814606A89246CDF81C80AC
:1059F0008DF82180CDF844808DF84980CDF818B01D
:105A0000CDF840B001F0ECF806AE554610AF2F21AE
:105A1000284606F099FF03465C1B294602A8E4B21B
:105A20000BB32B782F2B1CD00C2C28BF0C24224618
:105A300007F036F804F168036B44384603F8608CCD
:105A400001F05CF83146012302AA384601F036FB2A
:105A500070B3304601F052F8334625443E461F46A7
:105A6000D5E70135D3E7019B31893269307EA5EB5B
:105A70000A051D607368C9F80430F368A9F80810B6
:105A8000C9F80C3006F11C017369C9F81020C9F877
:105A900014300EC989F818004846C9F800B0C9F892
:105AA0001C10C9F82020C9F824301BB0BDE8F08FC5
:105AB000C9F8040089F809004846C9F800B01BB0CD
:105AC000BDE8F08F505D0100F0B5A1B005461E465F
:105AD00002A801AB1446FFF77DFF019AA15C1444B4
